{
  "abi": [
    {
      "type": "constructor",
      "inputs": [],
      "stateMutability": "nonpayable"
    },
    {
      "type": "function",
      "name": "DEFAULT_ADMIN_ROLE",
      "inputs": [],
      "outputs": [
        {
          "name": "",
          "type": "bytes32",
          "internalType": "bytes32"
        }
      ],
      "stateMutability": "view"
    },
    {
      "type": "function",
      "name": "MINTER_ROLE",
      "inputs": [],
      "outputs": [
        {
          "name": "",
          "type": "bytes32",
          "internalType": "bytes32"
        }
      ],
      "stateMutability": "view"
    },
    {
      "type": "function",
      "name": "achievementRequirements",
      "inputs": [
        {
          "name": "",
          "type": "string",
          "internalType": "string"
        }
      ],
      "outputs": [
        {
          "name": "",
          "type": "uint256",
          "internalType": "uint256"
        }
      ],
      "stateMutability": "view"
    },
    {
      "type": "function",
      "name": "achievements",
      "inputs": [
        {
          "name": "",
          "type": "string",
          "internalType": "string"
        }
      ],
      "outputs": [
        {
          "name": "id",
          "type": "string",
          "internalType": "string"
        },
        {
          "name": "name",
          "type": "string",
          "internalType": "string"
        },
        {
          "name": "description",
          "type": "string",
          "internalType": "string"
        },
        {
          "name": "category",
          "type": "uint8",
          "internalType": "enum AchievementNFT.AchievementCategory"
        },
        {
          "name": "rarity",
          "type": "uint8",
          "internalType": "enum AchievementNFT.AchievementRarity"
        },
        {
          "name": "xpReward",
          "type": "uint256",
          "internalType": "uint256"
        },
        {
          "name": "combatPowerReward",
          "type": "uint256",
          "internalType": "uint256"
        },
        {
          "name": "exists",
          "type": "bool",
          "internalType": "bool"
        },
        {
          "name": "active",
          "type": "bool",
          "internalType": "bool"
        },
        {
          "name": "metadataURI",
          "type": "string",
          "internalType": "string"
        }
      ],
      "stateMutability": "view"
    },
    {
      "type": "function",
      "name": "approve",
      "inputs": [
        {
          "name": "to",
          "type": "address",
          "internalType": "address"
        },
        {
          "name": "tokenId",
          "type": "uint256",
          "internalType": "uint256"
        }
      ],
      "outputs": [],
      "stateMutability": "nonpayable"
    },
    {
      "type": "function",
      "name": "balanceOf",
      "inputs": [
        {
          "name": "owner",
          "type": "address",
          "internalType": "address"
        }
      ],
      "outputs": [
        {
          "name": "",
          "type": "uint256",
          "internalType": "uint256"
        }
      ],
      "stateMutability": "view"
    },
    {
      "type": "function",
      "name": "batchCreateAchievements",
      "inputs": [
        {
          "name": "achievementIds",
          "type": "string[]",
          "internalType": "string[]"
        },
        {
          "name": "names",
          "type": "string[]",
          "internalType": "string[]"
        },
        {
          "name": "descriptions",
          "type": "string[]",
          "internalType": "string[]"
        },
        {
          "name": "categories",
          "type": "uint8[]",
          "internalType": "enum AchievementNFT.AchievementCategory[]"
        },
        {
          "name": "rarities",
          "type": "uint8[]",
          "internalType": "enum AchievementNFT.AchievementRarity[]"
        },
        {
          "name": "xpRewards",
          "type": "uint256[]",
          "internalType": "uint256[]"
        },
        {
          "name": "combatPowerRewards",
          "type": "uint256[]",
          "internalType": "uint256[]"
        },
        {
          "name": "requirements",
          "type": "uint256[]",
          "internalType": "uint256[]"
        },
        {
          "name": "metadataURIs",
          "type": "string[]",
          "internalType": "string[]"
        }
      ],
      "outputs": [],
      "stateMutability": "nonpayable"
    },
    {
      "type": "function",
      "name": "batchMintAchievements",
      "inputs": [
        {
          "name": "user",
          "type": "address",
          "internalType": "address"
        },
        {
          "name": "achievementIds",
          "type": "string[]",
          "internalType": "string[]"
        }
      ],
      "outputs": [
        {
          "name": "",
          "type": "uint256[]",
          "internalType": "uint256[]"
        }
      ],
      "stateMutability": "nonpayable"
    },
    {
      "type": "function",
      "name": "createAchievement",
      "inputs": [
        {
          "name": "achievementId",
          "type": "string",
          "internalType": "string"
        },
        {
          "name": "name",
          "type": "string",
          "internalType": "string"
        },
        {
          "name": "description",
          "type": "string",
          "internalType": "string"
        },
        {
          "name": "category",
          "type": "uint8",
          "internalType": "enum AchievementNFT.AchievementCategory"
        },
        {
          "name": "rarity",
          "type": "uint8",
          "internalType": "enum AchievementNFT.AchievementRarity"
        },
        {
          "name": "xpReward",
          "type": "uint256",
          "internalType": "uint256"
        },
        {
          "name": "combatPowerReward",
          "type": "uint256",
          "internalType": "uint256"
        },
        {
          "name": "requirement",
          "type": "uint256",
          "internalType": "uint256"
        },
        {
          "name": "metadataURI",
          "type": "string",
          "internalType": "string"
        }
      ],
      "outputs": [],
      "stateMutability": "nonpayable"
    },
    {
      "type": "function",
      "name": "getAchievementStats",
      "inputs": [],
      "outputs": [
        {
          "name": "totalMinted",
          "type": "uint256",
          "internalType": "uint256"
        },
        {
          "name": "uniqueHolders",
          "type": "uint256",
          "internalType": "uint256"
        },
        {
          "name": "achievementTypes",
          "type": "uint256",
          "internalType": "uint256"
        }
      ],
      "stateMutability": "view"
    },
    {
      "type": "function",
      "name": "getAchievementsByCategory",
      "inputs": [
        {
          "name": "category",
          "type": "uint8",
          "internalType": "enum AchievementNFT.AchievementCategory"
        }
      ],
      "outputs": [
        {
          "name": "",
          "type": "string[]",
          "internalType": "string[]"
        }
      ],
      "stateMutability": "view"
    },
    {
      "type": "function",
      "name": "getAllAchievements",
      "inputs": [
        {
          "name": "offset",
          "type": "uint256",
          "internalType": "uint256"
        },
        {
          "name": "limit",
          "type": "uint256",
          "internalType": "uint256"
        }
      ],
      "outputs": [
        {
          "name": "ids",
          "type": "string[]",
          "internalType": "string[]"
        },
        {
          "name": "names",
          "type": "string[]",
          "internalType": "string[]"
        },
        {
          "name": "categories",
          "type": "uint8[]",
          "internalType": "uint8[]"
        },
        {
          "name": "rarities",
          "type": "uint8[]",
          "internalType": "uint8[]"
        },
        {
          "name": "actives",
          "type": "bool[]",
          "internalType": "bool[]"
        },
        {
          "name": "total",
          "type": "uint256",
          "internalType": "uint256"
        }
      ],
      "stateMutability": "view"
    },
    {
      "type": "function",
      "name": "getApproved",
      "inputs": [
        {
          "name": "tokenId",
          "type": "uint256",
          "internalType": "uint256"
        }
      ],
      "outputs": [
        {
          "name": "",
          "type": "address",
          "internalType": "address"
        }
      ],
      "stateMutability": "view"
    },
    {
      "type": "function",
      "name": "getRecentMints",
      "inputs": [],
      "outputs": [
        {
          "name": "tokenIds",
          "type": "uint256[]",
          "internalType": "uint256[]"
        },
        {
          "name": "recipients",
          "type": "address[]",
          "internalType": "address[]"
        },
        {
          "name": "achievementIds",
          "type": "string[]",
          "internalType": "string[]"
        },
        {
          "name": "timestamps",
          "type": "uint256[]",
          "internalType": "uint256[]"
        }
      ],
      "stateMutability": "view"
    },
    {
      "type": "function",
      "name": "getRoleAdmin",
      "inputs": [
        {
          "name": "role",
          "type": "bytes32",
          "internalType": "bytes32"
        }
      ],
      "outputs": [
        {
          "name": "",
          "type": "bytes32",
          "internalType": "bytes32"
        }
      ],
      "stateMutability": "view"
    },
    {
      "type": "function",
      "name": "getUserAchievementDetails",
      "inputs": [
        {
          "name": "user",
          "type": "address",
          "internalType": "address"
        },
        {
          "name": "tokenId",
          "type": "uint256",
          "internalType": "uint256"
        }
      ],
      "outputs": [
        {
          "name": "",
          "type": "tuple",
          "internalType": "struct AchievementNFT.Achievement",
          "components": [
            {
              "name": "id",
              "type": "string",
              "internalType": "string"
            },
            {
              "name": "name",
              "type": "string",
              "internalType": "string"
            },
            {
              "name": "description",
              "type": "string",
              "internalType": "string"
            },
            {
              "name": "category",
              "type": "uint8",
              "internalType": "enum AchievementNFT.AchievementCategory"
            },
            {
              "name": "rarity",
              "type": "uint8",
              "internalType": "enum AchievementNFT.AchievementRarity"
            },
            {
              "name": "xpReward",
              "type": "uint256",
              "internalType": "uint256"
            },
            {
              "name": "combatPowerReward",
              "type": "uint256",
              "internalType": "uint256"
            },
            {
              "name": "exists",
              "type": "bool",
              "internalType": "bool"
            },
            {
              "name": "active",
              "type": "bool",
              "internalType": "bool"
            },
            {
              "name": "metadataURI",
              "type": "string",
              "internalType": "string"
            }
          ]
        }
      ],
      "stateMutability": "view"
    },
    {
      "type": "function",
      "name": "getUserAchievementStats",
      "inputs": [
        {
          "name": "user",
          "type": "address",
          "internalType": "address"
        }
      ],
      "outputs": [
        {
          "name": "totalAchievements",
          "type": "uint256",
          "internalType": "uint256"
        },
        {
          "name": "totalXP",
          "type": "uint256",
          "internalType": "uint256"
        },
        {
          "name": "totalCombatPower",
          "type": "uint256",
          "internalType": "uint256"
        },
        {
          "name": "completionRate",
          "type": "uint256",
          "internalType": "uint256"
        }
      ],
      "stateMutability": "view"
    },
    {
      "type": "function",
      "name": "getUserAchievementToken",
      "inputs": [
        {
          "name": "user",
          "type": "address",
          "internalType": "address"
        },
        {
          "name": "achievementId",
          "type": "string",
          "internalType": "string"
        }
      ],
      "outputs": [
        {
          "name": "",
          "type": "uint256",
          "internalType": "uint256"
        }
      ],
      "stateMutability": "view"
    },
    {
      "type": "function",
      "name": "getUserAchievements",
      "inputs": [
        {
          "name": "user",
          "type": "address",
          "internalType": "address"
        }
      ],
      "outputs": [
        {
          "name": "",
          "type": "uint256[]",
          "internalType": "uint256[]"
        }
      ],
      "stateMutability": "view"
    },
    {
      "type": "function",
      "name": "grantMinterRole",
      "inputs": [
        {
          "name": "account",
          "type": "address",
          "internalType": "address"
        }
      ],
      "outputs": [],
      "stateMutability": "nonpayable"
    },
    {
      "type": "function",
      "name": "grantRole",
      "inputs": [
        {
          "name": "role",
          "type": "bytes32",
          "internalType": "bytes32"
        },
        {
          "name": "account",
          "type": "address",
          "internalType": "address"
        }
      ],
      "outputs": [],
      "stateMutability": "nonpayable"
    },
    {
      "type": "function",
      "name": "hasAchievement",
      "inputs": [
        {
          "name": "user",
          "type": "address",
          "internalType": "address"
        },
        {
          "name": "achievementId",
          "type": "string",
          "internalType": "string"
        }
      ],
      "outputs": [
        {
          "name": "",
          "type": "bool",
          "internalType": "bool"
        }
      ],
      "stateMutability": "view"
    },
    {
      "type": "function",
      "name": "hasRole",
      "inputs": [
        {
          "name": "role",
          "type": "bytes32",
          "internalType": "bytes32"
        },
        {
          "name": "account",
          "type": "address",
          "internalType": "address"
        }
      ],
      "outputs": [
        {
          "name": "",
          "type": "bool",
          "internalType": "bool"
        }
      ],
      "stateMutability": "view"
    },
    {
      "type": "function",
      "name": "incrementUserProgress",
      "inputs": [
        {
          "name": "user",
          "type": "address",
          "internalType": "address"
        },
        {
          "name": "achievementId",
          "type": "string",
          "internalType": "string"
        },
        {
          "name": "amount",
          "type": "uint256",
          "internalType": "uint256"
        }
      ],
      "outputs": [],
      "stateMutability": "nonpayable"
    },
    {
      "type": "function",
      "name": "isApprovedForAll",
      "inputs": [
        {
          "name": "owner",
          "type": "address",
          "internalType": "address"
        },
        {
          "name": "operator",
          "type": "address",
          "internalType": "address"
        }
      ],
      "outputs": [
        {
          "name": "",
          "type": "bool",
          "internalType": "bool"
        }
      ],
      "stateMutability": "view"
    },
    {
      "type": "function",
      "name": "mintAchievement",
      "inputs": [
        {
          "name": "user",
          "type": "address",
          "internalType": "address"
        },
        {
          "name": "achievementId",
          "type": "string",
          "internalType": "string"
        }
      ],
      "outputs": [
        {
          "name": "",
          "type": "uint256",
          "internalType": "uint256"
        }
      ],
      "stateMutability": "nonpayable"
    },
    {
      "type": "function",
      "name": "name",
      "inputs": [],
      "outputs": [
        {
          "name": "",
          "type": "string",
          "internalType": "string"
        }
      ],
      "stateMutability": "view"
    },
    {
      "type": "function",
      "name": "owner",
      "inputs": [],
      "outputs": [
        {
          "name": "",
          "type": "address",
          "internalType": "address"
        }
      ],
      "stateMutability": "view"
    },
    {
      "type": "function",
      "name": "ownerOf",
      "inputs": [
        {
          "name": "tokenId",
          "type": "uint256",
          "internalType": "uint256"
        }
      ],
      "outputs": [
        {
          "name": "",
          "type": "address",
          "internalType": "address"
        }
      ],
      "stateMutability": "view"
    },
    {
      "type": "function",
      "name": "pause",
      "inputs": [],
      "outputs": [],
      "stateMutability": "nonpayable"
    },
    {
      "type": "function",
      "name": "paused",
      "inputs": [],
      "outputs": [
        {
          "name": "",
          "type": "bool",
          "internalType": "bool"
        }
      ],
      "stateMutability": "view"
    },
    {
      "type": "function",
      "name": "renounceOwnership",
      "inputs": [],
      "outputs": [],
      "stateMutability": "nonpayable"
    },
    {
      "type": "function",
      "name": "renounceRole",
      "inputs": [
        {
          "name": "role",
          "type": "bytes32",
          "internalType": "bytes32"
        },
        {
          "name": "callerConfirmation",
          "type": "address",
          "internalType": "address"
        }
      ],
      "outputs": [],
      "stateMutability": "nonpayable"
    },
    {
      "type": "function",
      "name": "revokeMinterRole",
      "inputs": [
        {
          "name": "account",
          "type": "address",
          "internalType": "address"
        }
      ],
      "outputs": [],
      "stateMutability": "nonpayable"
    },
    {
      "type": "function",
      "name": "revokeRole",
      "inputs": [
        {
          "name": "role",
          "type": "bytes32",
          "internalType": "bytes32"
        },
        {
          "name": "account",
          "type": "address",
          "internalType": "address"
        }
      ],
      "outputs": [],
      "stateMutability": "nonpayable"
    },
    {
      "type": "function",
      "name": "safeTransferFrom",
      "inputs": [
        {
          "name": "from",
          "type": "address",
          "internalType": "address"
        },
        {
          "name": "to",
          "type": "address",
          "internalType": "address"
        },
        {
          "name": "tokenId",
          "type": "uint256",
          "internalType": "uint256"
        }
      ],
      "outputs": [],
      "stateMutability": "nonpayable"
    },
    {
      "type": "function",
      "name": "safeTransferFrom",
      "inputs": [
        {
          "name": "from",
          "type": "address",
          "internalType": "address"
        },
        {
          "name": "to",
          "type": "address",
          "internalType": "address"
        },
        {
          "name": "tokenId",
          "type": "uint256",
          "internalType": "uint256"
        },
        {
          "name": "data",
          "type": "bytes",
          "internalType": "bytes"
        }
      ],
      "outputs": [],
      "stateMutability": "nonpayable"
    },
    {
      "type": "function",
      "name": "setApprovalForAll",
      "inputs": [
        {
          "name": "operator",
          "type": "address",
          "internalType": "address"
        },
        {
          "name": "approved",
          "type": "bool",
          "internalType": "bool"
        }
      ],
      "outputs": [],
      "stateMutability": "nonpayable"
    },
    {
      "type": "function",
      "name": "supportsInterface",
      "inputs": [
        {
          "name": "interfaceId",
          "type": "bytes4",
          "internalType": "bytes4"
        }
      ],
      "outputs": [
        {
          "name": "",
          "type": "bool",
          "internalType": "bool"
        }
      ],
      "stateMutability": "pure"
    },
    {
      "type": "function",
      "name": "symbol",
      "inputs": [],
      "outputs": [
        {
          "name": "",
          "type": "string",
          "internalType": "string"
        }
      ],
      "stateMutability": "view"
    },
    {
      "type": "function",
      "name": "toggleAchievementActive",
      "inputs": [
        {
          "name": "achievementId",
          "type": "string",
          "internalType": "string"
        }
      ],
      "outputs": [],
      "stateMutability": "nonpayable"
    },
    {
      "type": "function",
      "name": "tokenAchievementId",
      "inputs": [
        {
          "name": "",
          "type": "uint256",
          "internalType": "uint256"
        }
      ],
      "outputs": [
        {
          "name": "",
          "type": "string",
          "internalType": "string"
        }
      ],
      "stateMutability": "view"
    },
    {
      "type": "function",
      "name": "tokenByIndex",
      "inputs": [
        {
          "name": "index",
          "type": "uint256",
          "internalType": "uint256"
        }
      ],
      "outputs": [
        {
          "name": "",
          "type": "uint256",
          "internalType": "uint256"
        }
      ],
      "stateMutability": "view"
    },
    {
      "type": "function",
      "name": "tokenOfOwnerByIndex",
      "inputs": [
        {
          "name": "owner",
          "type": "address",
          "internalType": "address"
        },
        {
          "name": "index",
          "type": "uint256",
          "internalType": "uint256"
        }
      ],
      "outputs": [
        {
          "name": "",
          "type": "uint256",
          "internalType": "uint256"
        }
      ],
      "stateMutability": "view"
    },
    {
      "type": "function",
      "name": "tokenURI",
      "inputs": [
        {
          "name": "tokenId",
          "type": "uint256",
          "internalType": "uint256"
        }
      ],
      "outputs": [
        {
          "name": "",
          "type": "string",
          "internalType": "string"
        }
      ],
      "stateMutability": "view"
    },
    {
      "type": "function",
      "name": "totalSupply",
      "inputs": [],
      "outputs": [
        {
          "name": "",
          "type": "uint256",
          "internalType": "uint256"
        }
      ],
      "stateMutability": "view"
    },
    {
      "type": "function",
      "name": "transferFrom",
      "inputs": [
        {
          "name": "from",
          "type": "address",
          "internalType": "address"
        },
        {
          "name": "to",
          "type": "address",
          "internalType": "address"
        },
        {
          "name": "tokenId",
          "type": "uint256",
          "internalType": "uint256"
        }
      ],
      "outputs": [],
      "stateMutability": "nonpayable"
    },
    {
      "type": "function",
      "name": "transferOwnership",
      "inputs": [
        {
          "name": "newOwner",
          "type": "address",
          "internalType": "address"
        }
      ],
      "outputs": [],
      "stateMutability": "nonpayable"
    },
    {
      "type": "function",
      "name": "unpause",
      "inputs": [],
      "outputs": [],
      "stateMutability": "nonpayable"
    },
    {
      "type": "function",
      "name": "updateAchievementMetadata",
      "inputs": [
        {
          "name": "achievementId",
          "type": "string",
          "internalType": "string"
        },
        {
          "name": "newMetadataURI",
          "type": "string",
          "internalType": "string"
        }
      ],
      "outputs": [],
      "stateMutability": "nonpayable"
    },
    {
      "type": "function",
      "name": "updateUserProgress",
      "inputs": [
        {
          "name": "user",
          "type": "address",
          "internalType": "address"
        },
        {
          "name": "achievementId",
          "type": "string",
          "internalType": "string"
        },
        {
          "name": "progress",
          "type": "uint256",
          "internalType": "uint256"
        }
      ],
      "outputs": [],
      "stateMutability": "nonpayable"
    },
    {
      "type": "function",
      "name": "userAchievements",
      "inputs": [
        {
          "name": "",
          "type": "address",
          "internalType": "address"
        },
        {
          "name": "",
          "type": "string",
          "internalType": "string"
        }
      ],
      "outputs": [
        {
          "name": "",
          "type": "uint256",
          "internalType": "uint256"
        }
      ],
      "stateMutability": "view"
    },
    {
      "type": "function",
      "name": "userProgress",
      "inputs": [
        {
          "name": "",
          "type": "address",
          "internalType": "address"
        },
        {
          "name": "",
          "type": "string",
          "internalType": "string"
        }
      ],
      "outputs": [
        {
          "name": "",
          "type": "uint256",
          "internalType": "uint256"
        }
      ],
      "stateMutability": "view"
    },
    {
      "type": "function",
      "name": "userTotalCombatPower",
      "inputs": [
        {
          "name": "",
          "type": "address",
          "internalType": "address"
        }
      ],
      "outputs": [
        {
          "name": "",
          "type": "uint256",
          "internalType": "uint256"
        }
      ],
      "stateMutability": "view"
    },
    {
      "type": "function",
      "name": "userTotalXP",
      "inputs": [
        {
          "name": "",
          "type": "address",
          "internalType": "address"
        }
      ],
      "outputs": [
        {
          "name": "",
          "type": "uint256",
          "internalType": "uint256"
        }
      ],
      "stateMutability": "view"
    },
    {
      "type": "event",
      "name": "AchievementCreated",
      "inputs": [
        {
          "name": "achievementId",
          "type": "string",
          "indexed": true,
          "internalType": "string"
        },
        {
          "name": "name",
          "type": "string",
          "indexed": false,
          "internalType": "string"
        },
        {
          "name": "category",
          "type": "uint8",
          "indexed": false,
          "internalType": "enum AchievementNFT.AchievementCategory"
        },
        {
          "name": "rarity",
          "type": "uint8",
          "indexed": false,
          "internalType": "enum AchievementNFT.AchievementRarity"
        }
      ],
      "anonymous": false
    },
    {
      "type": "event",
      "name": "AchievementMinted",
      "inputs": [
        {
          "name": "user",
          "type": "address",
          "indexed": true,
          "internalType": "address"
        },
        {
          "name": "achievementId",
          "type": "string",
          "indexed": true,
          "internalType": "string"
        },
        {
          "name": "tokenId",
          "type": "uint256",
          "indexed": false,
          "internalType": "uint256"
        },
        {
          "name": "xpReward",
          "type": "uint256",
          "indexed": false,
          "internalType": "uint256"
        },
        {
          "name": "combatPowerReward",
          "type": "uint256",
          "indexed": false,
          "internalType": "uint256"
        },
        {
          "name": "timestamp",
          "type": "uint256",
          "indexed": false,
          "internalType": "uint256"
        }
      ],
      "anonymous": false
    },
    {
      "type": "event",
      "name": "AchievementProgressUpdated",
      "inputs": [
        {
          "name": "user",
          "type": "address",
          "indexed": true,
          "internalType": "address"
        },
        {
          "name": "achievementId",
          "type": "string",
          "indexed": true,
          "internalType": "string"
        },
        {
          "name": "progress",
          "type": "uint256",
          "indexed": false,
          "internalType": "uint256"
        },
        {
          "name": "requirement",
          "type": "uint256",
          "indexed": false,
          "internalType": "uint256"
        }
      ],
      "anonymous": false
    },
    {
      "type": "event",
      "name": "Approval",
      "inputs": [
        {
          "name": "owner",
          "type": "address",
          "indexed": true,
          "internalType": "address"
        },
        {
          "name": "approved",
          "type": "address",
          "indexed": true,
          "internalType": "address"
        },
        {
          "name": "tokenId",
          "type": "uint256",
          "indexed": true,
          "internalType": "uint256"
        }
      ],
      "anonymous": false
    },
    {
      "type": "event",
      "name": "ApprovalForAll",
      "inputs": [
        {
          "name": "owner",
          "type": "address",
          "indexed": true,
          "internalType": "address"
        },
        {
          "name": "operator",
          "type": "address",
          "indexed": true,
          "internalType": "address"
        },
        {
          "name": "approved",
          "type": "bool",
          "indexed": false,
          "internalType": "bool"
        }
      ],
      "anonymous": false
    },
    {
      "type": "event",
      "name": "BatchMetadataUpdate",
      "inputs": [
        {
          "name": "_fromTokenId",
          "type": "uint256",
          "indexed": false,
          "internalType": "uint256"
        },
        {
          "name": "_toTokenId",
          "type": "uint256",
          "indexed": false,
          "internalType": "uint256"
        }
      ],
      "anonymous": false
    },
    {
      "type": "event",
      "name": "MetadataUpdate",
      "inputs": [
        {
          "name": "_tokenId",
          "type": "uint256",
          "indexed": false,
          "internalType": "uint256"
        }
      ],
      "anonymous": false
    },
    {
      "type": "event",
      "name": "OwnershipTransferred",
      "inputs": [
        {
          "name": "previousOwner",
          "type": "address",
          "indexed": true,
          "internalType": "address"
        },
        {
          "name": "newOwner",
          "type": "address",
          "indexed": true,
          "internalType": "address"
        }
      ],
      "anonymous": false
    },
    {
      "type": "event",
      "name": "Paused",
      "inputs": [
        {
          "name": "account",
          "type": "address",
          "indexed": false,
          "internalType": "address"
        }
      ],
      "anonymous": false
    },
    {
      "type": "event",
      "name": "RewardsGranted",
      "inputs": [
        {
          "name": "user",
          "type": "address",
          "indexed": true,
          "internalType": "address"
        },
        {
          "name": "xpAmount",
          "type": "uint256",
          "indexed": false,
          "internalType": "uint256"
        },
        {
          "name": "combatPowerAmount",
          "type": "uint256",
          "indexed": false,
          "internalType": "uint256"
        }
      ],
      "anonymous": false
    },
    {
      "type": "event",
      "name": "RoleAdminChanged",
      "inputs": [
        {
          "name": "role",
          "type": "bytes32",
          "indexed": true,
          "internalType": "bytes32"
        },
        {
          "name": "previousAdminRole",
          "type": "bytes32",
          "indexed": true,
          "internalType": "bytes32"
        },
        {
          "name": "newAdminRole",
          "type": "bytes32",
          "indexed": true,
          "internalType": "bytes32"
        }
      ],
      "anonymous": false
    },
    {
      "type": "event",
      "name": "RoleGranted",
      "inputs": [
        {
          "name": "role",
          "type": "bytes32",
          "indexed": true,
          "internalType": "bytes32"
        },
        {
          "name": "account",
          "type": "address",
          "indexed": true,
          "internalType": "address"
        },
        {
          "name": "sender",
          "type": "address",
          "indexed": true,
          "internalType": "address"
        }
      ],
      "anonymous": false
    },
    {
      "type": "event",
      "name": "RoleRevoked",
      "inputs": [
        {
          "name": "role",
          "type": "bytes32",
          "indexed": true,
          "internalType": "bytes32"
        },
        {
          "name": "account",
          "type": "address",
          "indexed": true,
          "internalType": "address"
        },
        {
          "name": "sender",
          "type": "address",
          "indexed": true,
          "internalType": "address"
        }
      ],
      "anonymous": false
    },
    {
      "type": "event",
      "name": "Transfer",
      "inputs": [
        {
          "name": "from",
          "type": "address",
          "indexed": true,
          "internalType": "address"
        },
        {
          "name": "to",
          "type": "address",
          "indexed": true,
          "internalType": "address"
        },
        {
          "name": "tokenId",
          "type": "uint256",
          "indexed": true,
          "internalType": "uint256"
        }
      ],
      "anonymous": false
    },
    {
      "type": "event",
      "name": "Unpaused",
      "inputs": [
        {
          "name": "account",
          "type": "address",
          "indexed": false,
          "internalType": "address"
        }
      ],
      "anonymous": false
    },
    {
      "type": "error",
      "name": "AccessControlBadConfirmation",
      "inputs": []
    },
    {
      "type": "error",
      "name": "AccessControlUnauthorizedAccount",
      "inputs": [
        {
          "name": "account",
          "type": "address",
          "internalType": "address"
        },
        {
          "name": "neededRole",
          "type": "bytes32",
          "internalType": "bytes32"
        }
      ]
    },
    {
      "type": "error",
      "name": "ERC721EnumerableForbiddenBatchMint",
      "inputs": []
    },
    {
      "type": "error",
      "name": "ERC721IncorrectOwner",
      "inputs": [
        {
          "name": "sender",
          "type": "address",
          "internalType": "address"
        },
        {
          "name": "tokenId",
          "type": "uint256",
          "internalType": "uint256"
        },
        {
          "name": "owner",
          "type": "address",
          "internalType": "address"
        }
      ]
    },
    {
      "type": "error",
      "name": "ERC721InsufficientApproval",
      "inputs": [
        {
          "name": "operator",
          "type": "address",
          "internalType": "address"
        },
        {
          "name": "tokenId",
          "type": "uint256",
          "internalType": "uint256"
        }
      ]
    },
    {
      "type": "error",
      "name": "ERC721InvalidApprover",
      "inputs": [
        {
          "name": "approver",
          "type": "address",
          "internalType": "address"
        }
      ]
    },
    {
      "type": "error",
      "name": "ERC721InvalidOperator",
      "inputs": [
        {
          "name": "operator",
          "type": "address",
          "internalType": "address"
        }
      ]
    },
    {
      "type": "error",
      "name": "ERC721InvalidOwner",
      "inputs": [
        {
          "name": "owner",
          "type": "address",
          "internalType": "address"
        }
      ]
    },
    {
      "type": "error",
      "name": "ERC721InvalidReceiver",
      "inputs": [
        {
          "name": "receiver",
          "type": "address",
          "internalType": "address"
        }
      ]
    },
    {
      "type": "error",
      "name": "ERC721InvalidSender",
      "inputs": [
        {
          "name": "sender",
          "type": "address",
          "internalType": "address"
        }
      ]
    },
    {
      "type": "error",
      "name": "ERC721NonexistentToken",
      "inputs": [
        {
          "name": "tokenId",
          "type": "uint256",
          "internalType": "uint256"
        }
      ]
    },
    {
      "type": "error",
      "name": "ERC721OutOfBoundsIndex",
      "inputs": [
        {
          "name": "owner",
          "type": "address",
          "internalType": "address"
        },
        {
          "name": "index",
          "type": "uint256",
          "internalType": "uint256"
        }
      ]
    },
    {
      "type": "error",
      "name": "EnforcedPause",
      "inputs": []
    },
    {
      "type": "error",
      "name": "ExpectedPause",
      "inputs": []
    },
    {
      "type": "error",
      "name": "OwnableInvalidOwner",
      "inputs": [
        {
          "name": "owner",
          "type": "address",
          "internalType": "address"
        }
      ]
    },
    {
      "type": "error",
      "name": "OwnableUnauthorizedAccount",
      "inputs": [
        {
          "name": "account",
          "type": "address",
          "internalType": "address"
        }
      ]
    }
  ],
  "bytecode": {
    "object": "0x608034610369576001600160401b039060409080820183811182821017610353578252600f81526020906e1058da1a595d995b595b9d08139195608a1b828201528251938385018581108282111761035357845260078552664143484945564560c81b838601528151818111610353576000938454916001948584811c94168015610349575b83851014610335578190601f948581116102e7575b50839085831160011461028857889261027d575b5050600019600383901b1c191690851b1785555b86519283116102695783548481811c9116801561025f575b8282101461024b57828111610208575b50809183116001146101a657508394958293949261019b575b5050600019600383901b1c191690821b1790555b331561018557600b8054336001600160a01b03198216811790925590916001600160a01b03909116907f8be0079c531659141344cd1fd0a4f28419497f9722a3daafe3b4186f6b6457e09080a361016d3361036e565b50610177336103ed565b5051613e12908161048f8239f35b6024915190631e4fbdf760e01b82526004820152fd5b015190503880610103565b90601f198316968486528286209286905b8982106101f15750508385969798106101d8575b505050811b019055610117565b015160001960f88460031b161c191690553880806101cb565b8087859682949686015181550195019301906101b7565b8486528186208380860160051c820192848710610242575b0160051c019085905b8281106102375750506100ea565b878155018590610229565b92508192610220565b634e487b7160e01b86526022600452602486fd5b90607f16906100da565b634e487b7160e01b85526041600452602485fd5b0151905038806100ae565b8880528489208894509190601f1984168a5b878282106102d157505084116102b8575b505050811b0185556100c2565b015160001960f88460031b161c191690553880806102ab565b8385015186558b9790950194938401930161029a565b9091508780528388208580850160051c82019286861061032c575b918991869594930160051c01915b82811061031e57505061009a565b8a8155859450899101610310565b92508192610302565b634e487b7160e01b87526022600452602487fd5b93607f1693610085565b634e487b7160e01b600052604160045260246000fd5b600080fd5b6001600160a01b031660008181527f13649b2456f1b42fef0f0040b3aaeabcd21a76a0f3f5defd4f583839455116e8602052604081205490919060ff166103e957818052600c6020526040822081835260205260408220600160ff1982541617905533916000805160206142a18339815191528180a4600190565b5090565b6001600160a01b031660008181527f28716b1ac0502292c83929abc9e37796cf2f7a586c58ec02e6ceeac1b694cbc360205260408120549091907f9f2df0fed2c77648de5860a4cc508cd0818c85b8b8a1ab4ceeef8d981c8956a69060ff1661048957808352600c6020526040832082845260205260408320600160ff198254161790556000805160206142a1833981519152339380a4600190565b50509056fe6080604052600436101561001257600080fd5b60003560e01c806301ffc9a7146103825780630645f7471461037d57806306fdde0314610378578063081812fc14610373578063095ea7b31461036e5780630fc7e0c31461036957806312aeff08146103645780631617f2931461035f57806318160ddd1461035a57806318416d0e146103555780631c4de562146102ce57806322c0be171461035057806323b872dd1461034b578063248a9ca31461034657806328b6212d146103415780632f2ff15d1461033c5780632f745c59146103375780633512a2c21461033257806336568abe1461032d5780633dd1eb61146103285780633f4ba83a1461032357806342842e0e1461031e57806348d3904a146103195780634aab3812146103145780634f6ccce71461030f5780635c975abb1461030a5780635cd17891146103055780636352211e1461030057806369e2f0fb146102fb57806370a08231146102f6578063715018a6146102f15780638456cb59146102ec5780638da5cb5b146102e75780638e72863e146102e25780638e808bf1146102dd57806391d14854146102d857806395d89b41146102d357806395f3679e146102ce578063a217fddf146102c9578063a22cb465146102c4578063a31ea184146102bf578063ad5e93f4146102ba578063b88d4fde146102b5578063b9a626ed146102b0578063c4c0fb98146102ab578063c87b56dd146102a6578063d5391393146102a1578063d547741f1461029c578063e953710714610297578063e985e9c514610292578063f09153c41461028d578063f1264b6714610288578063f250086f14610283578063f2fde38b1461027e5763f7f410451461027957600080fd5b612334565b6122a2565b612265565b6121ae565b61205c565b612000565b611f10565b611ea1565b611e78565b611e1f565b611de2565b611dbf565b611d52565b611d12565b611b16565b611a55565b611a39565b610e2a565b611992565b61193c565b6117a1565b61168f565b611655565b6115f3565b611595565b61156e565b6114ff565b6114cf565b61146d565b611447565b6113d7565b6113a6565b611304565b6112d0565b61125e565b6111ef565b6111a4565b611120565b611098565b611056565b61103e565b610fe5565b610fce565b610ef8565b610d1f565b610cbc565b610bc3565b610900565b6108a0565b610676565b610638565b610555565b61044d565b61039e565b6001600160e01b031981160361039957565b600080fd5b346103995760203660031901126103995760206004356103bd81610387565b63ffffffff60e01b166380ac58cd60e01b811490811561042b575b811561041a575b8115610409575b81156103f8575b506040519015158152f35b6301ffc9a760e01b149050386103ed565b637965db0b60e01b811491506103e6565b63780e9d6360e01b811491506103df565b635b5e139f60e01b811491506103d8565b6001600160a01b0381160361039957565b346103995760203660031901126103995760043561046a8161043c565b60009060018060a01b03168152601360205260408120546011602052604082205491601260205260408120549060185491826104cd575b6104c99250604051948594859094939260609260808301968352602083015260408201520152565b0390f35b905060648302838104606414841517156104f4576104c9926104ee916123ba565b906104a1565b6123a4565b60005b83811061050c5750506000910152565b81810151838201526020016104fc565b90602091610535815180928185528580860191016104f9565b601f01601f1916010190565b90602061055292818152019061051c565b90565b346103995760008060031936011261063557604051908080549061057882611c35565b8085529160209160019182811690811561060857506001146105b1575b6104c9866105a5818803826107cb565b60405191829182610541565b80809550527f290decd9548b62a8d60345a988386fc84ba6bc95484008f6362f93160ef3e5635b8385106105f5575050505081016020016105a5826104c938610595565b80548686018401529382019381016105d8565b90508695506104c9969350602092506105a594915060ff191682840152151560051b820101929338610595565b80fd5b346103995760203660031901126103995760043561065581613427565b506000526004602052602060018060a01b0360406000205416604051908152f35b34610399576040366003190112610399576004356106938161043c565b602435906106a082613427565b33151580610766575b80610738575b6107205761071e926106ff9181906001600160a01b0385811691167f8c5be1e5ebec7d5bd14f71427d1e84f3dd0314c0f7b2291e5b200ac8c7c3b925600080a46000526004602052604060002090565b80546001600160a01b0319166001600160a01b03909216919091179055565b005b60405163a9fbf51f60e01b8152336004820152602490fd5b506001600160a01b038116600090815260056020908152604080832033845290915290205460ff16156106af565b506001600160a01b0381163314156106a9565b634e487b7160e01b600052604160045260246000fd5b61014081019081106001600160401b038211176107ab57604052565b610779565b602081019081106001600160401b038211176107ab57604052565b90601f801991011681019081106001600160401b038211176107ab57604052565b604051906107f98261078f565b565b6001600160401b0381116107ab57601f01601f191660200190565b929192610822826107fb565b9161083060405193846107cb565b829481845281830111610399578281602093846000960137010152565b9080601f830112156103995781602061055293359101610816565b906040600319830112610399576004356108818161043c565b91602435906001600160401b038211610399576105529160040161084d565b346103995760206108b96108b336610868565b906123da565b604051908152f35b906060600319830112610399576004356108da8161043c565b91602435906001600160401b038211610399576108f99160040161084d565b9060443590565b346103995761090e366108c1565b610916613462565b61092e60ff600661092685610db8565b0154166126dc565b61094161093b83856133b5565b15612774565b6001600160a01b038316600081815260146020526040902082906109659085610e04565b5561096f83610dde565b549061097a846129fc565b60408051858152602081018590529192917ff6fc9421a0cb51c25c1bcef3dfbee30aede44d332db28ff6eaf98b34b64deed09190a380151591826109ca575b50506109c157005b61071e916123da565b1015905038806109b9565b6001600160401b0381116107ab5760051b60200190565b81601f8201121561039957803591602091610a06846109d5565b93610a1460405195866107cb565b808552838086019160051b8301019280841161039957848301915b848310610a3f5750505050505090565b82356001600160401b038111610399578691610a608484809489010161084d565b815201920191610a2f565b6005111561039957565b606435906107f982610a6b565b608435906107f982610a6b565b9080601f83011215610399576020908235610aa9816109d5565b93610ab760405195866107cb565b81855260208086019260051b82010192831161039957602001905b828210610ae0575050505090565b8380918335610aee81610a6b565b815201910190610ad2565b9080601f83011215610399576020908235610b13816109d5565b93610b2160405195866107cb565b81855260208086019260051b82010192831161039957602001905b828210610b4a575050505090565b8380918335610b5881610a6b565b815201910190610b3c565b9080601f83011215610399576020908235610b7d816109d5565b93610b8b60405195866107cb565b81855260208086019260051b82010192831161039957602001905b828210610bb4575050505090565b81358152908301908301610ba6565b34610399576101203660031901126103995760046001600160401b03813581811161039957610bf590369084016109ec565b9060243581811161039957610c0d90369085016109ec565b60443582811161039957610c2490369086016109ec565b60643583811161039957610c3b9036908701610a8f565b60843584811161039957610c529036908801610af9565b9060a43585811161039957610c6a9036908901610b63565b9260c43586811161039957610c829036908a01610b63565b9460e43587811161039957610c9a9036908b01610b63565b96610104359081116103995761071e99610cb6913691016109ec565b97612a1c565b34610399576000366003190112610399576020600854604051908152f35b90815180825260208080930193019160005b828110610cfa575050505090565b835185529381019392810192600101610cec565b906020610552928181520190610cda565b3461039957604036600319011261039957600435610d3c8161043c565b6024356001600160401b03811161039957610d5b9036906004016109ec565b610d63613462565b610d6b613545565b610d758151612bd2565b9160005b8251811015610daa5780610d99610d9260019386612bb4565b51846123da565b610da38287612bb4565b5201610d79565b604051806104c98682610d0e565b6020610dd19181604051938285809451938492016104f9565b8101600e81520301902090565b6020610df79181604051938285809451938492016104f9565b8101601581520301902090565b602090610e1e9282604051948386809551938492016104f9565b82019081520301902090565b34610399576020610e5b610e3d36610868565b6001600160a01b039091166000908152600f84526040902090610e04565b54604051908152f35b90808251908181526020809101926020808460051b8301019501936000915b848310610e935750505050505090565b9091929394958480610eb1600193601f198682030187528a5161051c565b9801930193019194939290610e83565b90815180825260208080930193019160005b828110610ee1575050505090565b835160ff1685529381019392810192600101610ed3565b3461039957604036600319011261039957610f67610f59610f1d602435600435612c95565b9692610f4b610f3b604098939798519860c08a5260c08a0190610e64565b60209689820360208b0152610e64565b908782036040890152610ec1565b908582036060870152610ec1565b83810360808501526020808451928381520193019160005b828110610f93578580868960a08301520390f35b8351151585529381019392810192600101610f7f565b606090600319011261039957600435610fc18161043c565b906024356108f98161043c565b346103995761071e610fdf36610fa9565b91612e00565b3461039957602036600319011261039957600435600052600c6020526020600160406000200154604051908152f35b602060031982011261039957600435906001600160401b038211610399576105529160040161084d565b34610399576020610e5b61105136611014565b610dde565b346103995760403660031901126103995761071e6024356004356110798261043c565b80600052600c602052611093600160406000200154613524565b613849565b34610399576040366003190112610399576004356110b58161043c565b602435906110c281613367565b8210156110f55760018060a01b031660005260066020526040600020906000526020526020604060002054604051908152f35b60405163295f44f760e21b81526001600160a01b039190911660048201526024810191909152604490fd5b346103995761112e366108c1565b611136613462565b61114660ff600661092685610db8565b61115361093b83856133b5565b61117d60018060a01b03841691826000526014602052611177604060002085610e04565b546129ef565b908161096561119e8660018060a01b03166000526014602052604060002090565b85610e04565b34610399576040366003190112610399576024356111c18161043c565b336001600160a01b038216036111dd5761071e90600435613926565b60405163334bd91960e11b8152600490fd5b346103995760203660031901126103995761071e60043561120f8161043c565b6112176134cc565b600080516020613dbd833981519152600052600c6020527f28716b1ac0502292c83929abc9e37796cf2f7a586c58ec02e6ceeac1b694cbc45461125990613524565b613790565b3461039957600036600319011261039957611277613952565b600b5460ff8160a01c16156112be5760ff60a01b1916600b556040513381527f5db9ee0a495bf2e6ff9c91a7834c1ba4fdd244a5e8aa4e537bd38aeae4b073aa90602090a1005b604051638dfc202b60e01b8152600490fd5b346103995761071e6112e136610fa9565b90604051926112ef846107b0565b600084526112fe838383612e00565b33613b19565b3461039957610120366003190112610399576001600160401b036004358181116103995761133690369060040161084d565b6024358281116103995761134e90369060040161084d565b6044358381116103995761136690369060040161084d565b9061136f610a75565b92611378610a82565b610104359586116103995761139461071e96369060040161084d565b9460e4359460c4359460a43594612f7a565b34610399576020610e5b6113b936610868565b6001600160a01b039091166000908152601484526040902090610e04565b34610399576020366003190112610399576004356008548110156114285760209060086000527ff3f7a9fe364faab93b216da50a3214154f22a0a2b415b23a84c8169e8b636ee30154604051908152f35b6044906040519063295f44f760e21b8252600060048301526024820152fd5b3461039957600036600319011261039957602060ff600b5460a01c166040519015158152f35b346103995761147b36611014565b6114836134cc565b61149360ff600661092684610db8565b6114cb60066114b460ff826114a786610db8565b015460081c161593610db8565b019182549061ff009060081b169061ff0019161790565b9055005b346103995760203660031901126103995760206114ed600435613427565b6040516001600160a01b039091168152f35b346103995760203660031901126103995761071e60043561151f8161043c565b6115276134cc565b600080516020613dbd833981519152600052600c6020527f28716b1ac0502292c83929abc9e37796cf2f7a586c58ec02e6ceeac1b694cbc45461156990613524565b613875565b346103995760203660031901126103995760206108b96004356115908161043c565b613367565b3461039957600080600319360112610635576115af613952565b600b80546001600160a01b0319811690915581906001600160a01b03167f8be0079c531659141344cd1fd0a4f28419497f9722a3daafe3b4186f6b6457e08280a380f35b346103995760003660031901126103995761160c613952565b611614613545565b600b805460ff60a01b1916600160a01b1790556040513381527f62e78cea01bee320cd4e420270b5ea74000d11b0c9f74754ebdbfc544b05a25890602090a1005b3461039957600036600319011261039957600b546040516001600160a01b039091168152602090f35b906020610552928181520190610e64565b3461039957602080600319360112610399576004356116ad81610a6b565b6116b681611ee3565b6000526016602052604060002080546116ce816109d5565b916116dc60405193846107cb565b81835260208301906000526020600020936000915b83831061170657604051806104c9878261167e565b600182819261171489611c6f565b8152019601920191946116f1565b929061173a9095949295608085526080850190610cda565b60209084810360208601526020808851928381520197019160005b82811061178457505050508461177691846105529697036040860152610e64565b916060818403910152610cda565b83516001600160a01b031689529781019792810192600101611755565b346103995760008060031936011261063557600d54600a811191821561193557600a925b1561192e576117d382612c79565b6117dc84612bd2565b936117e681612bd2565b946117f082612c17565b6117f983612bd2565b9285945b8781111580611925575b156118f7576040516331a9108f60e11b8152600481018290528960208083602481305afa9283918b946118c8575b505061184c575b505061184790612816565b6117fd565b9661187d6118c09261186e83869b61184797611868838d612bb4565b52612bb4565b6001600160a01b039091169052565b611899611894896000526010602052604060002090565b611c6f565b6118a38287612bb4565b526118ae8186612bb4565b50426118ba8289612bb4565b52612816565b95908961183c565b6118e8929450803d106118f0575b6118e081836107cb565b8101906133a0565b913880611835565b503d6118d6565b50926104c9918589958110611914575b5060405194859485611722565b808552808652808252825285611907565b50818610611807565b60016117d3565b81926117c5565b3461039957604036600319011261039957602060ff6119866024356119608161043c565b600435600052600c845260406000209060018060a01b0316600052602052604060002090565b54166040519015158152f35b346103995760008060031936011261063557604051908060018054906119b782611c35565b808652926020926001811690811561060857506001146119e1576104c9866105a5818803826107cb565b9350600184527fb10e2d527612073b26eecdfd717e6a320cf44b4afac2b0732d9fcbe2b7fa0cf65b838510611a26575050505081016020016105a5826104c938610595565b8054868601840152938201938101611a09565b3461039957600036600319011261039957602060405160008152f35b3461039957604036600319011261039957600435611a728161043c565b60243580151590818103610399576001600160a01b038316928315611afd5790611abe611acf9233600052600560205260406000209060018060a01b0316600052602052604060002090565b9060ff801983541691151516179055565b6040519081527f17307eab39ab6107e8899845ad3d59bd9653f200f220920489ca2b5937696c3160203392a3005b604051630b61174360e31b815260048101859052602490fd5b346103995760008060031936011261063557600d54611b3481612bd2565b829060015b83811115611b67575050506104c9601854604051938493846040919493926060820195825260208201520152565b6040516331a9108f60e11b81526004810182905260208082602481305afa9182918693611c16575b5050611ba5575b50611ba090612816565b611b39565b6001845b878110611bd9575b5015611b965785611bcd611bd29261186e611ba0959987612bb4565b612816565b9490611b96565b611bf3611be68287612bb4565b516001600160a01b031690565b6001600160a01b03848116911614611c0d57600101611ba9565b50508338611bb1565b611c2d929350803d106118f0576118e081836107cb565b903880611b8f565b90600182811c92168015611c65575b6020831014611c4f57565b634e487b7160e01b600052602260045260246000fd5b91607f1691611c44565b90604051918260008254611c8281611c35565b90818452602094600191600181169081600014611cf05750600114611cb1575b5050506107f9925003836107cb565b600090815285812095935091905b818310611cd85750506107f99350820101388080611ca2565b85548884018501529485019487945091830191611cbf565b925050506107f994925060ff191682840152151560051b820101388080611ca2565b346103995760203660031901126103995760043560005260106020526104c9611d3e6040600020611c6f565b60405191829160208352602083019061051c565b3461039957608036600319011261039957600435611d6f8161043c565b60243590611d7c8261043c565b604435606435926001600160401b038411610399573660238501121561039957611db361071e943690602481600401359101610816565b926112fe838383612e00565b34610399576020611dd8611dd236610868565b906133b5565b6040519015158152f35b3461039957602036600319011261039957600435611dff8161043c565b60018060a01b031660005260126020526020604060002054604051908152f35b3461039957602036600319011261039957600435611e3c81613427565b50600052600a6020526104c9611e556040600020611c6f565b6000604051611e63816107b0565b5260405191829160208352602083019061051c565b34610399576000366003190112610399576020604051600080516020613dbd8339815191528152f35b346103995760403660031901126103995761071e602435600435611ec48261043c565b80600052600c602052611ede600160406000200154613524565b613926565b60051115611eed57565b634e487b7160e01b600052602160045260246000fd5b90611f0d82611ee3565b52565b3461039957611f99611f29611f2436611014565b610db8565b6104c9611f3582611c6f565b91611f4260018201611c6f565b60ff611f5060028401611c6f565b92600381015493828086169560081c16600483015490611fb5600585015493611fa7611f83600760068901549801611c6f565b986040519d8e9d8e61014090818152019061051c565b8d810360208f01529061051c565b908b820360408d015261051c565b96611fbf81611ee3565b60608a0152611fcd81611ee3565b608089015260a088015260c0870152818116151560e087015260081c16151561010085015283820361012085015261051c565b3461039957604036600319011261039957602060ff6119866004356120248161043c565b602435906120318261043c565b60018060a01b03166000526005845260406000209060018060a01b0316600052602052604060002090565b34610399576020806003193601126103995760043561207a8161043c565b6001600160a01b0316600090815260136020908152604080832090518154808252918452828420928101949093905b8282106120cc576104c9856120c0818903826107cb565b60405191829182610d0e565b8354865294850194600193840193909101906120a9565b9061055291602081528151906121076101409283602084015261016083019061051c565b9161213b612127602086015194601f19958686830301604087015261051c565b60408601518585830301606086015261051c565b9361214e60608201516080850190611f03565b612160608082015160a0850190611f03565b60a081015160c084015260c081015160e084015260e081015161218a610100918286019015159052565b8101519061219f610120928386019015159052565b0151928285030191015261051c565b34610399576040366003190112610399576104c9612259612254611f246118946004356121da8161043c565b6122446024359160606101206040516121f28161078f565b828152826020820152826040820152600080848301528060808301528060a08301528060c08301528060e0830152610100820152015261223183613427565b6001600160a01b039081169116146133db565b6000526010602052604060002090565b612635565b604051918291826120e3565b34610399576020366003190112610399576004356122828161043c565b60018060a01b031660005260116020526020604060002054604051908152f35b34610399576020366003190112610399576004356122bf8161043c565b6122c7613952565b6001600160a01b0390811690811561231b57600b54826bffffffffffffffffffffffff60a01b821617600b55167f8be0079c531659141344cd1fd0a4f28419497f9722a3daafe3b4186f6b6457e0600080a3005b604051631e4fbdf760e01b815260006004820152602490fd5b34610399576040366003190112610399576001600160401b036004358181116103995761236590369060040161084d565b60243591821161039957600761239e61238561071e94369060040161084d565b9261238e6134cc565b611f2460ff600661092684610db8565b0161287b565b634e487b7160e01b600052601160045260246000fd5b81156123c4570490565b634e487b7160e01b600052601260045260246000fd5b6123e2613462565b6123ea613545565b6123f661225483610db8565b9161240c61240760e0850151151590565b6126dc565b61242261241d610100850151151590565b612728565b61243b61243661243283856133b5565b1590565b612774565b61244481610dde565b54806125f7575b5061245f61245a600d54612816565b600d55565b7f028f0af27158c91a08bdf152ca0ce956628ff213a65e8270c9ae7731f9d6b2a6600d549361248e8585613566565b61249d610120820151866136cb565b6001600160a01b0384166000908152600f6020526040902085906124c09061119e565b556124de836124d9876000526010602052604060002090565b61287b565b6001600160a01b03841660009081526013602052604090206125019086906129ba565b61252660c060a08301805180158015906125eb575b612554575b5051920151936129fc565b60408051878152602081019390935282019390935242606082015291926001600160a01b031691608090a390565b6001600160a01b0388166000908152601160205260409020612579905b9182546129ef565b905583820180516001600160a01b03891660009081526012602052604090206125a190612571565b9055815190516040805192835260208301919091526001600160a01b038916917f188fa06a3f38ab0a817661f3f459d415180c8172bec1d9b1d9542dcf047299ec9190a23861251b565b50828501511515612516565b6001600160a01b0383166000908152601460205260409020612626919061261e9084610e04565b5410156127ca565b3861244b565b611f0d82611ee3565b906126d460076126436107ec565b9361264d81611c6f565b855261265b60018201611c6f565b602086015261266c60028201611c6f565b604086015261269760ff600383015461268a82821660608a0161262c565b60081c166080870161262c565b600481015460a0860152600581015460c0860152600681015460ff818116151560e08801526126ce9160081c161515610100870152565b01611c6f565b610120830152565b156126e357565b60405162461bcd60e51b815260206004820152601a60248201527f416368696576656d656e7420646f6573206e6f742065786973740000000000006044820152606490fd5b1561272f57565b60405162461bcd60e51b815260206004820152601960248201527f416368696576656d656e74206973206e6f7420616374697665000000000000006044820152606490fd5b1561277b57565b60405162461bcd60e51b815260206004820152602160248201527f5573657220616c726561647920686173207468697320616368696576656d656e6044820152601d60fa1b6064820152608490fd5b156127d157565b60405162461bcd60e51b815260206004820152601d60248201527f5573657220686173206e6f74206d657420726571756972656d656e74730000006044820152606490fd5b60001981146104f45760010190565b90601f811161283357505050565b6000916000526020600020906020601f850160051c83019410612871575b601f0160051c01915b82811061286657505050565b81815560010161285a565b9092508290612851565b91909182516001600160401b0381116107ab576128a28161289c8454611c35565b84612825565b602080601f83116001146128e5575081906128d69394956000926128da575b50508160011b916000199060031b1c19161790565b9055565b0151905038806128c1565b90601f198316956128fb85600052602060002090565b926000905b8882106129385750508360019596971061291f575b505050811b019055565b015160001960f88460031b161c19169055388080612915565b80600185968294968601518155019501930190612900565b634e487b7160e01b600052603260045260246000fd5b60175481101561299d5760176000527fc624b66cc0138b8fabc209247f72d758e1cf3343756d543badbf24212bed8c150190600090565b612950565b805482101561299d5760005260206000200190600090565b8054600160401b8110156107ab576129d7916001820181556129a2565b819291549060031b91821b91600019901b1916179055565b919082018092116104f457565b612a14906020604051928284809451938492016104f9565b810103902090565b96949392919098979598612a2e6134cc565b612a688851825181149081612b64575b81612b59575b81612b4e575b81612b43575b81612b38575b81612b2d575b81612b22575b50612b6f565b87519760005b898110612a8357505050505050505050509050565b808080808f81808f8f908f918f958f938f978f958f99889a97612aa78a809a612bb4565b519f612ab291612bb4565b519d612abd91612bb4565b5196612ac891612bb4565b612ad190612bc8565b96612adb91612bb4565b612ae490612bc8565b96612aee91612bb4565b5196612af991612bb4565b5196612b0491612bb4565b5196612b0f91612bb4565b5196612b1a9861370e565b600101612a6e565b905088511438612a62565b885181149150612a5c565b8c5181149150612a56565b875181149150612a50565b865181149150612a4a565b855181149150612a44565b845181149150612a3e565b15612b7657565b60405162461bcd60e51b8152602060048201526016602482015275082e4e4c2f240d8cadccee8d0e640dad2e6dac2e8c6d60531b6044820152606490fd5b805182101561299d5760209160051b010190565b5161055281611ee3565b90612bdc826109d5565b612be960405191826107cb565b8281528092612bfa601f19916109d5565b0190602036910137565b604051612c10816107b0565b6000815290565b90612c21826109d5565b612c2e60405191826107cb565b8281528092612c3f601f19916109d5565b019060005b828110612c5057505050565b806060602080938501015201612c44565b604051612c6d816107b0565b60008152906000368137565b6008198101919082116104f457565b919082039182116104f457565b916017549182841015612dc857612cac90846129ef565b83838211612dc0575b612cbe91612c88565b612cc781612c17565b93612cd182612c17565b93612cdb83612bd2565b93612ce584612bd2565b93612cef81612bd2565b938860005b89848210612d03575050505050565b612da7610100600194612d5b85612db895612d4b82612d33612d2d612d28838f6129ef565b612966565b50611c6f565b95612d4061225488610db8565b966118688383612bb4565b5060208401516118688383612bb4565b50612d898d612d8187606085015192612d7384611ee3565b612d7c84611ee3565b612bb4565b9060ff169052565b612da08c612d8187608085015192612d7384611ee3565b0151151590565b612db1838a612bb4565b9015159052565b018990612cf4565b839150612cb5565b509150612dd3612c04565b91612ddc612c04565b92612de5612c61565b92612dee612c61565b92612df7612c61565b92959493929190565b6001600160a01b03828116929091908315612f6157612e1d613545565b60008581526002602052604090205485906001600160a01b03169433612f51575b8486169586158015612f23575b6001600160a01b038516600090815260036020526040902060018154019055612e82856106ff866000526002602052604060002090565b8383897fddf252ad1be2c89b69c2b068fc378daa952ba7f163c4a11628f55a4df523b3ef600080a415612f035750612eb982613c44565b8503612ef3575b50501691828203612ed057505050565b60649350604051926364283d7b60e01b8452600484015260248301526044820152fd5b612efc91613c9c565b3884612ec0565b82828803612f13575b5050612eb9565b612f1c91613bd4565b3882612f0c565b612f2c84613bb0565b6001600160a01b03821660009081526003602052604090208054600019019055612e4b565b612f5c823388613ce3565b612e3e565b604051633250574960e11b815260006004820152602490fd5b9161304c90613093959961308695987f22a253d5e2e88ba35bbe57f168cc28e60a8f13b25396d21aeceeaff1949fa8cc9a9498612fb56134cc565b612fd6612fd16124326006612fc98b610db8565b015460ff1690565b6130a8565b612fe2875115156130f4565b612fee8a511515613140565b612ff66107ec565b938785528a602086015260408501526130128b6060860161262c565b61301f8d6080860161262c565b60a084015260c0830152600160e0830152600161010083015261012082015261304784610db8565b6131be565b80613098575b506130658161306087613288565b6132f0565b61306e816132a1565b61308161307c601854612816565b601855565b6129fc565b9460405193849384613333565b0390a2565b6130a182610dde565b5538613052565b156130af57565b60405162461bcd60e51b815260206004820152601a60248201527f416368696576656d656e7420616c7265616479206578697374730000000000006044820152606490fd5b156130fb57565b60405162461bcd60e51b815260206004820152601e60248201527f416368696576656d656e742049442063616e6e6f7420626520656d70747900006044820152606490fd5b1561314757565b60405162461bcd60e51b81526020600482015260146024820152734e616d652063616e6e6f7420626520656d70747960601b6044820152606490fd5b9061318d81611ee3565b60ff80198354169116179055565b906128d6906131a981611ee3565b825461ff00191660089190911b61ff00161790565b60076101206107f9936131d281518561287b565b6131e360208201516001860161287b565b6131f460408201516002860161287b565b61322660038501613212606084015161320c81611ee3565b82613183565b60808301519061322182611ee3565b61319b565b60a0810151600485015560c0810151600585015561327f6006850161326361325160e0850151151590565b829060ff801983541691151516179055565b610100830151815461ff00191690151560081b61ff0016179055565b0151910161287b565b61329181611ee3565b6000526016602052604060002090565b60175490600160401b8210156107ab57600182018060175582101561299d576107f99160176000527fc624b66cc0138b8fabc209247f72d758e1cf3343756d543badbf24212bed8c150161287b565b8054600160401b8110156107ab5761330d916001820181556129a2565b91909161331d576107f99161287b565b634e487b7160e01b600052600060045260246000fd5b61334b6040929594939560608352606083019061051c565b9461335581611ee3565b602082015261336383611ee3565b0152565b6001600160a01b0316801561338757600052600360205260406000205490565b6040516322718ad960e21b815260006004820152602490fd5b9081602091031261039957516105528161043c565b6001600160a01b03166000908152600f602052604090206133d591610e04565b54151590565b156133e257565b60405162461bcd60e51b815260206004820152601c60248201527f5573657220646f6573206e6f74206f776e207468697320746f6b656e000000006044820152606490fd5b6000818152600260205260409020546001600160a01b031690811561344a575090565b60249060405190637e27328960e01b82526004820152fd5b3360009081527f28716b1ac0502292c83929abc9e37796cf2f7a586c58ec02e6ceeac1b694cbc360205260409020600080516020613dbd8339815191529060ff905b5416156134ae5750565b6044906040519063e2517d3f60e01b82523360048301526024820152fd5b3360009081527f13649b2456f1b42fef0f0040b3aaeabcd21a76a0f3f5defd4f583839455116e8602052604090205460ff161561350557565b60405163e2517d3f60e01b815233600482015260006024820152604490fd5b6000818152600c60209081526040808320338452909152902060ff906134a4565b60ff600b5460a01c1661355457565b60405163d93c066560e01b8152600490fd5b919060405190613575826107b0565b6000808352936001600160a01b0380821680156136b257613594613545565b838752600260205260408720546001600160a01b031691821680159283159384613684575b6001600160a01b0386166000908152600360205260409020600181540190556135f0866106ff896000526002602052604060002090565b8684847fddf252ad1be2c89b69c2b068fc378daa952ba7f163c4a11628f55a4df523b3ef8d80a415613664575061362685613c44565b03613655575b61363c576107f993945033613a1f565b6040516339e3563760e11b815260048101869052602490fd5b61365f8383613c9c565b61362c565b85838303613674575b5050613626565b61367d91613bd4565b388561366d565b61368d87613bb0565b6001600160a01b038216600090815260036020526040902080546000190190556135b9565b604051633250574960e11b815260048101889052602490fd5b6020906137057ff8e1a15aba9398e019f0b49df1a4fde98ee17ae345cb5f6b5e2c27f5033e8ce79382600052600a8452604060002061287b565b604051908152a1565b919690949793979592956137296124326006612fc986610db8565b80613786575b61373f575b505050505050505050565b7f22a253d5e2e88ba35bbe57f168cc28e60a8f13b25396d21aeceeaff1949fa8cc97613775956130869561304c93612ff66107ec565b0390a2388080808080808080613734565b508251151561372f565b6001600160a01b03811660009081527f28716b1ac0502292c83929abc9e37796cf2f7a586c58ec02e6ceeac1b694cbc360205260408120600080516020613dbd8339815191529060ff905b541661384357808252600c602090815260408084206001600160a01b038616600090815292529020805460ff1916600117905533926001600160a01b0316917f2f8788117e7eff1d82e926ec794901d17c78024a50270940304540a733656f0d9080a4600190565b50905090565b600090808252600c60205260ff6137db84604085209060018060a01b0316600052602052604060002090565b6001600160a01b03811660009081527f28716b1ac0502292c83929abc9e37796cf2f7a586c58ec02e6ceeac1b694cbc360205260408120600080516020613dbd8339815191529060ff905b54161561384357808252600c602090815260408084206001600160a01b038616600090815292529020805460ff1916905533926001600160a01b0316917ff6391f5c32d9c69d2a47ea670b442974b53935d1edc7fd64eb21e047a839171b9080a4600190565b600090808252600c60205260ff6138c084604085209060018060a01b0316600052602052604060002090565b600b546001600160a01b0316330361396657565b60405163118cdaa760e01b8152336004820152602490fd5b90816020910312610399575161055281610387565b610552939260809260018060a01b03168252600060208301526040820152816060820152019061051c565b6001600160a01b0391821681529116602082015260408101919091526080606082018190526105529291019061051c565b3d15613a1a573d90613a00826107fb565b91613a0e60405193846107cb565b82523d6000602084013e565b606090565b91929092833b613a30575b50505050565b613a54916020916040519384928392630a85bd0160e11b9788855260048501613993565b038160006001600160a01b0388165af160009181613ae8575b50613aac5782613a7b6139ef565b8051919082613aa557604051633250574960e11b81526001600160a01b0383166004820152602490fd5b6020915001fd5b6001600160e01b03191603613ac5575038808080613a2a565b604051633250574960e11b81526001600160a01b03919091166004820152602490fd5b613b0b91925060203d602011613b12575b613b0381836107cb565b81019061397e565b9038613a6d565b503d613af9565b92939193843b613b2b575b5050505050565b602091613b4e6040519485938493630a85bd0160e11b98898652600486016139be565b038160006001600160a01b0388165af160009181613b8f575b50613b755782613a7b6139ef565b6001600160e01b03191603613ac557503880808080613b24565b613ba991925060203d602011613b1257613b0381836107cb565b9038613b67565b613bc4906000526004602052604060002090565b80546001600160a01b0319169055565b90613bde82613367565b9160009282845260209060078252604093848620549360018060a01b031686526006835284862093828103613c22575b508552600782528484812055845252812055565b8287528484528587205481885280878920558752600784528587205538613c0e565b60085481600052600960205280604060002055600160401b8110156107ab57600181018060085581101561299d5760086000527ff3f7a9fe364faab93b216da50a3214154f22a0a2b415b23a84c8169e8b636ee30155565b90613ca682613367565b6000198101929083116104f4576001600160a01b031660009081526006602090815260408083208584528252808320849055928252600790522055565b6001600160a01b03908282168015159081613d4e575b5015613d055750505050565b16613d2357604051637e27328960e01b815260048101839052602490fd5b60405163177e802f60e01b81526001600160a01b039190911660048201526024810191909152604490fd5b82841680821492508215613d86575b508115613d6c575b5038613cf9565b905084600052600460205282604060002054161438613d65565b909150600052600560205260ff613db38560406000209060018060a01b0316600052602052604060002090565b54169038613d5d56fe9f2df0fed2c77648de5860a4cc508cd0818c85b8b8a1ab4ceeef8d981c8956a6a2646970667358221220b3291046d669436d46496d7042416698a682b9e232bdfe925b11410cc3d3633d64736f6c634300081900332f8788117e7eff1d82e926ec794901d17c78024a50270940304540a733656f0d",
    "linkReferences": {}
  },
  "methodIdentifiers": {
    "DEFAULT_ADMIN_ROLE()": "a217fddf",
    "MINTER_ROLE()": "d5391393",
    "achievementRequirements(string)": "28b6212d",
    "achievements(string)": "e9537107",
    "approve(address,uint256)": "095ea7b3",
    "balanceOf(address)": "70a08231",
    "batchCreateAchievements(string[],string[],string[],uint8[],uint8[],uint256[],uint256[],uint256[],string[])": "1617f293",
    "batchMintAchievements(address,string[])": "18416d0e",
    "createAchievement(string,string,string,uint8,uint8,uint256,uint256,uint256,string)": "48d3904a",
    "getAchievementStats()": "a31ea184",
    "getAchievementsByCategory(uint8)": "8e72863e",
    "getAllAchievements(uint256,uint256)": "22c0be17",
    "getApproved(uint256)": "081812fc",
    "getRecentMints()": "8e808bf1",
    "getRoleAdmin(bytes32)": "248a9ca3",
    "getUserAchievementDetails(address,uint256)": "f1264b67",
    "getUserAchievementStats(address)": "0645f747",
    "getUserAchievementToken(address,string)": "95f3679e",
    "getUserAchievements(address)": "f09153c4",
    "grantMinterRole(address)": "3dd1eb61",
    "grantRole(bytes32,address)": "2f2ff15d",
    "hasAchievement(address,string)": "b9a626ed",
    "hasRole(bytes32,address)": "91d14854",
    "incrementUserProgress(address,string,uint256)": "3512a2c2",
    "isApprovedForAll(address,address)": "e985e9c5",
    "mintAchievement(address,string)": "0fc7e0c3",
    "name()": "06fdde03",
    "owner()": "8da5cb5b",
    "ownerOf(uint256)": "6352211e",
    "pause()": "8456cb59",
    "paused()": "5c975abb",
    "renounceOwnership()": "715018a6",
    "renounceRole(bytes32,address)": "36568abe",
    "revokeMinterRole(address)": "69e2f0fb",
    "revokeRole(bytes32,address)": "d547741f",
    "safeTransferFrom(address,address,uint256)": "42842e0e",
    "safeTransferFrom(address,address,uint256,bytes)": "b88d4fde",
    "setApprovalForAll(address,bool)": "a22cb465",
    "supportsInterface(bytes4)": "01ffc9a7",
    "symbol()": "95d89b41",
    "toggleAchievementActive(string)": "5cd17891",
    "tokenAchievementId(uint256)": "ad5e93f4",
    "tokenByIndex(uint256)": "4f6ccce7",
    "tokenOfOwnerByIndex(address,uint256)": "2f745c59",
    "tokenURI(uint256)": "c87b56dd",
    "totalSupply()": "18160ddd",
    "transferFrom(address,address,uint256)": "23b872dd",
    "transferOwnership(address)": "f2fde38b",
    "unpause()": "3f4ba83a",
    "updateAchievementMetadata(string,string)": "f7f41045",
    "updateUserProgress(address,string,uint256)": "12aeff08",
    "userAchievements(address,string)": "1c4de562",
    "userProgress(address,string)": "4aab3812",
    "userTotalCombatPower(address)": "c4c0fb98",
    "userTotalXP(address)": "f250086f"
  },
  "id": 47
}