{
  "abi": [
    {
      "type": "constructor",
      "inputs": [
        {
          "name": "_feeRecipient",
          "type": "address",
          "internalType": "address"
        }
      ],
      "stateMutability": "nonpayable"
    },
    {
      "type": "receive",
      "stateMutability": "payable"
    },
    {
      "type": "function",
      "name": "ADMIN_ROLE",
      "inputs": [],
      "outputs": [
        {
          "name": "",
          "type": "bytes32",
          "internalType": "bytes32"
        }
      ],
      "stateMutability": "view"
    },
    {
      "type": "function",
      "name": "ARBITRATOR_ROLE",
      "inputs": [],
      "outputs": [
        {
          "name": "",
          "type": "bytes32",
          "internalType": "bytes32"
        }
      ],
      "stateMutability": "view"
    },
    {
      "type": "function",
      "name": "BASIS_POINTS",
      "inputs": [],
      "outputs": [
        {
          "name": "",
          "type": "uint256",
          "internalType": "uint256"
        }
      ],
      "stateMutability": "view"
    },
    {
      "type": "function",
      "name": "DEFAULT_ADMIN_ROLE",
      "inputs": [],
      "outputs": [
        {
          "name": "",
          "type": "bytes32",
          "internalType": "bytes32"
        }
      ],
      "stateMutability": "view"
    },
    {
      "type": "function",
      "name": "approveEscrow",
      "inputs": [
        {
          "name": "_escrowId",
          "type": "uint256",
          "internalType": "uint256"
        }
      ],
      "outputs": [],
      "stateMutability": "nonpayable"
    },
    {
      "type": "function",
      "name": "autoRelease",
      "inputs": [
        {
          "name": "_escrowId",
          "type": "uint256",
          "internalType": "uint256"
        }
      ],
      "outputs": [],
      "stateMutability": "nonpayable"
    },
    {
      "type": "function",
      "name": "baseFeePercentage",
      "inputs": [],
      "outputs": [
        {
          "name": "",
          "type": "uint256",
          "internalType": "uint256"
        }
      ],
      "stateMutability": "view"
    },
    {
      "type": "function",
      "name": "batchCreateEscrows",
      "inputs": [
        {
          "name": "_sellers",
          "type": "address[]",
          "internalType": "address[]"
        },
        {
          "name": "_amounts",
          "type": "uint256[]",
          "internalType": "uint256[]"
        },
        {
          "name": "_disputeWindows",
          "type": "uint256[]",
          "internalType": "uint256[]"
        },
        {
          "name": "_metadatas",
          "type": "string[]",
          "internalType": "string[]"
        }
      ],
      "outputs": [
        {
          "name": "escrowIds",
          "type": "uint256[]",
          "internalType": "uint256[]"
        }
      ],
      "stateMutability": "payable"
    },
    {
      "type": "function",
      "name": "batchSetUserSubscriptionTiers",
      "inputs": [
        {
          "name": "users",
          "type": "address[]",
          "internalType": "address[]"
        },
        {
          "name": "tiers",
          "type": "uint8[]",
          "internalType": "uint8[]"
        }
      ],
      "outputs": [],
      "stateMutability": "nonpayable"
    },
    {
      "type": "function",
      "name": "calculateFee",
      "inputs": [
        {
          "name": "_amount",
          "type": "uint256",
          "internalType": "uint256"
        }
      ],
      "outputs": [
        {
          "name": "fee",
          "type": "uint256",
          "internalType": "uint256"
        }
      ],
      "stateMutability": "view"
    },
    {
      "type": "function",
      "name": "cancelEscrow",
      "inputs": [
        {
          "name": "_escrowId",
          "type": "uint256",
          "internalType": "uint256"
        }
      ],
      "outputs": [],
      "stateMutability": "nonpayable"
    },
    {
      "type": "function",
      "name": "confirmDelivery",
      "inputs": [
        {
          "name": "_escrowId",
          "type": "uint256",
          "internalType": "uint256"
        }
      ],
      "outputs": [],
      "stateMutability": "nonpayable"
    },
    {
      "type": "function",
      "name": "createEscrow",
      "inputs": [
        {
          "name": "_seller",
          "type": "address",
          "internalType": "address"
        },
        {
          "name": "_amount",
          "type": "uint256",
          "internalType": "uint256"
        },
        {
          "name": "_disputeWindow",
          "type": "uint256",
          "internalType": "uint256"
        },
        {
          "name": "_metadata",
          "type": "string",
          "internalType": "string"
        }
      ],
      "outputs": [
        {
          "name": "escrowId",
          "type": "uint256",
          "internalType": "uint256"
        }
      ],
      "stateMutability": "payable"
    },
    {
      "type": "function",
      "name": "createEscrowWithTemplate",
      "inputs": [
        {
          "name": "_seller",
          "type": "address",
          "internalType": "address"
        },
        {
          "name": "_amount",
          "type": "uint256",
          "internalType": "uint256"
        },
        {
          "name": "_disputeWindow",
          "type": "uint256",
          "internalType": "uint256"
        },
        {
          "name": "_metadata",
          "type": "string",
          "internalType": "string"
        },
        {
          "name": "_templateId",
          "type": "string",
          "internalType": "string"
        },
        {
          "name": "_approvers",
          "type": "address[]",
          "internalType": "address[]"
        }
      ],
      "outputs": [
        {
          "name": "escrowId",
          "type": "uint256",
          "internalType": "uint256"
        }
      ],
      "stateMutability": "payable"
    },
    {
      "type": "function",
      "name": "defaultApprovalsRequired",
      "inputs": [],
      "outputs": [
        {
          "name": "",
          "type": "uint256",
          "internalType": "uint256"
        }
      ],
      "stateMutability": "view"
    },
    {
      "type": "function",
      "name": "defaultDisputeWindow",
      "inputs": [],
      "outputs": [
        {
          "name": "",
          "type": "uint256",
          "internalType": "uint256"
        }
      ],
      "stateMutability": "view"
    },
    {
      "type": "function",
      "name": "disputeReasons",
      "inputs": [
        {
          "name": "",
          "type": "uint256",
          "internalType": "uint256"
        }
      ],
      "outputs": [
        {
          "name": "",
          "type": "string",
          "internalType": "string"
        }
      ],
      "stateMutability": "view"
    },
    {
      "type": "function",
      "name": "enterpriseTierFeePercentage",
      "inputs": [],
      "outputs": [
        {
          "name": "",
          "type": "uint256",
          "internalType": "uint256"
        }
      ],
      "stateMutability": "view"
    },
    {
      "type": "function",
      "name": "escrows",
      "inputs": [
        {
          "name": "",
          "type": "uint256",
          "internalType": "uint256"
        }
      ],
      "outputs": [
        {
          "name": "buyer",
          "type": "address",
          "internalType": "address"
        },
        {
          "name": "seller",
          "type": "address",
          "internalType": "address"
        },
        {
          "name": "amount",
          "type": "uint256",
          "internalType": "uint256"
        },
        {
          "name": "fee",
          "type": "uint256",
          "internalType": "uint256"
        },
        {
          "name": "status",
          "type": "uint8",
          "internalType": "enum EscrowCore.Status"
        },
        {
          "name": "createdAt",
          "type": "uint256",
          "internalType": "uint256"
        },
        {
          "name": "fundedAt",
          "type": "uint256",
          "internalType": "uint256"
        },
        {
          "name": "disputeWindow",
          "type": "uint256",
          "internalType": "uint256"
        },
        {
          "name": "feeCollected",
          "type": "bool",
          "internalType": "bool"
        },
        {
          "name": "metadata",
          "type": "string",
          "internalType": "string"
        },
        {
          "name": "chainId",
          "type": "uint256",
          "internalType": "uint256"
        },
        {
          "name": "approvalsRequired",
          "type": "uint256",
          "internalType": "uint256"
        },
        {
          "name": "approvalCount",
          "type": "uint256",
          "internalType": "uint256"
        }
      ],
      "stateMutability": "view"
    },
    {
      "type": "function",
      "name": "feeRecipient",
      "inputs": [],
      "outputs": [
        {
          "name": "",
          "type": "address",
          "internalType": "address"
        }
      ],
      "stateMutability": "view"
    },
    {
      "type": "function",
      "name": "fundEscrow",
      "inputs": [
        {
          "name": "_escrowId",
          "type": "uint256",
          "internalType": "uint256"
        }
      ],
      "outputs": [],
      "stateMutability": "payable"
    },
    {
      "type": "function",
      "name": "getActiveEscrows",
      "inputs": [
        {
          "name": "offset",
          "type": "uint256",
          "internalType": "uint256"
        },
        {
          "name": "limit",
          "type": "uint256",
          "internalType": "uint256"
        }
      ],
      "outputs": [
        {
          "name": "escrowIds",
          "type": "uint256[]",
          "internalType": "uint256[]"
        },
        {
          "name": "count",
          "type": "uint256",
          "internalType": "uint256"
        }
      ],
      "stateMutability": "view"
    },
    {
      "type": "function",
      "name": "getAvailableFees",
      "inputs": [],
      "outputs": [
        {
          "name": "",
          "type": "uint256",
          "internalType": "uint256"
        }
      ],
      "stateMutability": "view"
    },
    {
      "type": "function",
      "name": "getDisputeDetails",
      "inputs": [
        {
          "name": "_escrowId",
          "type": "uint256",
          "internalType": "uint256"
        }
      ],
      "outputs": [
        {
          "name": "disputeReason",
          "type": "string",
          "internalType": "string"
        },
        {
          "name": "resolution",
          "type": "string",
          "internalType": "string"
        }
      ],
      "stateMutability": "view"
    },
    {
      "type": "function",
      "name": "getDisputedEscrows",
      "inputs": [],
      "outputs": [
        {
          "name": "escrowIds",
          "type": "uint256[]",
          "internalType": "uint256[]"
        }
      ],
      "stateMutability": "view"
    },
    {
      "type": "function",
      "name": "getEscrowDetails",
      "inputs": [
        {
          "name": "_escrowId",
          "type": "uint256",
          "internalType": "uint256"
        }
      ],
      "outputs": [
        {
          "name": "buyer",
          "type": "address",
          "internalType": "address"
        },
        {
          "name": "seller",
          "type": "address",
          "internalType": "address"
        },
        {
          "name": "amount",
          "type": "uint256",
          "internalType": "uint256"
        },
        {
          "name": "fee",
          "type": "uint256",
          "internalType": "uint256"
        },
        {
          "name": "status",
          "type": "uint8",
          "internalType": "enum EscrowCore.Status"
        },
        {
          "name": "createdAt",
          "type": "uint256",
          "internalType": "uint256"
        },
        {
          "name": "fundedAt",
          "type": "uint256",
          "internalType": "uint256"
        },
        {
          "name": "disputeWindow",
          "type": "uint256",
          "internalType": "uint256"
        },
        {
          "name": "metadata",
          "type": "string",
          "internalType": "string"
        }
      ],
      "stateMutability": "view"
    },
    {
      "type": "function",
      "name": "getEscrowStats",
      "inputs": [],
      "outputs": [
        {
          "name": "totalEscrows",
          "type": "uint256",
          "internalType": "uint256"
        },
        {
          "name": "activeEscrows",
          "type": "uint256",
          "internalType": "uint256"
        },
        {
          "name": "completedEscrows",
          "type": "uint256",
          "internalType": "uint256"
        },
        {
          "name": "disputedEscrows",
          "type": "uint256",
          "internalType": "uint256"
        },
        {
          "name": "totalVolume",
          "type": "uint256",
          "internalType": "uint256"
        },
        {
          "name": "feesCollected",
          "type": "uint256",
          "internalType": "uint256"
        },
        {
          "name": "availableFees",
          "type": "uint256",
          "internalType": "uint256"
        }
      ],
      "stateMutability": "view"
    },
    {
      "type": "function",
      "name": "getRoleAdmin",
      "inputs": [
        {
          "name": "role",
          "type": "bytes32",
          "internalType": "bytes32"
        }
      ],
      "outputs": [
        {
          "name": "",
          "type": "bytes32",
          "internalType": "bytes32"
        }
      ],
      "stateMutability": "view"
    },
    {
      "type": "function",
      "name": "getUserEscrows",
      "inputs": [
        {
          "name": "_user",
          "type": "address",
          "internalType": "address"
        }
      ],
      "outputs": [
        {
          "name": "",
          "type": "uint256[]",
          "internalType": "uint256[]"
        }
      ],
      "stateMutability": "view"
    },
    {
      "type": "function",
      "name": "grantRole",
      "inputs": [
        {
          "name": "role",
          "type": "bytes32",
          "internalType": "bytes32"
        },
        {
          "name": "account",
          "type": "address",
          "internalType": "address"
        }
      ],
      "outputs": [],
      "stateMutability": "nonpayable"
    },
    {
      "type": "function",
      "name": "hasRole",
      "inputs": [
        {
          "name": "role",
          "type": "bytes32",
          "internalType": "bytes32"
        },
        {
          "name": "account",
          "type": "address",
          "internalType": "address"
        }
      ],
      "outputs": [
        {
          "name": "",
          "type": "bool",
          "internalType": "bool"
        }
      ],
      "stateMutability": "view"
    },
    {
      "type": "function",
      "name": "lastBatchOperation",
      "inputs": [
        {
          "name": "",
          "type": "address",
          "internalType": "address"
        }
      ],
      "outputs": [
        {
          "name": "",
          "type": "uint256",
          "internalType": "uint256"
        }
      ],
      "stateMutability": "view"
    },
    {
      "type": "function",
      "name": "markDelivered",
      "inputs": [
        {
          "name": "_escrowId",
          "type": "uint256",
          "internalType": "uint256"
        }
      ],
      "outputs": [],
      "stateMutability": "nonpayable"
    },
    {
      "type": "function",
      "name": "multiSigThreshold",
      "inputs": [],
      "outputs": [
        {
          "name": "",
          "type": "uint256",
          "internalType": "uint256"
        }
      ],
      "stateMutability": "view"
    },
    {
      "type": "function",
      "name": "nextEscrowId",
      "inputs": [],
      "outputs": [
        {
          "name": "",
          "type": "uint256",
          "internalType": "uint256"
        }
      ],
      "stateMutability": "view"
    },
    {
      "type": "function",
      "name": "pause",
      "inputs": [],
      "outputs": [],
      "stateMutability": "nonpayable"
    },
    {
      "type": "function",
      "name": "paused",
      "inputs": [],
      "outputs": [
        {
          "name": "",
          "type": "bool",
          "internalType": "bool"
        }
      ],
      "stateMutability": "view"
    },
    {
      "type": "function",
      "name": "proTierFeePercentage",
      "inputs": [],
      "outputs": [
        {
          "name": "",
          "type": "uint256",
          "internalType": "uint256"
        }
      ],
      "stateMutability": "view"
    },
    {
      "type": "function",
      "name": "raiseDispute",
      "inputs": [
        {
          "name": "_escrowId",
          "type": "uint256",
          "internalType": "uint256"
        },
        {
          "name": "_reason",
          "type": "string",
          "internalType": "string"
        }
      ],
      "outputs": [],
      "stateMutability": "nonpayable"
    },
    {
      "type": "function",
      "name": "renounceRole",
      "inputs": [
        {
          "name": "role",
          "type": "bytes32",
          "internalType": "bytes32"
        },
        {
          "name": "callerConfirmation",
          "type": "address",
          "internalType": "address"
        }
      ],
      "outputs": [],
      "stateMutability": "nonpayable"
    },
    {
      "type": "function",
      "name": "resolutionDetails",
      "inputs": [
        {
          "name": "",
          "type": "uint256",
          "internalType": "uint256"
        }
      ],
      "outputs": [
        {
          "name": "",
          "type": "string",
          "internalType": "string"
        }
      ],
      "stateMutability": "view"
    },
    {
      "type": "function",
      "name": "resolveDispute",
      "inputs": [
        {
          "name": "_escrowId",
          "type": "uint256",
          "internalType": "uint256"
        },
        {
          "name": "_refundToBuyer",
          "type": "bool",
          "internalType": "bool"
        },
        {
          "name": "_resolution",
          "type": "string",
          "internalType": "string"
        }
      ],
      "outputs": [],
      "stateMutability": "nonpayable"
    },
    {
      "type": "function",
      "name": "revokeRole",
      "inputs": [
        {
          "name": "role",
          "type": "bytes32",
          "internalType": "bytes32"
        },
        {
          "name": "account",
          "type": "address",
          "internalType": "address"
        }
      ],
      "outputs": [],
      "stateMutability": "nonpayable"
    },
    {
      "type": "function",
      "name": "setEscrowTemplate",
      "inputs": [
        {
          "name": "_templateId",
          "type": "string",
          "internalType": "string"
        },
        {
          "name": "_disputeWindow",
          "type": "uint256",
          "internalType": "uint256"
        },
        {
          "name": "_feePercentage",
          "type": "uint256",
          "internalType": "uint256"
        },
        {
          "name": "_requiresMultiSig",
          "type": "bool",
          "internalType": "bool"
        },
        {
          "name": "_approvalsRequired",
          "type": "uint256",
          "internalType": "uint256"
        }
      ],
      "outputs": [],
      "stateMutability": "nonpayable"
    },
    {
      "type": "function",
      "name": "setUserSubscriptionTier",
      "inputs": [
        {
          "name": "user",
          "type": "address",
          "internalType": "address"
        },
        {
          "name": "tier",
          "type": "uint8",
          "internalType": "uint8"
        }
      ],
      "outputs": [],
      "stateMutability": "nonpayable"
    },
    {
      "type": "function",
      "name": "supportsInterface",
      "inputs": [
        {
          "name": "interfaceId",
          "type": "bytes4",
          "internalType": "bytes4"
        }
      ],
      "outputs": [
        {
          "name": "",
          "type": "bool",
          "internalType": "bool"
        }
      ],
      "stateMutability": "view"
    },
    {
      "type": "function",
      "name": "templates",
      "inputs": [
        {
          "name": "",
          "type": "string",
          "internalType": "string"
        }
      ],
      "outputs": [
        {
          "name": "disputeWindow",
          "type": "uint256",
          "internalType": "uint256"
        },
        {
          "name": "feePercentage",
          "type": "uint256",
          "internalType": "uint256"
        },
        {
          "name": "requiresMultiSig",
          "type": "bool",
          "internalType": "bool"
        },
        {
          "name": "approvalsRequired",
          "type": "uint256",
          "internalType": "uint256"
        },
        {
          "name": "exists",
          "type": "bool",
          "internalType": "bool"
        }
      ],
      "stateMutability": "view"
    },
    {
      "type": "function",
      "name": "totalFeesCollected",
      "inputs": [],
      "outputs": [
        {
          "name": "",
          "type": "uint256",
          "internalType": "uint256"
        }
      ],
      "stateMutability": "view"
    },
    {
      "type": "function",
      "name": "unpause",
      "inputs": [],
      "outputs": [],
      "stateMutability": "nonpayable"
    },
    {
      "type": "function",
      "name": "updateDefaultDisputeWindow",
      "inputs": [
        {
          "name": "_newWindow",
          "type": "uint256",
          "internalType": "uint256"
        }
      ],
      "outputs": [],
      "stateMutability": "nonpayable"
    },
    {
      "type": "function",
      "name": "updateFeePercentage",
      "inputs": [
        {
          "name": "_newFeePercentage",
          "type": "uint256",
          "internalType": "uint256"
        }
      ],
      "outputs": [],
      "stateMutability": "nonpayable"
    },
    {
      "type": "function",
      "name": "updateFeeRecipient",
      "inputs": [
        {
          "name": "_newRecipient",
          "type": "address",
          "internalType": "address"
        }
      ],
      "outputs": [],
      "stateMutability": "nonpayable"
    },
    {
      "type": "function",
      "name": "updateFeeTiers",
      "inputs": [
        {
          "name": "_baseFee",
          "type": "uint256",
          "internalType": "uint256"
        },
        {
          "name": "_proFee",
          "type": "uint256",
          "internalType": "uint256"
        },
        {
          "name": "_enterpriseFee",
          "type": "uint256",
          "internalType": "uint256"
        }
      ],
      "outputs": [],
      "stateMutability": "nonpayable"
    },
    {
      "type": "function",
      "name": "userActiveEscrowCount",
      "inputs": [
        {
          "name": "",
          "type": "address",
          "internalType": "address"
        }
      ],
      "outputs": [
        {
          "name": "",
          "type": "uint256",
          "internalType": "uint256"
        }
      ],
      "stateMutability": "view"
    },
    {
      "type": "function",
      "name": "userEscrows",
      "inputs": [
        {
          "name": "",
          "type": "address",
          "internalType": "address"
        },
        {
          "name": "",
          "type": "uint256",
          "internalType": "uint256"
        }
      ],
      "outputs": [
        {
          "name": "",
          "type": "uint256",
          "internalType": "uint256"
        }
      ],
      "stateMutability": "view"
    },
    {
      "type": "function",
      "name": "userSubscriptionTier",
      "inputs": [
        {
          "name": "",
          "type": "address",
          "internalType": "address"
        }
      ],
      "outputs": [
        {
          "name": "",
          "type": "uint8",
          "internalType": "uint8"
        }
      ],
      "stateMutability": "view"
    },
    {
      "type": "function",
      "name": "withdrawFees",
      "inputs": [],
      "outputs": [],
      "stateMutability": "nonpayable"
    },
    {
      "type": "event",
      "name": "DeliveryConfirmed",
      "inputs": [
        {
          "name": "escrowId",
          "type": "uint256",
          "indexed": true,
          "internalType": "uint256"
        },
        {
          "name": "buyer",
          "type": "address",
          "indexed": true,
          "internalType": "address"
        },
        {
          "name": "timestamp",
          "type": "uint256",
          "indexed": false,
          "internalType": "uint256"
        }
      ],
      "anonymous": false
    },
    {
      "type": "event",
      "name": "DeliveryMarked",
      "inputs": [
        {
          "name": "escrowId",
          "type": "uint256",
          "indexed": true,
          "internalType": "uint256"
        },
        {
          "name": "seller",
          "type": "address",
          "indexed": true,
          "internalType": "address"
        },
        {
          "name": "timestamp",
          "type": "uint256",
          "indexed": false,
          "internalType": "uint256"
        }
      ],
      "anonymous": false
    },
    {
      "type": "event",
      "name": "DisputeRaised",
      "inputs": [
        {
          "name": "escrowId",
          "type": "uint256",
          "indexed": true,
          "internalType": "uint256"
        },
        {
          "name": "disputer",
          "type": "address",
          "indexed": true,
          "internalType": "address"
        },
        {
          "name": "reason",
          "type": "string",
          "indexed": false,
          "internalType": "string"
        },
        {
          "name": "timestamp",
          "type": "uint256",
          "indexed": false,
          "internalType": "uint256"
        }
      ],
      "anonymous": false
    },
    {
      "type": "event",
      "name": "DisputeResolved",
      "inputs": [
        {
          "name": "escrowId",
          "type": "uint256",
          "indexed": true,
          "internalType": "uint256"
        },
        {
          "name": "arbitrator",
          "type": "address",
          "indexed": true,
          "internalType": "address"
        },
        {
          "name": "refunded",
          "type": "bool",
          "indexed": false,
          "internalType": "bool"
        },
        {
          "name": "resolution",
          "type": "string",
          "indexed": false,
          "internalType": "string"
        },
        {
          "name": "timestamp",
          "type": "uint256",
          "indexed": false,
          "internalType": "uint256"
        }
      ],
      "anonymous": false
    },
    {
      "type": "event",
      "name": "DisputeWindowUpdated",
      "inputs": [
        {
          "name": "oldWindow",
          "type": "uint256",
          "indexed": false,
          "internalType": "uint256"
        },
        {
          "name": "newWindow",
          "type": "uint256",
          "indexed": false,
          "internalType": "uint256"
        }
      ],
      "anonymous": false
    },
    {
      "type": "event",
      "name": "EscrowCancelled",
      "inputs": [
        {
          "name": "escrowId",
          "type": "uint256",
          "indexed": true,
          "internalType": "uint256"
        },
        {
          "name": "timestamp",
          "type": "uint256",
          "indexed": false,
          "internalType": "uint256"
        }
      ],
      "anonymous": false
    },
    {
      "type": "event",
      "name": "EscrowCompleted",
      "inputs": [
        {
          "name": "escrowId",
          "type": "uint256",
          "indexed": true,
          "internalType": "uint256"
        },
        {
          "name": "seller",
          "type": "address",
          "indexed": true,
          "internalType": "address"
        },
        {
          "name": "amount",
          "type": "uint256",
          "indexed": false,
          "internalType": "uint256"
        },
        {
          "name": "fee",
          "type": "uint256",
          "indexed": false,
          "internalType": "uint256"
        },
        {
          "name": "timestamp",
          "type": "uint256",
          "indexed": false,
          "internalType": "uint256"
        }
      ],
      "anonymous": false
    },
    {
      "type": "event",
      "name": "EscrowCreated",
      "inputs": [
        {
          "name": "escrowId",
          "type": "uint256",
          "indexed": true,
          "internalType": "uint256"
        },
        {
          "name": "buyer",
          "type": "address",
          "indexed": true,
          "internalType": "address"
        },
        {
          "name": "seller",
          "type": "address",
          "indexed": true,
          "internalType": "address"
        },
        {
          "name": "amount",
          "type": "uint256",
          "indexed": false,
          "internalType": "uint256"
        },
        {
          "name": "fee",
          "type": "uint256",
          "indexed": false,
          "internalType": "uint256"
        }
      ],
      "anonymous": false
    },
    {
      "type": "event",
      "name": "EscrowFunded",
      "inputs": [
        {
          "name": "escrowId",
          "type": "uint256",
          "indexed": true,
          "internalType": "uint256"
        },
        {
          "name": "buyer",
          "type": "address",
          "indexed": true,
          "internalType": "address"
        },
        {
          "name": "amount",
          "type": "uint256",
          "indexed": false,
          "internalType": "uint256"
        },
        {
          "name": "timestamp",
          "type": "uint256",
          "indexed": false,
          "internalType": "uint256"
        }
      ],
      "anonymous": false
    },
    {
      "type": "event",
      "name": "EscrowRefunded",
      "inputs": [
        {
          "name": "escrowId",
          "type": "uint256",
          "indexed": true,
          "internalType": "uint256"
        },
        {
          "name": "buyer",
          "type": "address",
          "indexed": true,
          "internalType": "address"
        },
        {
          "name": "amount",
          "type": "uint256",
          "indexed": false,
          "internalType": "uint256"
        },
        {
          "name": "timestamp",
          "type": "uint256",
          "indexed": false,
          "internalType": "uint256"
        }
      ],
      "anonymous": false
    },
    {
      "type": "event",
      "name": "FeeRecipientUpdated",
      "inputs": [
        {
          "name": "oldRecipient",
          "type": "address",
          "indexed": false,
          "internalType": "address"
        },
        {
          "name": "newRecipient",
          "type": "address",
          "indexed": false,
          "internalType": "address"
        }
      ],
      "anonymous": false
    },
    {
      "type": "event",
      "name": "FeeUpdated",
      "inputs": [
        {
          "name": "oldFee",
          "type": "uint256",
          "indexed": false,
          "internalType": "uint256"
        },
        {
          "name": "newFee",
          "type": "uint256",
          "indexed": false,
          "internalType": "uint256"
        }
      ],
      "anonymous": false
    },
    {
      "type": "event",
      "name": "Paused",
      "inputs": [
        {
          "name": "account",
          "type": "address",
          "indexed": false,
          "internalType": "address"
        }
      ],
      "anonymous": false
    },
    {
      "type": "event",
      "name": "RoleAdminChanged",
      "inputs": [
        {
          "name": "role",
          "type": "bytes32",
          "indexed": true,
          "internalType": "bytes32"
        },
        {
          "name": "previousAdminRole",
          "type": "bytes32",
          "indexed": true,
          "internalType": "bytes32"
        },
        {
          "name": "newAdminRole",
          "type": "bytes32",
          "indexed": true,
          "internalType": "bytes32"
        }
      ],
      "anonymous": false
    },
    {
      "type": "event",
      "name": "RoleGranted",
      "inputs": [
        {
          "name": "role",
          "type": "bytes32",
          "indexed": true,
          "internalType": "bytes32"
        },
        {
          "name": "account",
          "type": "address",
          "indexed": true,
          "internalType": "address"
        },
        {
          "name": "sender",
          "type": "address",
          "indexed": true,
          "internalType": "address"
        }
      ],
      "anonymous": false
    },
    {
      "type": "event",
      "name": "RoleRevoked",
      "inputs": [
        {
          "name": "role",
          "type": "bytes32",
          "indexed": true,
          "internalType": "bytes32"
        },
        {
          "name": "account",
          "type": "address",
          "indexed": true,
          "internalType": "address"
        },
        {
          "name": "sender",
          "type": "address",
          "indexed": true,
          "internalType": "address"
        }
      ],
      "anonymous": false
    },
    {
      "type": "event",
      "name": "Unpaused",
      "inputs": [
        {
          "name": "account",
          "type": "address",
          "indexed": false,
          "internalType": "address"
        }
      ],
      "anonymous": false
    },
    {
      "type": "error",
      "name": "AccessControlBadConfirmation",
      "inputs": []
    },
    {
      "type": "error",
      "name": "AccessControlUnauthorizedAccount",
      "inputs": [
        {
          "name": "account",
          "type": "address",
          "internalType": "address"
        },
        {
          "name": "neededRole",
          "type": "bytes32",
          "internalType": "bytes32"
        }
      ]
    },
    {
      "type": "error",
      "name": "EnforcedPause",
      "inputs": []
    },
    {
      "type": "error",
      "name": "ExpectedPause",
      "inputs": []
    },
    {
      "type": "error",
      "name": "ReentrancyGuardReentrantCall",
      "inputs": []
    }
  ],
  "bytecode": {
    "object": "0x60803461010857601f6141d038819003918201601f19168301916001600160401b0383118484101761010d5780849260209460405283398101031261010857516001600160a01b03811690819003610108576001805560fa60045562093a8060055560c86008556096600955678ac7230489e80000600a556002600b5580156100c35761008b33610123565b50610095336101a1565b5061009f33610241565b50600680546001600160a01b031916919091179055604051613ed390816102dd8239f35b60405162461bcd60e51b815260206004820152601560248201527f496e76616c69642066656520726563697069656e7400000000000000000000006044820152606490fd5b600080fd5b634e487b7160e01b600052604160045260246000fd5b6001600160a01b031660008181527fad3228b676f7d3cd4284a5443f17f1962b36e491b30a40b2405849e597ba5fb5602052604081205490919060ff1661019d57818052816020526040822081835260205260408220600160ff1982541617905533916000805160206141b08339815191528180a4600190565b5090565b6001600160a01b031660008181527f7d7ffb7a348e1c6a02869081a26547b49160dd3df72d1d75a570eb9b698292ec60205260408120549091907fa49807205ce4d355092ef5a8a18f56e8913cf4a201fbe287825b095693c217759060ff1661023c57808352826020526040832082845260205260408320600160ff198254161790556000805160206141b0833981519152339380a4600190565b505090565b6001600160a01b031660008181527f124a13b16867194fc8fe1b97be0d668b89ac2a8dd77d418cf4feefa89864a62660205260408120549091907f16ceee8289685dd2a02b9c8ae81d2df373176ce53519e6284e2a2950d6546ffa9060ff1661023c57808352826020526040832082845260205260408320600160ff198254161790556000805160206141b0833981519152339380a460019056fe6080604052600436101561001b575b361561001957600080fd5b005b60003560e01c8063012f52ee1461311157806301ffc9a7146130bb57806303e8803314612f8457806303fce7ef14612d245780630707950d14612c7a5780630e6815821461284b57806316b305ee1461280e578063248a9ca3146127df5780632682ff421461277e5780632840662d146123cb5780632eb524251461239f5780632f2ff15d14612360578063344f8ead1461234257806336568abe146122fb57806339f5687e14611d765780633f4ba83a14611d0c57806340806f7c14611cf0578063459b860e14611bc75780634690484014611b9e578063476343ee14611ad75780634937a94314611ab95780634badfeb214611a9b5780635aef573c146117c35780635c975abb146117a05780635ccea85e1461171557806360c6d8ae146116f757806361b89558146116b757806367b792e61461167d578063683f31d3146110835780636cad3fb0146110215780636f346d8c14610fe757806375b238fc14610fac5780637627215c14610f8e5780637f944dd014610f365780638375bb3914610f185780638456cb5914610ebe57806389cb29dd14610ea057806391d1485414610e5357806399a5d74714610e265780639b71b96414610d065780639cea078714610ccb578063a217fddf14610caf578063a9c73ddd14610c91578063acff2b0914610b89578063b0eacf7814610a78578063b22beeda146109e5578063b996ec2a14610929578063c9c31af5146108ab578063d547741f1461086c578063d59553f314610790578063e01824361461065e578063e1f1c4a714610641578063ea89735d146105cb578063eb826a5f146104d4578063f160d3691461041b578063f877eb7b146103db5763fd84cb970361000e57346103d65760203660031901126103d6576004356102af613ae2565b6102b7613d87565b6102c46003548210613599565b80600052600d6020526102e560018060a01b03604060002054163314613837565b80600052600d60205260046040600020019081549160ff831660088110156103c057600181149081156103b5575b501561035e5760036103589360ff1916179055604051428152817f2f4a952729db32131cb3d658cc231127e0ce7e50f83508ece9a49c985f2384d060203393a3613b00565b60018055005b60405162461bcd60e51b815260206004820152602960248201527f43616e6e6f7420636f6e6669726d2064656c697665727920696e2063757272656044820152686e742073746174757360b81b6064820152608490fd5b600291501438610313565b634e487b7160e01b600052602160045260246000fd5b600080fd5b346103d65760403660031901126103d6576104116103fd602435600435613879565b6040519283926040845260408401906134fc565b9060208301520390f35b346103d65760203660031901126103d6576104346133e9565b61043c613a60565b6001600160a01b03908116801561049b577faaebcf1bfa00580e41d966056b48521fa9f202645c86d4ddf28113e617c1b1d39160409160065491816bffffffffffffffffffffffff60a01b8416176006558351921682526020820152a1005b60405162461bcd60e51b8152602060048201526011602482015270125b9d985b1a59081c9958da5c1a595b9d607a1b6044820152606490fd5b346103d6576020806003193601126103d6576004356104f1613ae2565b6104fe6003548210613599565b6000818152600d835260409020600101546001600160a01b0316330361058f5780600052600d825260ff6004604060002001541660088110156103c057600161054791146136df565b80600052600d82526004604060002001600260ff198254161790557f96d3617eedfa38bef0914b606c12b01c032b221400a07de823fe563575ef0381604051924284523393a3005b60405162461bcd60e51b815260048101839052601460248201527313db9b1e481cd95b1b195c8818d85b8818d85b1b60621b6044820152606490fd5b346103d65760203660031901126103d6576004356105ec6003548210613599565b600052601060205261062f6040600020601160205261063d61061b61061560406000209361328d565b9261328d565b604051938493604085526040850190613362565b908382036020850152613362565b0390f35b346103d65760003660031901126103d65760206040516127108152f35b346103d6576020806003193601126103d6576004359061067c613ae2565b6106896003548310613599565b81600052600d81526040600020906106b860018060a01b03928380825416331491821561077f575b50506137eb565b82600052600d815260ff600460406000200154169160088310156103c0576107017fdc48a08bb890bd1b8e4261212a97a5e711e80830d96ba56b362f3ac5f427d51e93156136df565b83600052600d82526001604060002060048101600660ff1982541617905582815416600052600f8452604060002080548061076d575b5050015416600052600f8152604060002080548061075b575b5050604051428152a2005b61076490613723565b90558380610750565b61077690613723565b90558680610737565b6001919250015416331483866106b1565b346103d65760003660031901126103d6576003546000805b82811061082a57506107b9906137a5565b60009160005b8181106107dc576040516020808252819061063d908201866134fc565b80600052600d60205260ff6004604060002001541660088110156103c05760041461080a575b6001016107bf565b92610822818561081c600194876137d7565b526135dd565b939050610802565b80600052600d60205260ff6004604060002001541660088110156103c057600414610858575b6001016107a8565b906108646001916135dd565b919050610850565b346103d65760403660031901126103d65761001960043561088b6133ff565b908060005260006020526108a6600160406000200154613abc565b613e28565b60203660031901126103d6576004356108c2613ae2565b6108ca613d87565b6108d76003548210613599565b80600052600d6020526108f860018060a01b03604060002054163314613837565b80600052600d60205260ff600460406000200154169060088210156103c05761092461035892156136df565b613d04565b346103d65760203660031901126103d65760043561094a6003548210613599565b600052600d602052604060002060018060a01b039061063d82825416926001830154169160028101549360038201549160ff60048201541660058201546109c76006840154926109a160096007870154960161328d565b966040519a8b9a610120988c5260208c015260408b015260608a01526080890190613332565b60a087015260c086015260e085015280610100850152830190613362565b346103d65760203660031901126103d6576004356001600160401b0381116103d657610a2f6020610a1c60a09336906004016133a2565b816040519382858094519384920161333f565b8101600c81520301902080549060018101549060ff60028201541660ff600460038401549301541692604051948552602085015215156040840152606083015215156080820152f35b346103d65760603660031901126103d657604435602435600435610a9a613a60565b6103e88111610b5057808211610b0b57818311610abc57600455600855600955005b60405162461bcd60e51b815260206004820152602160248201527f456e746572707269736520666565206d757374206265203c3d2070726f2066656044820152606560f81b6064820152608490fd5b60405162461bcd60e51b815260206004820152601b60248201527f50726f20666565206d757374206265203c3d20626173652066656500000000006044820152606490fd5b60405162461bcd60e51b8152602060048201526011602482015270084c2e6ca40cccaca40e8dede40d0d2ced607b1b6044820152606490fd5b346103d65760003660031901126103d657600354600090818080805b848110610bdf57509060e0949291600754924794604051968752602087015260408601526060850152608084015260a083015260c0820152f35b80600052600d602052604060002060ff600482015416600881101597886103c057600182148015610c83575b15610c4957610c19906135dd565b975b6103c057600603610c30575b50600101610ba5565b600191936002610c42920154906135ff565b9290610c27565b9795866103c05760078203610c6757610c61906135dd565b95610c1b565b9550600060048203610c1b5793610c7d906135dd565b93610c1b565b506000985060028214610c0b565b346103d65760003660031901126103d6576020600854604051908152f35b346103d65760003660031901126103d657602060405160008152f35b346103d65760003660031901126103d65760206040517f16ceee8289685dd2a02b9c8ae81d2df373176ce53519e6284e2a2950d6546ffa8152f35b346103d65760403660031901126103d6576001600160401b036004358181116103d657610d3790369060040161342c565b906024359081116103d657366023820112156103d657806004013591610d5c83613415565b91610d6a604051938461326c565b8383526020936024602085019160051b830101913683116103d657602401905b828210610e0d57505050610d9c613a60565b610da98151835114613760565b60005b81518110156100195760019060ff610dd3600282610dca85896137d7565b511611156136a4565b610ddd82866137d7565b5116828060a01b03610def83866137d7565b51166000526012865260406000209060ff1982541617905501610dac565b813560ff811681036103d6578152908501908501610d8a565b346103d65760203660031901126103d6576020612710610e4a6004546004356135ec565b04604051908152f35b346103d65760403660031901126103d657610e6c6133ff565b600435600052600060205260406000209060018060a01b0316600052602052602060ff604060002054166040519015158152f35b346103d65760003660031901126103d6576020600354604051908152f35b346103d65760003660031901126103d657610ed7613a60565b610edf613ae2565b600160ff1960025416176002557f62e78cea01bee320cd4e420270b5ea74000d11b0c9f74754ebdbfc544b05a2586020604051338152a1005b346103d65760003660031901126103d6576020600454604051908152f35b346103d65760403660031901126103d657610f4f6133e9565b6001600160a01b03166000908152600e60205260409020805460243591908210156103d657602091610f8091613530565b90546040519160031b1c8152f35b346103d65760003660031901126103d6576020600954604051908152f35b346103d65760003660031901126103d65760206040517fa49807205ce4d355092ef5a8a18f56e8913cf4a201fbe287825b095693c217758152f35b346103d65760203660031901126103d6576001600160a01b036110086133e9565b16600052600f6020526020604060002054604051908152f35b346103d65760203660031901126103d6577f528d9479e9f9889a87a3c30c7f7ba537e5e59c4c85a37733b16e57c62df613026040600435611060613a60565b61106e6103e882111561355e565b600454908060045582519182526020820152a1005b60803660031901126103d6576110976133e9565b604435906064356001600160401b0381116103d6576110ba9036906004016133a2565b906110c3613ae2565b604051906110d082613251565b600082526040516110e081613251565b600081526110ec613ae2565b846001600160a01b0383161561163f576001600160a01b03831633146115ee57602435156115a95761111d33613cc7565b918051801515908161157b575b506114ed575b5050611141612710916024356135ec565b049161114f836024356135ff565b346114dc575b5060035493611163856135dd565b60039081556000868152600d6020526040902080546001600160a01b0319908116331782556001820180549091166001600160a01b038716179055602435600282015590810185905560048101805460ff191690554260058201559580156114d3575b60078701558051906001600160401b0382116113e45781906111eb60098901546131fc565b601f8111611493575b50602090601f831160011461142157600092611416575b50508160011b916000199060031b1c19161760098601555b46600a860155600a546024351080159061140c575b61130c575b506020935033600052600e845261125883604060002061366f565b60018060a01b038116600052600e845261127683604060002061366f565b33600052600f8452604060002061128d81546135dd565b90556001600160a01b0381166000908152600f85526040902080546112b1906135dd565b90556040519160243583528483015260018060a01b031690827f59e4b8728799382406714f1c57de5c893d2772f9a8bf9950c5afe4397e64865460403393a4346112fe575b604051908152f35b61130781613d04565b6112f6565b805180156113fa57600b86016001600160401b0382116113e457600160401b82116113e45780548282558083106113c6575b506020830190600052602060002060005b8381106113a95750505050516001811160001461139b5760011c936001850180951161138557600c602095915b01555b8461123d565b634e487b7160e01b600052601160045260246000fd5b50602093600c60019161137c565b82516001600160a01b03168183015560209092019160010161134f565b6113de90826000528360206000209182019101613658565b8761133e565b634e487b7160e01b600052604160045260246000fd5b5050602093600c600b5491015561137f565b5080511515611238565b01519050878061120b565b9250600988016000526020600020906000935b601f1984168510611478576001945083601f1981161061145f575b505050811b016009860155611223565b015160001960f88460031b161c1916905587808061144f565b81810151835560209485019460019093019290910190611434565b6114c39060098a016000526020600020601f850160051c810191602086106114c9575b601f0160051c0190613658565b886111f4565b90915081906114b6565b506005546111c6565b6114e790341461360c565b85611155565b602061150691816040519382858094519384920161333f565b8101600c815203019020906040519161151e83613236565b805492838152608060ff6004600185015494856020860152826002820154161515604086015260038101546060860152015416151591015280611573575b5015611569575b80611130565b9450611141611563565b92508761155c565b60ff9150600490602060405182611596829483858a0161333f565b8101600c8152030190200154168861112a565b60405162461bcd60e51b815260206004820152601d60248201527f416d6f756e74206d7573742062652067726561746572207468616e20300000006044820152606490fd5b60405162461bcd60e51b815260206004820152602360248201527f427579657220616e642073656c6c65722063616e6e6f74206265207468652073604482015262616d6560e81b6064820152608490fd5b60405162461bcd60e51b8152602060048201526016602482015275496e76616c69642073656c6c6572206164647265737360501b6044820152606490fd5b346103d65760203660031901126103d6576001600160a01b0361169e6133e9565b1660005260136020526020604060002054604051908152f35b346103d65760203660031901126103d657600435600052601160205261063d6116e3604060002061328d565b604051918291602083526020830190613362565b346103d65760003660031901126103d6576020600754604051908152f35b346103d6576020806003193601126103d6576001600160a01b036117376133e9565b16600052600e8152604060002090604051808383829554938481520190600052836000209260005b8582821061178a575050506117769250038361326c565b61063d6040519282849384528301906134fc565b855484526001958601958895509301920161175f565b346103d65760003660031901126103d657602060ff600254166040519015158152f35b346103d65760403660031901126103d6576004356001600160401b036024358181116103d6576117f79036906004016133a2565b91611800613ae2565b61180d6003548210613599565b80600052602092600d845261183b604060002060018060a01b03808254163314918215611a8a5750506137eb565b81600052600d8452604060002060048101805460ff81169260088410156103c05760019360018114908115611a7f575b5015611a3c578060076006611885930154910154906135ff565b42116119f75760049060ff1916179055826000526010855260406000209082519485116113e4576118b682546131fc565b601f81116119c7575b508590601f861160011461193d575093807f9d956e00a78b28b7f3b6b25c60a4729355093de02cac8715ceb237725c0f58209495600091611932575b508160011b916000199060031b1c19161790555b61192460405191604083526040830190613362565b9342908201528033940390a3005b9050830151876118fb565b90601f1986168360005287600020926000905b898383106119af575050509186917f9d956e00a78b28b7f3b6b25c60a4729355093de02cac8715ceb237725c0f5820969760019410611996575b5050811b01905561190f565b85015160001960f88460031b161c19169055878061198a565b87850151865594810194938401939190910190611950565b6119f1908360005287600020601f880160051c8101918989106114c957601f0160051c0190613658565b866118bf565b60405162461bcd60e51b815260048101889052601a60248201527f446973707574652077696e646f772068617320657870697265640000000000006044820152606490fd5b6064886040519062461bcd60e51b825280600483015260248201527f43616e6e6f74206469737075746520696e2063757272656e74207374617475736044820152fd5b60029150148961186b565b6001919250015416331486806106b1565b346103d65760003660031901126103d6576020600a54604051908152f35b346103d65760003660031901126103d6576020600554604051908152f35b346103d65760003660031901126103d657611af0613a60565b611af8613d87565b478015611b63576006546000918291829182916001600160a01b03165af1611b1e613730565b5015611b2a5760018055005b60405162461bcd60e51b815260206004820152601160248201527015da5d1a191c985dd85b0819985a5b1959607a1b6044820152606490fd5b60405162461bcd60e51b81526020600482015260136024820152724e6f206665657320746f20776974686472617760681b6044820152606490fd5b346103d65760003660031901126103d6576006546040516001600160a01b039091168152602090f35b346103d65760203660031901126103d657600435611be3613ae2565b611beb613d87565b611bf86003548210613599565b80600052600d602052604060002060ff60048201541660088110156103c05760018114908115611ce5575b5015611c92578060076006611c3d930154910154906135ff565b421115611c4d5761035890613b00565b60405162461bcd60e51b815260206004820152601e60248201527f446973707574652077696e646f7720686173206e6f74206578706972656400006044820152606490fd5b60405162461bcd60e51b815260206004820152602560248201527f43616e6e6f74206175746f2d72656c6561736520696e2063757272656e742073604482015264746174757360d81b6064820152608490fd5b600291501483611c23565b346103d65760003660031901126103d657602047604051908152f35b346103d65760003660031901126103d657611d25613a60565b60025460ff811615611d645760ff19166002557f5db9ee0a495bf2e6ff9c91a7834c1ba4fdd244a5e8aa4e537bd38aeae4b073aa6020604051338152a1005b604051638dfc202b60e01b8152600490fd5b60803660031901126103d6576004356001600160401b0381116103d657611da190369060040161342c565b6024356001600160401b0381116103d657611dc090369060040161349c565b906044356001600160401b0381116103d657611de090369060040161349c565b606435906001600160401b0382116103d657366023830112156103d6578160040135611e0b81613415565b92611e19604051948561326c565b8184526024602085019260051b820101903682116103d65760248101925b8284106122cc5750505050611e4a613ae2565b611e6683518551811490816122c1575b816122b6575b50613760565b600a83511161227157611e7983516137a5565b906000926000935b8551851015611ed257611eca600191611ec4612710611eb38b611ead8b611ea733613cc7565b926137d7565b516135ec565b04611ebe898c6137d7565b516135ff565b906135ff565b940193611e81565b8694508590340361222c579291906000935b80518510156122045760035494611efa866135dd565b600355612710611f16611f0c33613cc7565b611ead848b6137d7565b049580600052600d6020526040600020966bffffffffffffffffffffffff60a01b33818a541617895560018060a01b03611f5085876137d7565b511660018a0191825416179055611f67838a6137d7565b51600289015580600389015560048801600160ff19825416179055426005890155426006890155611f9883876137d7565b51156121fc57611fa883876137d7565b515b6007890155611fb983866137d7565b519788516001600160401b0381116113e457611fd860098301546131fc565b601f81116121c7575b50602099601f8211600114612150576001969798999a8291600092612145575b5050600019600383901b1c191690861b1760098201555b600a4691015533600052600e8060205261203683604060002061366f565b848060a01b0361204685886137d7565b511660005260205261205c82604060002061366f565b33600052600f80602052604060002061207581546135dd565b9055848060a01b0361208785886137d7565b5116600052602052604060002061209e81546135dd565b9055816120ab848a6137d7565b52838060a01b036120bc84876137d7565b5116906120c9848b6137d7565b51906040519182526020820152827f59e4b8728799382406714f1c57de5c893d2772f9a8bf9950c5afe4397e64865460403393a461210782896137d7565b51906040519182524260208301527fbc6351b0e2a6a3f646e25885e97f2d7aef98ed917cad825bbcbc26d30bd1f0fb60403393a30193929190611ee4565b015190508c80612001565b90996009830160005260206000209160005b601f198d1681106121af5750918b91600198999a9b9c938994601f19811610612196575b505050811b016009820155612018565b015160001960f88460031b161c191690558c8080612186565b81830151845560019093019260209283019201612162565b6121f690600984016000526020600020601f840160051c810191602085106114c957601f0160051c0190613658565b8b611fe1565b600554611faa565b61063d84336000526013602052426040600020556040519182916020835260208301906134fc565b60405162461bcd60e51b815260206004820152601760248201527f496e636f727265637420746f74616c207061796d656e740000000000000000006044820152606490fd5b60405162461bcd60e51b815260206004820152601860248201527f4d617820313020657363726f77732070657220626174636800000000000000006044820152606490fd5b905083511486611e60565b835181149150611e5a565b83356001600160401b0381116103d6576020916122f08392602436918701016133a2565b815201930192611e37565b346103d65760403660031901126103d6576123146133ff565b336001600160a01b038216036123305761001990600435613e28565b60405163334bd91960e11b8152600490fd5b346103d65760003660031901126103d6576020600b54604051908152f35b346103d65760403660031901126103d65761001960043561237f6133ff565b9080600052600060205261239a600160406000200154613abc565b613daa565b346103d65760203660031901126103d657600435600052601060205261063d6116e3604060002061328d565b346103d65760603660031901126103d65760043560243590811515918281036103d6576001600160401b03906044358281116103d65761240f9036906004016133a2565b91612418613ae2565b612420613d87565b61242d6003548510613599565b3360009081527f124a13b16867194fc8fe1b97be0d668b89ac2a8dd77d418cf4feefa89864a62660209081526040909120549092907f16ceee8289685dd2a02b9c8ae81d2df373176ce53519e6284e2a2950d6546ffa9060ff1615612760575084600052600d835260ff6004604060002001541660088110156103c05760046124b691146136df565b84600052600d83526040600020916011845260406000209085519081116113e4576124e182546131fc565b601f8111612730575b508085601f82116001146126cd576000916126c2575b508160011b916000199060031b1c19161790555b1561267d5760048101805460ff1916600517905580546001600160a01b039081166000908152600f84526040902080548061266b575b505080600183015416600052600f83526040600020805480612659575b505061257c60028301546003840154906135ff565b91600080808086868654165af1612591613730565b501561261b57927fcbaa929044d8cd35693529ba03a7800560ad8709121bf60076b0956a1e0d84d99492867fa6dc039ff751ad9725f7237e080b41d06166a7be987e9564cc289645ee7b7ede60406060956126089854169381519081524286820152a35b6040519687528601526060850190613362565b924260408201528033940390a360018055005b60405162461bcd60e51b81526004810185905260166024820152751499599d5b99081d1c985b9cd9995c8819985a5b195960521b6044820152606490fd5b61266290613723565b90558680612567565b61267490613723565b9055868061254a565b600401805460ff191660071790557fcbaa929044d8cd35693529ba03a7800560ad8709121bf60076b0956a1e0d84d991612608916060906126bd86613b00565b6125f5565b905086015189612500565b60008481528781209250601f198416905b8882821061271a5750509083600194939210612701575b5050811b019055612514565b88015160001960f88460031b161c1916905589806126f5565b600184958293958d0151815501940192016126de565b61275a908360005286600020601f840160051c8101918885106114c957601f0160051c0190613658565b886124ea565b6044906040519063e2517d3f60e01b82523360048301526024820152fd5b346103d65760403660031901126103d6576127976133e9565b6024359060ff82168092036103d6576127ae613a60565b6127bb60028311156136a4565b6001600160a01b03166000908152601260205260409020805460ff19169091179055005b346103d65760203660031901126103d65760043560005260006020526020600160406000200154604051908152f35b346103d65760203660031901126103d6576001600160a01b0361282f6133e9565b166000526012602052602060ff60406000205416604051908152f35b60c03660031901126103d65761285f6133e9565b604435906064356001600160401b0381116103d6576128829036906004016133a2565b906084356001600160401b0381116103d6576128a29036906004016133a2565b9060a4356001600160401b0381116103d6576128c290369060040161342c565b916128cb613ae2565b846001600160a01b0383161561163f576001600160a01b03831633146115ee57602435156115a9576128fc33613cc7565b9180518015159081612c4c575b50612bbe575b5050612920612710916024356135ec565b049161292e836024356135ff565b34612bad575b5060035493612942856135dd565b60039081556000868152600d6020526040902080546001600160a01b0319908116331782556001820180549091166001600160a01b038716179055602435600282015590810185905560048101805460ff19169055426005820155958015612ba4575b60078701558051906001600160401b0382116113e45781906129ca60098901546131fc565b601f8111612b6f575b50602090601f8311600114612afd57600092612af2575b50508160011b916000199060031b1c19161760098601555b46600a860155600a5460243510801590612ae8575b612a3657506020935033600052600e845261125883604060002061366f565b805180156113fa57600b86016001600160401b0382116113e457600160401b82116113e4578054828255808310612aca575b506020830190600052602060002060005b838110612aad5750505050516001811160001461139b5760011c936001850180951161138557600c6020959101558461123d565b82516001600160a01b031681830155602090920191600101612a79565b612ae290826000528360206000209182019101613658565b87612a68565b5080511515612a17565b0151905087806129ea565b9250600988016000526020600020906000935b601f1984168510612b54576001945083601f19811610612b3b575b505050811b016009860155612a02565b015160001960f88460031b161c19169055878080612b2b565b81810151835560209485019460019093019290910190612b10565b612b9e9060098a016000526020600020601f850160051c810191602086106114c957601f0160051c0190613658565b886129d3565b506005546129a5565b612bb890341461360c565b85612934565b6020612bd791816040519382858094519384920161333f565b8101600c8152030190209060405191612bef83613236565b805492838152608060ff6004600185015494856020860152826002820154161515604086015260038101546060860152015416151591015280612c44575b5015612c3a575b8061290f565b9450612920612c34565b925087612c2d565b60ff9150600490602060405182612c67829483858a0161333f565b8101600c81520301902001541688612909565b346103d65760203660031901126103d657600435612c96613a60565b6201518081101580612d17575b15612ce15760407f96e0f610d197acd2144db3bb338fe8cdc5544b8b21a40a14334068ac60e2717291600554908060055582519182526020820152a1005b60405162461bcd60e51b815260206004820152600e60248201526d496e76616c69642077696e646f7760901b6044820152606490fd5b5062278d00811115612ca3565b346103d6576020806003193601126103d65760043590612d42613ae2565b600390612d526003548410613599565b82600052600d8152604060002091600c830191825415612f4757600e8401913360005282825260ff60406000205416612f0f57600090600090600b8701908154925b838110612ed8575b50505015612e5f575b15612e1b5733600052526040600020600160ff19825416179055600d820190612dce82546135dd565b8092555411159081612deb575b50612de257005b61001990613b00565b60ff9150600401541660088110156103c05760018114908115612e10575b5082612ddb565b600291501482612e09565b6064906040519062461bcd60e51b82526004820152601a60248201527f4e6f7420616e20617574686f72697a656420617070726f7665720000000000006044820152fd5b508354336001600160a01b0391821614908115612ec8575b5015612e84576001612da5565b6064906040519062461bcd60e51b82526004820152601960248201527f4e6f7420617574686f72697a656420746f20617070726f7665000000000000006044820152fd5b9050600185015416331486612e77565b612ee28184613530565b905490831b1c6001600160a01b03163314612eff57600101612d94565b5050509050600190878080612d9c565b60405162461bcd60e51b815260048101839052601060248201526f105b1c9958591e48185c1c1c9bdd995960821b6044820152606490fd5b6064906040519062461bcd60e51b8252600482015260166024820152754e6f742061206d756c74692d73696720657363726f7760501b6044820152fd5b346103d65760a03660031901126103d6576004356001600160401b0381116103d657612fb49036906004016133a2565b604435606435908115158092036103d657612fcd613a60565b82511561307f576100199281612fe96103e8600494111561355e565b61306360405194612ff986613236565b60243586526020860192835260408601908152606086019260843584526130376020608089019660018852816040519382858094519384920161333f565b8101600c81520301902096518755516001870155511515600286019060ff801983541691151516179055565b51600384015551151591019060ff801983541691151516179055565b60405162461bcd60e51b815260206004820152601460248201527315195b5c1b185d19481251081c995c5d5a5c995960621b6044820152606490fd5b346103d65760203660031901126103d65760043563ffffffff60e01b81168091036103d657602090637965db0b60e01b8114908115613100575b506040519015158152f35b6301ffc9a760e01b149050826130f5565b346103d65760203660031901126103d657600435600052600d6020526040600020600160a01b60019003808254169060018301541690600283015492600381015490600481015460ff169260058201549060068301546007840154600885015460ff1691600986016131829061328d565b94600a87015498600c88015497600d0154986040519c8d9c8d6101a09981526020015260408d015260608c015260808b016131bc91613332565b60a08a015260c089015260e088015215156101008701528061012087015285016131e591613362565b926101408501526101608401526101808301520390f35b90600182811c9216801561322c575b602083101461321657565b634e487b7160e01b600052602260045260246000fd5b91607f169161320b565b60a081019081106001600160401b038211176113e457604052565b602081019081106001600160401b038211176113e457604052565b90601f801991011681019081106001600160401b038211176113e457604052565b906040519182600082546132a0816131fc565b9081845260209460019160018116908160001461331057506001146132d1575b5050506132cf9250038361326c565b565b600090815285812095935091905b8183106132f85750506132cf93508201013880806132c0565b855488840185015294850194879450918301916132df565b925050506132cf94925060ff191682840152151560051b8201013880806132c0565b9060088210156103c05752565b60005b8381106133525750506000910152565b8181015183820152602001613342565b9060209161337b8151809281855285808601910161333f565b601f01601f1916010190565b6001600160401b0381116113e457601f01601f191660200190565b81601f820112156103d6578035906133b982613387565b926133c7604051948561326c565b828452602083830101116103d657816000926020809301838601378301015290565b600435906001600160a01b03821682036103d657565b602435906001600160a01b03821682036103d657565b6001600160401b0381116113e45760051b60200190565b9080601f830112156103d657602090823561344681613415565b93613454604051958661326c565b81855260208086019260051b8201019283116103d657602001905b82821061347d575050505090565b81356001600160a01b03811681036103d657815290830190830161346f565b9080601f830112156103d65760209082356134b681613415565b936134c4604051958661326c565b81855260208086019260051b8201019283116103d657602001905b8282106134ed575050505090565b813581529083019083016134df565b90815180825260208080930193019160005b82811061351c575050505090565b83518552938101939281019260010161350e565b80548210156135485760005260206000200190600090565b634e487b7160e01b600052603260045260246000fd5b1561356557565b60405162461bcd60e51b815260206004820152600c60248201526b08ccaca40e8dede40d0d2ced60a31b6044820152606490fd5b156135a057565b60405162461bcd60e51b8152602060048201526015602482015274115cd8dc9bddc8191bd95cc81b9bdd08195e1a5cdd605a1b6044820152606490fd5b60001981146113855760010190565b8181029291811591840414171561138557565b9190820180921161138557565b1561361357565b60405162461bcd60e51b815260206004820152601860248201527f496e636f7272656374207061796d656e7420616d6f756e7400000000000000006044820152606490fd5b818110613663575050565b60008155600101613658565b8054600160401b8110156113e45761368c91600182018155613530565b819291549060031b91821b91600019901b1916179055565b156136ab57565b60405162461bcd60e51b815260206004820152600c60248201526b24b73b30b634b2103a34b2b960a11b6044820152606490fd5b156136e657565b60405162461bcd60e51b8152602060048201526015602482015274496e76616c696420657363726f772073746174757360581b6044820152606490fd5b8015611385576000190190565b3d1561375b573d9061374182613387565b9161374f604051938461326c565b82523d6000602084013e565b606090565b1561376757565b60405162461bcd60e51b8152602060048201526016602482015275082e4e4c2f240d8cadccee8d0e640dad2e6dac2e8c6d60531b6044820152606490fd5b906137af82613415565b6137bc604051918261326c565b82815280926137cd601f1991613415565b0190602036910137565b80518210156135485760209160051b010190565b156137f257565b60405162461bcd60e51b815260206004820152601c60248201527f4f6e6c7920657363726f7720706172746965732063616e2063616c6c000000006044820152606490fd5b1561383e57565b60405162461bcd60e51b815260206004820152601360248201527213db9b1e48189d5e595c8818d85b8818d85b1b606a1b6044820152606490fd5b600092600092600354935b8481106139b657508461389782856135ff565b11156139b0575081840384811161138557935b80831015613992576138bb856137a5565b9060009260009660005b87811080613989575b1561397e5780600052600d8060205260ff6040908060048360002001541691600892838110156103c057600114938415613957575b5050505061391a575b613915906135dd565b6138c5565b9486811015613938575b613930613915916135dd565b95905061390c565b9761393061394e828861081c613915958a6137d7565b99915050613924565b60049293945085600052602052600020015416908110156103c05760021438808080613903565b505093509350935050565b508189106138ce565b93509150506040516139a381613251565b6000815260003681379190565b936138aa565b80600052600d60209080825260ff60049060408183826000200154169360089485811015613a4b57600114958615613a10575b5050505050506139fc575b600101613884565b94613a086001916135dd565b9590506139f4565b60008881529190522082015416925090821015613a3657506002143880808080806139e9565b602190634e487b7160e01b6000525260246000fd5b602185634e487b7160e01b6000525260246000fd5b3360009081527f7d7ffb7a348e1c6a02869081a26547b49160dd3df72d1d75a570eb9b698292ec60205260409020547fa49807205ce4d355092ef5a8a18f56e8913cf4a201fbe287825b095693c217759060ff16156127605750565b80600052600060205260406000203360005260205260ff60406000205416156127605750565b60ff60025416613aee57565b60405163d93c066560e01b8152600490fd5b6000908082526020600d81526040808420916004830160ff1990600782825416179055600884019081549060ff82161580613cba575b613c3c575b5050506001830160018060a01b039081815416968080808060028a019b8c54905af1613b65613730565b5015613bff578286949286600393606098967f8e8ac7b23f8e5ccc2b733bb2e48037ab7aadc18ff88ba81ff61042ab6e1ee6929a54168152600f8652818120805480613bed575b5050838354168152600f865220805480613bdb575b5050541697549301549082519384528301524290820152a3565b613be490613723565b90553880613bc1565b613bf690613723565b90553880613bac565b845162461bcd60e51b815260048101859052601660248201527514d95b1b195c881d1c985b9cd9995c8819985a5b195960521b6044820152606490fd5b600191161790558480808060038701613c5881546007546135ff565b6007556006549054906001600160a01b03165af1613c74613730565b5015613c8257388080613b3b565b606491519062461bcd60e51b825260048201526013602482015272119959481d1c985b9cd9995c8819985a5b1959606a1b6044820152fd5b5060038601541515613b36565b6001600160a01b031660009081526012602052604090205460ff1660028114613cfd57600114613cf75760045490565b60085490565b5060095490565b80600052600d6020526040600020907fbc6351b0e2a6a3f646e25885e97f2d7aef98ed917cad825bbcbc26d30bd1f0fb6040600284015493613d54613d4d6003830154876135ff565b341461360c565b60048101805460ff1916600117905542600682018190559054825195865260208601919091526001600160a01b031693a3565b600260015414613d98576002600155565b604051633ee5aeb560e01b8152600490fd5b9060009180835282602052604083209160018060a01b03169182845260205260ff60408420541615600014613e2357808352826020526040832082845260205260408320600160ff198254161790557f2f8788117e7eff1d82e926ec794901d17c78024a50270940304540a733656f0d339380a4600190565b505090565b9060009180835282602052604083209160018060a01b03169182845260205260ff604084205416600014613e235780835282602052604083208284526020526040832060ff1981541690557ff6391f5c32d9c69d2a47ea670b442974b53935d1edc7fd64eb21e047a839171b339380a460019056fea26469706673582212209f890ec1ea25e9ab1b31c5bf68a0fc005066cec830abe8dc88b3fa58de79d2a764736f6c634300081900332f8788117e7eff1d82e926ec794901d17c78024a50270940304540a733656f0d",
    "linkReferences": {}
  },
  "methodIdentifiers": {
    "ADMIN_ROLE()": "75b238fc",
    "ARBITRATOR_ROLE()": "9cea0787",
    "BASIS_POINTS()": "e1f1c4a7",
    "DEFAULT_ADMIN_ROLE()": "a217fddf",
    "approveEscrow(uint256)": "03fce7ef",
    "autoRelease(uint256)": "459b860e",
    "baseFeePercentage()": "8375bb39",
    "batchCreateEscrows(address[],uint256[],uint256[],string[])": "39f5687e",
    "batchSetUserSubscriptionTiers(address[],uint8[])": "9b71b964",
    "calculateFee(uint256)": "99a5d747",
    "cancelEscrow(uint256)": "e0182436",
    "confirmDelivery(uint256)": "fd84cb97",
    "createEscrow(address,uint256,uint256,string)": "683f31d3",
    "createEscrowWithTemplate(address,uint256,uint256,string,string,address[])": "0e681582",
    "defaultApprovalsRequired()": "344f8ead",
    "defaultDisputeWindow()": "4937a943",
    "disputeReasons(uint256)": "2eb52425",
    "enterpriseTierFeePercentage()": "7627215c",
    "escrows(uint256)": "012f52ee",
    "feeRecipient()": "46904840",
    "fundEscrow(uint256)": "c9c31af5",
    "getActiveEscrows(uint256,uint256)": "f877eb7b",
    "getAvailableFees()": "40806f7c",
    "getDisputeDetails(uint256)": "ea89735d",
    "getDisputedEscrows()": "d59553f3",
    "getEscrowDetails(uint256)": "b996ec2a",
    "getEscrowStats()": "acff2b09",
    "getRoleAdmin(bytes32)": "248a9ca3",
    "getUserEscrows(address)": "5ccea85e",
    "grantRole(bytes32,address)": "2f2ff15d",
    "hasRole(bytes32,address)": "91d14854",
    "lastBatchOperation(address)": "67b792e6",
    "markDelivered(uint256)": "eb826a5f",
    "multiSigThreshold()": "4badfeb2",
    "nextEscrowId()": "89cb29dd",
    "pause()": "8456cb59",
    "paused()": "5c975abb",
    "proTierFeePercentage()": "a9c73ddd",
    "raiseDispute(uint256,string)": "5aef573c",
    "renounceRole(bytes32,address)": "36568abe",
    "resolutionDetails(uint256)": "61b89558",
    "resolveDispute(uint256,bool,string)": "2840662d",
    "revokeRole(bytes32,address)": "d547741f",
    "setEscrowTemplate(string,uint256,uint256,bool,uint256)": "03e88033",
    "setUserSubscriptionTier(address,uint8)": "2682ff42",
    "supportsInterface(bytes4)": "01ffc9a7",
    "templates(string)": "b22beeda",
    "totalFeesCollected()": "60c6d8ae",
    "unpause()": "3f4ba83a",
    "updateDefaultDisputeWindow(uint256)": "0707950d",
    "updateFeePercentage(uint256)": "6cad3fb0",
    "updateFeeRecipient(address)": "f160d369",
    "updateFeeTiers(uint256,uint256,uint256)": "b0eacf78",
    "userActiveEscrowCount(address)": "6f346d8c",
    "userEscrows(address,uint256)": "7f944dd0",
    "userSubscriptionTier(address)": "16b305ee",
    "withdrawFees()": "476343ee"
  },
  "id": 48
}