{
  "abi": [
    {
      "type": "constructor",
      "inputs": [
        {
          "name": "admin",
          "type": "address",
          "internalType": "address"
        },
        {
          "name": "priceWeiPro",
          "type": "uint256",
          "internalType": "uint256"
        },
        {
          "name": "priceWeiEnterprise",
          "type": "uint256",
          "internalType": "uint256"
        }
      ],
      "stateMutability": "nonpayable"
    },
    {
      "type": "function",
      "name": "ADMIN_ROLE",
      "inputs": [],
      "outputs": [
        {
          "name": "",
          "type": "bytes32",
          "internalType": "bytes32"
        }
      ],
      "stateMutability": "view"
    },
    {
      "type": "function",
      "name": "DEFAULT_ADMIN_ROLE",
      "inputs": [],
      "outputs": [
        {
          "name": "",
          "type": "bytes32",
          "internalType": "bytes32"
        }
      ],
      "stateMutability": "view"
    },
    {
      "type": "function",
      "name": "PERIOD",
      "inputs": [],
      "outputs": [
        {
          "name": "",
          "type": "uint256",
          "internalType": "uint256"
        }
      ],
      "stateMutability": "view"
    },
    {
      "type": "function",
      "name": "createPlan",
      "inputs": [
        {
          "name": "planKey",
          "type": "uint8",
          "internalType": "uint8"
        },
        {
          "name": "name",
          "type": "string",
          "internalType": "string"
        },
        {
          "name": "displayName",
          "type": "string",
          "internalType": "string"
        },
        {
          "name": "description",
          "type": "string",
          "internalType": "string"
        },
        {
          "name": "priceWei",
          "type": "uint256",
          "internalType": "uint256"
        },
        {
          "name": "maxMembers",
          "type": "uint256",
          "internalType": "uint256"
        },
        {
          "name": "features",
          "type": "string[]",
          "internalType": "string[]"
        },
        {
          "name": "isActive",
          "type": "bool",
          "internalType": "bool"
        },
        {
          "name": "sortOrder",
          "type": "uint256",
          "internalType": "uint256"
        },
        {
          "name": "isTeamPlan",
          "type": "bool",
          "internalType": "bool"
        }
      ],
      "outputs": [],
      "stateMutability": "nonpayable"
    },
    {
      "type": "function",
      "name": "deletePlan",
      "inputs": [
        {
          "name": "planKey",
          "type": "uint8",
          "internalType": "uint8"
        }
      ],
      "outputs": [],
      "stateMutability": "nonpayable"
    },
    {
      "type": "function",
      "name": "earningRecords",
      "inputs": [
        {
          "name": "",
          "type": "uint256",
          "internalType": "uint256"
        }
      ],
      "outputs": [
        {
          "name": "payer",
          "type": "address",
          "internalType": "address"
        },
        {
          "name": "team",
          "type": "address",
          "internalType": "address"
        },
        {
          "name": "planKey",
          "type": "uint8",
          "internalType": "uint8"
        },
        {
          "name": "amount",
          "type": "uint256",
          "internalType": "uint256"
        },
        {
          "name": "token",
          "type": "address",
          "internalType": "address"
        },
        {
          "name": "timestamp",
          "type": "uint256",
          "internalType": "uint256"
        }
      ],
      "stateMutability": "view"
    },
    {
      "type": "function",
      "name": "getAllActivePlans",
      "inputs": [],
      "outputs": [
        {
          "name": "",
          "type": "tuple[]",
          "internalType": "struct SubscriptionManager.Plan[]",
          "components": [
            {
              "name": "planKey",
              "type": "uint8",
              "internalType": "uint8"
            },
            {
              "name": "name",
              "type": "string",
              "internalType": "string"
            },
            {
              "name": "displayName",
              "type": "string",
              "internalType": "string"
            },
            {
              "name": "description",
              "type": "string",
              "internalType": "string"
            },
            {
              "name": "priceWei",
              "type": "uint256",
              "internalType": "uint256"
            },
            {
              "name": "maxMembers",
              "type": "uint256",
              "internalType": "uint256"
            },
            {
              "name": "features",
              "type": "string[]",
              "internalType": "string[]"
            },
            {
              "name": "isActive",
              "type": "bool",
              "internalType": "bool"
            },
            {
              "name": "sortOrder",
              "type": "uint256",
              "internalType": "uint256"
            },
            {
              "name": "isTeamPlan",
              "type": "bool",
              "internalType": "bool"
            }
          ]
        }
      ],
      "stateMutability": "view"
    },
    {
      "type": "function",
      "name": "getAllPlanKeys",
      "inputs": [],
      "outputs": [
        {
          "name": "",
          "type": "uint8[]",
          "internalType": "uint8[]"
        }
      ],
      "stateMutability": "view"
    },
    {
      "type": "function",
      "name": "getAllPlans",
      "inputs": [],
      "outputs": [
        {
          "name": "",
          "type": "tuple[]",
          "internalType": "struct SubscriptionManager.Plan[]",
          "components": [
            {
              "name": "planKey",
              "type": "uint8",
              "internalType": "uint8"
            },
            {
              "name": "name",
              "type": "string",
              "internalType": "string"
            },
            {
              "name": "displayName",
              "type": "string",
              "internalType": "string"
            },
            {
              "name": "description",
              "type": "string",
              "internalType": "string"
            },
            {
              "name": "priceWei",
              "type": "uint256",
              "internalType": "uint256"
            },
            {
              "name": "maxMembers",
              "type": "uint256",
              "internalType": "uint256"
            },
            {
              "name": "features",
              "type": "string[]",
              "internalType": "string[]"
            },
            {
              "name": "isActive",
              "type": "bool",
              "internalType": "bool"
            },
            {
              "name": "sortOrder",
              "type": "uint256",
              "internalType": "uint256"
            },
            {
              "name": "isTeamPlan",
              "type": "bool",
              "internalType": "bool"
            }
          ]
        }
      ],
      "stateMutability": "view"
    },
    {
      "type": "function",
      "name": "getAvailableEarnings",
      "inputs": [],
      "outputs": [
        {
          "name": "",
          "type": "uint256",
          "internalType": "uint256"
        }
      ],
      "stateMutability": "view"
    },
    {
      "type": "function",
      "name": "getAvailableTokenEarnings",
      "inputs": [
        {
          "name": "token",
          "type": "address",
          "internalType": "address"
        }
      ],
      "outputs": [
        {
          "name": "",
          "type": "uint256",
          "internalType": "uint256"
        }
      ],
      "stateMutability": "view"
    },
    {
      "type": "function",
      "name": "getEarningRecord",
      "inputs": [
        {
          "name": "index",
          "type": "uint256",
          "internalType": "uint256"
        }
      ],
      "outputs": [
        {
          "name": "",
          "type": "tuple",
          "internalType": "struct SubscriptionManager.EarningRecord",
          "components": [
            {
              "name": "payer",
              "type": "address",
              "internalType": "address"
            },
            {
              "name": "team",
              "type": "address",
              "internalType": "address"
            },
            {
              "name": "planKey",
              "type": "uint8",
              "internalType": "uint8"
            },
            {
              "name": "amount",
              "type": "uint256",
              "internalType": "uint256"
            },
            {
              "name": "token",
              "type": "address",
              "internalType": "address"
            },
            {
              "name": "timestamp",
              "type": "uint256",
              "internalType": "uint256"
            }
          ]
        }
      ],
      "stateMutability": "view"
    },
    {
      "type": "function",
      "name": "getEarningRecords",
      "inputs": [
        {
          "name": "startIndex",
          "type": "uint256",
          "internalType": "uint256"
        },
        {
          "name": "endIndex",
          "type": "uint256",
          "internalType": "uint256"
        }
      ],
      "outputs": [
        {
          "name": "",
          "type": "tuple[]",
          "internalType": "struct SubscriptionManager.EarningRecord[]",
          "components": [
            {
              "name": "payer",
              "type": "address",
              "internalType": "address"
            },
            {
              "name": "team",
              "type": "address",
              "internalType": "address"
            },
            {
              "name": "planKey",
              "type": "uint8",
              "internalType": "uint8"
            },
            {
              "name": "amount",
              "type": "uint256",
              "internalType": "uint256"
            },
            {
              "name": "token",
              "type": "address",
              "internalType": "address"
            },
            {
              "name": "timestamp",
              "type": "uint256",
              "internalType": "uint256"
            }
          ]
        }
      ],
      "stateMutability": "view"
    },
    {
      "type": "function",
      "name": "getEarningRecordsCount",
      "inputs": [],
      "outputs": [
        {
          "name": "",
          "type": "uint256",
          "internalType": "uint256"
        }
      ],
      "stateMutability": "view"
    },
    {
      "type": "function",
      "name": "getEarningsSummary",
      "inputs": [],
      "outputs": [
        {
          "name": "totalNativeEarnings",
          "type": "uint256",
          "internalType": "uint256"
        },
        {
          "name": "totalNativeWithdrawn",
          "type": "uint256",
          "internalType": "uint256"
        },
        {
          "name": "availableNativeEarnings",
          "type": "uint256",
          "internalType": "uint256"
        },
        {
          "name": "recordsCount",
          "type": "uint256",
          "internalType": "uint256"
        }
      ],
      "stateMutability": "view"
    },
    {
      "type": "function",
      "name": "getPlan",
      "inputs": [
        {
          "name": "planKey",
          "type": "uint8",
          "internalType": "uint8"
        }
      ],
      "outputs": [
        {
          "name": "",
          "type": "tuple",
          "internalType": "struct SubscriptionManager.Plan",
          "components": [
            {
              "name": "planKey",
              "type": "uint8",
              "internalType": "uint8"
            },
            {
              "name": "name",
              "type": "string",
              "internalType": "string"
            },
            {
              "name": "displayName",
              "type": "string",
              "internalType": "string"
            },
            {
              "name": "description",
              "type": "string",
              "internalType": "string"
            },
            {
              "name": "priceWei",
              "type": "uint256",
              "internalType": "uint256"
            },
            {
              "name": "maxMembers",
              "type": "uint256",
              "internalType": "uint256"
            },
            {
              "name": "features",
              "type": "string[]",
              "internalType": "string[]"
            },
            {
              "name": "isActive",
              "type": "bool",
              "internalType": "bool"
            },
            {
              "name": "sortOrder",
              "type": "uint256",
              "internalType": "uint256"
            },
            {
              "name": "isTeamPlan",
              "type": "bool",
              "internalType": "bool"
            }
          ]
        }
      ],
      "stateMutability": "view"
    },
    {
      "type": "function",
      "name": "getPlanFeatures",
      "inputs": [
        {
          "name": "planKey",
          "type": "uint8",
          "internalType": "uint8"
        }
      ],
      "outputs": [
        {
          "name": "",
          "type": "string[]",
          "internalType": "string[]"
        }
      ],
      "stateMutability": "view"
    },
    {
      "type": "function",
      "name": "getRoleAdmin",
      "inputs": [
        {
          "name": "role",
          "type": "bytes32",
          "internalType": "bytes32"
        }
      ],
      "outputs": [
        {
          "name": "",
          "type": "bytes32",
          "internalType": "bytes32"
        }
      ],
      "stateMutability": "view"
    },
    {
      "type": "function",
      "name": "grantRole",
      "inputs": [
        {
          "name": "role",
          "type": "bytes32",
          "internalType": "bytes32"
        },
        {
          "name": "account",
          "type": "address",
          "internalType": "address"
        }
      ],
      "outputs": [],
      "stateMutability": "nonpayable"
    },
    {
      "type": "function",
      "name": "hasRole",
      "inputs": [
        {
          "name": "role",
          "type": "bytes32",
          "internalType": "bytes32"
        },
        {
          "name": "account",
          "type": "address",
          "internalType": "address"
        }
      ],
      "outputs": [
        {
          "name": "",
          "type": "bool",
          "internalType": "bool"
        }
      ],
      "stateMutability": "view"
    },
    {
      "type": "function",
      "name": "paidUntil",
      "inputs": [
        {
          "name": "team",
          "type": "address",
          "internalType": "address"
        }
      ],
      "outputs": [
        {
          "name": "",
          "type": "uint256",
          "internalType": "uint256"
        }
      ],
      "stateMutability": "view"
    },
    {
      "type": "function",
      "name": "paySubscription",
      "inputs": [
        {
          "name": "team",
          "type": "address",
          "internalType": "address"
        },
        {
          "name": "planKey",
          "type": "uint8",
          "internalType": "uint8"
        }
      ],
      "outputs": [],
      "stateMutability": "payable"
    },
    {
      "type": "function",
      "name": "paySubscriptionWithToken",
      "inputs": [
        {
          "name": "team",
          "type": "address",
          "internalType": "address"
        },
        {
          "name": "planKey",
          "type": "uint8",
          "internalType": "uint8"
        },
        {
          "name": "token",
          "type": "address",
          "internalType": "address"
        },
        {
          "name": "amount",
          "type": "uint256",
          "internalType": "uint256"
        }
      ],
      "outputs": [],
      "stateMutability": "nonpayable"
    },
    {
      "type": "function",
      "name": "planExists",
      "inputs": [
        {
          "name": "",
          "type": "uint8",
          "internalType": "uint8"
        }
      ],
      "outputs": [
        {
          "name": "",
          "type": "bool",
          "internalType": "bool"
        }
      ],
      "stateMutability": "view"
    },
    {
      "type": "function",
      "name": "planExistsCheck",
      "inputs": [
        {
          "name": "planKey",
          "type": "uint8",
          "internalType": "uint8"
        }
      ],
      "outputs": [
        {
          "name": "",
          "type": "bool",
          "internalType": "bool"
        }
      ],
      "stateMutability": "view"
    },
    {
      "type": "function",
      "name": "planKeys",
      "inputs": [
        {
          "name": "",
          "type": "uint256",
          "internalType": "uint256"
        }
      ],
      "outputs": [
        {
          "name": "",
          "type": "uint8",
          "internalType": "uint8"
        }
      ],
      "stateMutability": "view"
    },
    {
      "type": "function",
      "name": "planPriceWei",
      "inputs": [
        {
          "name": "",
          "type": "uint8",
          "internalType": "uint8"
        }
      ],
      "outputs": [
        {
          "name": "",
          "type": "uint256",
          "internalType": "uint256"
        }
      ],
      "stateMutability": "view"
    },
    {
      "type": "function",
      "name": "plans",
      "inputs": [
        {
          "name": "",
          "type": "uint8",
          "internalType": "uint8"
        }
      ],
      "outputs": [
        {
          "name": "planKey",
          "type": "uint8",
          "internalType": "uint8"
        },
        {
          "name": "name",
          "type": "string",
          "internalType": "string"
        },
        {
          "name": "displayName",
          "type": "string",
          "internalType": "string"
        },
        {
          "name": "description",
          "type": "string",
          "internalType": "string"
        },
        {
          "name": "priceWei",
          "type": "uint256",
          "internalType": "uint256"
        },
        {
          "name": "maxMembers",
          "type": "uint256",
          "internalType": "uint256"
        },
        {
          "name": "isActive",
          "type": "bool",
          "internalType": "bool"
        },
        {
          "name": "sortOrder",
          "type": "uint256",
          "internalType": "uint256"
        },
        {
          "name": "isTeamPlan",
          "type": "bool",
          "internalType": "bool"
        }
      ],
      "stateMutability": "view"
    },
    {
      "type": "function",
      "name": "renounceRole",
      "inputs": [
        {
          "name": "role",
          "type": "bytes32",
          "internalType": "bytes32"
        },
        {
          "name": "callerConfirmation",
          "type": "address",
          "internalType": "address"
        }
      ],
      "outputs": [],
      "stateMutability": "nonpayable"
    },
    {
      "type": "function",
      "name": "revokeRole",
      "inputs": [
        {
          "name": "role",
          "type": "bytes32",
          "internalType": "bytes32"
        },
        {
          "name": "account",
          "type": "address",
          "internalType": "address"
        }
      ],
      "outputs": [],
      "stateMutability": "nonpayable"
    },
    {
      "type": "function",
      "name": "setPlanPrice",
      "inputs": [
        {
          "name": "planKey",
          "type": "uint8",
          "internalType": "uint8"
        },
        {
          "name": "newPriceWei",
          "type": "uint256",
          "internalType": "uint256"
        }
      ],
      "outputs": [],
      "stateMutability": "nonpayable"
    },
    {
      "type": "function",
      "name": "setSupportedToken",
      "inputs": [
        {
          "name": "token",
          "type": "address",
          "internalType": "address"
        },
        {
          "name": "supported",
          "type": "bool",
          "internalType": "bool"
        }
      ],
      "outputs": [],
      "stateMutability": "nonpayable"
    },
    {
      "type": "function",
      "name": "supportedTokens",
      "inputs": [
        {
          "name": "",
          "type": "address",
          "internalType": "address"
        }
      ],
      "outputs": [
        {
          "name": "",
          "type": "bool",
          "internalType": "bool"
        }
      ],
      "stateMutability": "view"
    },
    {
      "type": "function",
      "name": "supportsInterface",
      "inputs": [
        {
          "name": "id",
          "type": "bytes4",
          "internalType": "bytes4"
        }
      ],
      "outputs": [
        {
          "name": "",
          "type": "bool",
          "internalType": "bool"
        }
      ],
      "stateMutability": "view"
    },
    {
      "type": "function",
      "name": "tokenEarnings",
      "inputs": [
        {
          "name": "",
          "type": "address",
          "internalType": "address"
        }
      ],
      "outputs": [
        {
          "name": "",
          "type": "uint256",
          "internalType": "uint256"
        }
      ],
      "stateMutability": "view"
    },
    {
      "type": "function",
      "name": "tokenWithdrawn",
      "inputs": [
        {
          "name": "",
          "type": "address",
          "internalType": "address"
        }
      ],
      "outputs": [
        {
          "name": "",
          "type": "uint256",
          "internalType": "uint256"
        }
      ],
      "stateMutability": "view"
    },
    {
      "type": "function",
      "name": "totalEarnings",
      "inputs": [],
      "outputs": [
        {
          "name": "",
          "type": "uint256",
          "internalType": "uint256"
        }
      ],
      "stateMutability": "view"
    },
    {
      "type": "function",
      "name": "totalWithdrawn",
      "inputs": [],
      "outputs": [
        {
          "name": "",
          "type": "uint256",
          "internalType": "uint256"
        }
      ],
      "stateMutability": "view"
    },
    {
      "type": "function",
      "name": "updatePlan",
      "inputs": [
        {
          "name": "planKey",
          "type": "uint8",
          "internalType": "uint8"
        },
        {
          "name": "name",
          "type": "string",
          "internalType": "string"
        },
        {
          "name": "displayName",
          "type": "string",
          "internalType": "string"
        },
        {
          "name": "description",
          "type": "string",
          "internalType": "string"
        },
        {
          "name": "priceWei",
          "type": "uint256",
          "internalType": "uint256"
        },
        {
          "name": "maxMembers",
          "type": "uint256",
          "internalType": "uint256"
        },
        {
          "name": "features",
          "type": "string[]",
          "internalType": "string[]"
        },
        {
          "name": "isActive",
          "type": "bool",
          "internalType": "bool"
        },
        {
          "name": "sortOrder",
          "type": "uint256",
          "internalType": "uint256"
        },
        {
          "name": "isTeamPlan",
          "type": "bool",
          "internalType": "bool"
        }
      ],
      "outputs": [],
      "stateMutability": "nonpayable"
    },
    {
      "type": "function",
      "name": "withdrawEarnings",
      "inputs": [
        {
          "name": "to",
          "type": "address",
          "internalType": "address payable"
        },
        {
          "name": "amount",
          "type": "uint256",
          "internalType": "uint256"
        }
      ],
      "outputs": [],
      "stateMutability": "nonpayable"
    },
    {
      "type": "function",
      "name": "withdrawTokenEarnings",
      "inputs": [
        {
          "name": "token",
          "type": "address",
          "internalType": "address"
        },
        {
          "name": "to",
          "type": "address",
          "internalType": "address"
        },
        {
          "name": "amount",
          "type": "uint256",
          "internalType": "uint256"
        }
      ],
      "outputs": [],
      "stateMutability": "nonpayable"
    },
    {
      "type": "event",
      "name": "EarningsWithdrawn",
      "inputs": [
        {
          "name": "to",
          "type": "address",
          "indexed": true,
          "internalType": "address"
        },
        {
          "name": "amount",
          "type": "uint256",
          "indexed": false,
          "internalType": "uint256"
        },
        {
          "name": "token",
          "type": "address",
          "indexed": true,
          "internalType": "address"
        }
      ],
      "anonymous": false
    },
    {
      "type": "event",
      "name": "PlanCreated",
      "inputs": [
        {
          "name": "planKey",
          "type": "uint8",
          "indexed": true,
          "internalType": "uint8"
        },
        {
          "name": "name",
          "type": "string",
          "indexed": false,
          "internalType": "string"
        },
        {
          "name": "priceWei",
          "type": "uint256",
          "indexed": false,
          "internalType": "uint256"
        }
      ],
      "anonymous": false
    },
    {
      "type": "event",
      "name": "PlanDeleted",
      "inputs": [
        {
          "name": "planKey",
          "type": "uint8",
          "indexed": true,
          "internalType": "uint8"
        }
      ],
      "anonymous": false
    },
    {
      "type": "event",
      "name": "PlanUpdated",
      "inputs": [
        {
          "name": "planKey",
          "type": "uint8",
          "indexed": true,
          "internalType": "uint8"
        },
        {
          "name": "name",
          "type": "string",
          "indexed": false,
          "internalType": "string"
        },
        {
          "name": "priceWei",
          "type": "uint256",
          "indexed": false,
          "internalType": "uint256"
        }
      ],
      "anonymous": false
    },
    {
      "type": "event",
      "name": "RoleAdminChanged",
      "inputs": [
        {
          "name": "role",
          "type": "bytes32",
          "indexed": true,
          "internalType": "bytes32"
        },
        {
          "name": "previousAdminRole",
          "type": "bytes32",
          "indexed": true,
          "internalType": "bytes32"
        },
        {
          "name": "newAdminRole",
          "type": "bytes32",
          "indexed": true,
          "internalType": "bytes32"
        }
      ],
      "anonymous": false
    },
    {
      "type": "event",
      "name": "RoleGranted",
      "inputs": [
        {
          "name": "role",
          "type": "bytes32",
          "indexed": true,
          "internalType": "bytes32"
        },
        {
          "name": "account",
          "type": "address",
          "indexed": true,
          "internalType": "address"
        },
        {
          "name": "sender",
          "type": "address",
          "indexed": true,
          "internalType": "address"
        }
      ],
      "anonymous": false
    },
    {
      "type": "event",
      "name": "RoleRevoked",
      "inputs": [
        {
          "name": "role",
          "type": "bytes32",
          "indexed": true,
          "internalType": "bytes32"
        },
        {
          "name": "account",
          "type": "address",
          "indexed": true,
          "internalType": "address"
        },
        {
          "name": "sender",
          "type": "address",
          "indexed": true,
          "internalType": "address"
        }
      ],
      "anonymous": false
    },
    {
      "type": "event",
      "name": "SubscriptionPaid",
      "inputs": [
        {
          "name": "team",
          "type": "address",
          "indexed": true,
          "internalType": "address"
        },
        {
          "name": "planKey",
          "type": "uint8",
          "indexed": true,
          "internalType": "uint8"
        },
        {
          "name": "paidUntil",
          "type": "uint256",
          "indexed": false,
          "internalType": "uint256"
        }
      ],
      "anonymous": false
    },
    {
      "type": "event",
      "name": "TokenSupportUpdated",
      "inputs": [
        {
          "name": "token",
          "type": "address",
          "indexed": true,
          "internalType": "address"
        },
        {
          "name": "supported",
          "type": "bool",
          "indexed": false,
          "internalType": "bool"
        }
      ],
      "anonymous": false
    },
    {
      "type": "error",
      "name": "AccessControlBadConfirmation",
      "inputs": []
    },
    {
      "type": "error",
      "name": "AccessControlUnauthorizedAccount",
      "inputs": [
        {
          "name": "account",
          "type": "address",
          "internalType": "address"
        },
        {
          "name": "neededRole",
          "type": "bytes32",
          "internalType": "bytes32"
        }
      ]
    },
    {
      "type": "error",
      "name": "ReentrancyGuardReentrantCall",
      "inputs": []
    }
  ],
  "bytecode": {
    "object": "0x6080346129a957601f61640438819003918201601f19168301916001600160401b038311848410176117a0578084926060946040528339810103126129a9578051906001600160a01b03821682036129a95761007260406020830151920151926001805561006c81612a0c565b50612a8a565b5060036020527fa15bc60c955c405d20d9149c709e2460f1c2d9a497496a7f46004d1772c3054c81905560026000527fc3a24b0501bd2c13a7e57f2db4369ec4c223447539fc0724a9d55ac4a06ebd4d829055604051608081016001600160401b038111828210176117a0576040526003815260005b6060811061299857506100f96129ce565b601481527f322e3525205032502074726164696e6720666565000000000000000000000000602082015261012c82612b6c565b5261013681612b6c565b5061013f6129ce565b601781527f426173696320657363726f772070726f74656374696f6e000000000000000000602082015261017282612b79565b5261017c81612b79565b506101856129ce565b601181527010dbdb5b5d5b9a5d1e481cdd5c1c1bdc9d607a1b60208201526101ac82612b89565b526101b681612b89565b506101bf6129ae565b90600082526101cc6129ce565b60048152636672656560e01b602082015260208301526101ea6129ce565b60048152634672656560e01b602082015260408301526102086129ce565b601b81527f5065726665637420666f722067657474696e67207374617274656400000000006020820152606083015260006080830152600360a083015260c0820152600160e08201526001610100820152600061012082015260008052600460205260406000209060ff81511660ff19835416178255602081015180519060018060401b0382116117a0576102a06001850154612bc9565b601f8111612963575b50602090601f83116001146128f1576102db92916000918361267e575b50508160011b916000199060031b1c19161790565b60018301555b60408101518051906001600160401b0382116117a0576103046002850154612bc9565b601f81116128bc575b50602090601f831160011461284a5761033e92916000918361267e5750508160011b916000199060031b1c19161790565b60028301555b60608101518051906001600160401b0382116117a0576103676003850154612bc9565b601f8111612815575b50602090601f83116001146127a3576103a192916000918361267e5750508160011b916000199060031b1c19161790565b60038301555b6080810151600483015560a0810151600583015560c08101518051906801000000000000000082116117a057600684015482600686015580831061272b575b5060200190600684016000526020600020916000905b8282106126105787876104508860096101208a61042e60e08201511515600786019060ff801983541691151516179055565b61010081015160088501550151151591019060ff801983541691151516179055565b600554680100000000000000008110156117a057600181018060055581101561178a57600581901c6000805160206163e483398151915201805460ff60039390931b60f8169290921b1990911690556000805260066020527f54cdd369e4e8a8515e52ca72ec816c2101831ad1f18bf44102ed171459c9b4f8805460ff191660011790556040516001600160401b0360a08201908111908211176117a05760a081016040526004815260005b608081106125ff575061050d6129ed565b602381527f322e3025205032502074726164696e6720666565202832302520646973636f756020820152626e742960e81b604082015261054c82612b6c565b5261055681612b6c565b5061055f6129ce565b601b81527f5072696f726974792064697370757465207265736f6c7574696f6e0000000000602082015261059282612b79565b5261059c81612b79565b506105a56129ce565b601881527f416476616e63656420657363726f77206665617475726573000000000000000060208201526105d882612b89565b526105e281612b89565b506105eb6129ce565b601081526f141c9a5bdc9a5d1e481cdd5c1c1bdc9d60821b602082015261061182612b99565b5261061b81612b99565b506106246129ae565b90600182526106316129ce565b600381526270726f60e81b6020820152602083015261064e6129ce565b600381526250726f60e81b6020820152604083015261066b6129ce565b6011815270466f722067726f77696e67207465616d7360781b60208201526060830152826080830152601960a083015260c0820152600160e0820152600261010082015260006101208201526001600052600460205260406000209060ff81511660ff19835416178255602081015180519060018060401b0382116117a0576106f76001850154612bc9565b601f81116125ca575b50602090601f831160011461255857610731929160009183611d055750508160011b916000199060031b1c19161790565b60018301555b60408101518051906001600160401b0382116117a05761075a6002850154612bc9565b601f8111612523575b50602090601f83116001146124b157610794929160009183611d055750508160011b916000199060031b1c19161790565b60028301555b60608101518051906001600160401b0382116117a0576107bd6003850154612bc9565b601f811161247c575b50602090601f831160011461240a576107f7929160009183611d055750508160011b916000199060031b1c19161790565b60038301555b6080810151600483015560a0810151600583015560c08101518051906801000000000000000082116117a0576006840154826006860155808310612392575b5060200190600684016000526020600020916000905b8282106122825787876108848860096101208a61042e60e08201511515600786019060ff801983541691151516179055565b600554680100000000000000008110156117a057600181018060055581101561178a57600581901c6000805160206163e483398151915201805460ff60039390931b60f81692831b191660019283901b179055600081905260066020527f3e5fec24aa4dc4e5aee2e025e51e1392c72a2500577559fae9665c6d52bd6a31805460ff19169091179055610915612b2a565b61091d6129ed565b602381527f312e3525205032502074726164696e6720666565202834302520646973636f756020820152626e742960e81b604082015261095c82612b6c565b5261096681612b6c565b5061096f6129ce565b601b81527f4150492061636365737320666f7220696e746567726174696f6e73000000000060208201526109a282612b79565b526109ac81612b79565b506109b56129ce565b601481527f32342f37207072656d69756d20737570706f727400000000000000000000000060208201526109e882612b89565b526109f281612b89565b506109fb6129ce565b601b81527f5072696f726974792064697370757465207265736f6c7574696f6e00000000006020820152610a2e82612b99565b52610a3881612b99565b50610a416129ce565b601e81527f437573746f6d20736d61727420636f6e747261637420666561747572657300006020820152610a7482612ba9565b52610a7e81612ba9565b50610a876129ae565b9060028252610a946129ce565b600a815269656e746572707269736560b01b60208201526020830152610ab86129ce565b600a815269456e746572707269736560b01b60208201526040830152610adc6129ce565b601781527f466f72206c61726765206f7267616e697a6174696f6e730000000000000000006020820152606083015283608083015260001960a083015260c0820152600160e0820152600361010082015260006101208201526002600052600460205260406000209060ff81511660ff19835416178255602081015180519060018060401b0382116117a057610b756001850154612bc9565b601f811161224d575b50602090601f83116001146121db57610baf929160009183611d055750508160011b916000199060031b1c19161790565b60018301555b60408101518051906001600160401b0382116117a057610bd86002850154612bc9565b601f81116121a6575b50602090601f831160011461213457610c12929160009183611d055750508160011b916000199060031b1c19161790565b60028301555b60608101518051906001600160401b0382116117a057610c3b6003850154612bc9565b601f81116120ff575b50602090601f831160011461208d57610c75929160009183611d055750508160011b916000199060031b1c19161790565b60038301555b6080810151600483015560a0810151600583015560c08101518051906801000000000000000082116117a0576006840154826006860155808310612015575b5060200190600684016000526020600020916000905b828210611f05578787610d028860096101208a61042e60e08201511515600786019060ff801983541691151516179055565b600554680100000000000000008110156117a057600181018060055581101561178a57600581901c6000805160206163e483398151915201805460ff60039390931b60f81692831b191660029283901b17905560005260066020527f8819ef417987f8ae7a81f42cdfb18815282fe989326fbff903d13cf0e03ace29805460ff19166001179055610d91612b2a565b610d996129ed565b602481527f322e3025205032502074726164696e672066656520666f7220616c6c206d656d6020820152636265727360e01b6040820152610dd982612b6c565b52610de381612b6c565b50610dec6129ce565b601881527f53686172656420657363726f77206d616e6167656d656e7400000000000000006020820152610e1f82612b79565b52610e2981612b79565b50610e326129ce565b601781527f5465616d2064697370757465207265736f6c7574696f6e0000000000000000006020820152610e6582612b89565b52610e6f81612b89565b50610e786129ce565b601481527f436f6e736f6c6964617465642062696c6c696e670000000000000000000000006020820152610eab82612b99565b52610eb581612b99565b50610ebe6129ce565b601681527f5465616d20616374697669747920747261636b696e67000000000000000000006020820152610ef182612ba9565b52610efb81612ba9565b5081600381020460031482151715611b4b57610f156129ae565b9060038252610f226129ce565b60088152677465616d5f70726f60c01b60208201526020830152610f446129ce565b60088152675465616d2050726f60c01b60208201526040830152610f666129ed565b602181527f50726f20666561747572657320666f7220796f757220656e74697265207465616020820152606d60f81b60408201526060830152600383026080830152601960a083015260c0820152600160e0820152600461010082015260016101208201526003600052600460205260406000209060ff81511660ff19835416178255602081015180519060018060401b0382116117a05761100b6001850154612bc9565b601f8111611ed0575b50602090601f8311600114611e5e57611045929160009183611d055750508160011b916000199060031b1c19161790565b60018301555b60408101518051906001600160401b0382116117a05761106e6002850154612bc9565b601f8111611e29575b50602090601f8311600114611db7576110a8929160009183611d055750508160011b916000199060031b1c19161790565b60028301555b60608101518051906001600160401b0382116117a0576110d16003850154612bc9565b601f8111611d82575b50602090601f8311600114611d105761110b929160009183611d055750508160011b916000199060031b1c19161790565b60038301555b6080810151600483015560a0810151600583015560c08101518051906801000000000000000082116117a0576006840154826006860155808310611c8d575b5060200190600684016000526020600020916000905b828210611b725787876111988860096101208a61042e60e08201511515600786019060ff801983541691151516179055565b60055490680100000000000000008210156117a057600182018060055582101561178a57600582901c6000805160206163e483398151915201805460ff600394851b60f81690811b199091169084901b17905560008290527f75f96ab15d697e93042dc45b5c896c4b27e89bb6eaf39475c5c371cb2513f7d2805460ff191660011790556020829052027fcbc4e5fb02c3d1de23a9f1e014b4d2ee5aeaea9505df5e855c9210bf472495af556040516001600160401b0360e08201908111908211176117a05760e081016040526006815260005b60c08110611b61575061127d6129ed565b602481527f312e3525205032502074726164696e672066656520666f7220616c6c206d656d6020820152636265727360e01b60408201526112bd82612b6c565b526112c781612b6c565b506112d06129ce565b601681527f556e6c696d69746564207465616d206d656d6265727300000000000000000000602082015261130382612b79565b5261130d81612b79565b506113166129ce565b600f81526e5465616d204150492061636365737360881b602082015261133b82612b89565b5261134581612b89565b5061134e6129ce565b601381527f57686974652d6c6162656c206f7074696f6e7300000000000000000000000000602082015261138182612b99565b5261138b81612b99565b506113946129ce565b601681527f446564696361746564207465616d20737570706f72740000000000000000000060208201526113c782612ba9565b526113d181612ba9565b506113da6129ce565b601a81527f437573746f6d20636f6e7472616374206465706c6f796d656e74000000000000602082015261140d82612bb9565b5261141781612bb9565b5081600381020460031482151715611b4b576114316129ae565b906004825261143e6129ce565b600f81526e7465616d5f656e746572707269736560881b602082015260208301526114676129ce565b600f81526e5465616d20456e746572707269736560881b602082015260408301526114906129ed565b602381527f456e746572707269736520666561747572657320666f72206c61726765207465602082015262616d7360e81b6040820152606083015260038302608083015260001960a083015260c0820152600160e0820152600561010082015260016101208201526004600052600460205260406000209060ff81511660ff19835416178255602081015192835160018060401b0381116117a0576115386001850154612bc9565b601f8111611b16575b506020601f8211600114611aa7578190611574939495966000926119545750508160011b916000199060031b1c19161790565b60018401555b604082015180519093906001600160401b0381116117a05761159f6002830154612bc9565b601f8111611a72575b506020601f8211600114611a035781906115db939495966000926119545750508160011b916000199060031b1c19161790565b60028201555b606083015180519093906001600160401b0381116117a0576116066003840154612bc9565b601f81116119ce575b506020601f821160011461195f578190611642939495966000926119545750508160011b916000199060031b1c19161790565b60038301555b6080810151600483015560a0810151600583015560c08101518051906801000000000000000082116117a05760068401548260068601558083106118dc575b5060200190600684016000526020600020916000905b8282106117b657866116ce8760096101208961042e60e08201511515600786019060ff801983541691151516179055565b60055490680100000000000000008210156117a057600182018060055582101561178a57600582901c6000805160206163e483398151915201805460ff600394851b60f81690811b1990911660049182901b179091556000527fc5069e24aaadb2addc3e52e868fcf3f4f8acf5a87e24300992fd4540c2a87eed805460ff191660011790556020829052027f83ec6a1f0257b830b5e016457c9cf1435391bf56cc98f369a58a54fe93772465556040516137a99081612c1b8239f35b634e487b7160e01b600052603260045260246000fd5b634e487b7160e01b600052604160045260246000fd5b80518051906001600160401b0382116117a0576117d38654612bc9565b601f811161189f575b50602090601f831160011461182f5792611815836001959460209487966000926118245750508160011b916000199060031b1c19161790565b87555b0194019101909261169d565b015190508d806102c6565b908660005260206000209160005b601f1985168110611887575083602093600196938796938794601f1981161061186e575b505050811b018755611818565b015160001960f88460031b161c191690558c8080611861565b9192602060018192868501518155019401920161183d565b6118cc90876000526020600020601f850160051c810191602086106118d2575b601f0160051c0190612c03565b896117dc565b90915081906118bf565b600685016000526020600020908382015b81830181106118fd575050611687565b8061190a60019254612bc9565b80611917575b50016118ed565b601f8111831461192d5750600081555b89611910565b60009082825261194b601f60208420920160051c8201858301612c03565b81835555611927565b0151905086806102c6565b6003840160005260206000209060005b601f19841681106119b6575060019394959683601f1981161061199d575b505050811b016003830155611648565b015160001960f88460031b161c1916905585808061198d565b9091602060018192858b01518155019301910161196f565b6119fd90600385016000526020600020601f840160051c810191602085106118d257601f0160051c0190612c03565b8561160f565b6002830160005260206000209060005b601f1984168110611a5a575060019394959683601f19811610611a41575b505050811b0160028201556115e1565b015160001960f88460031b161c19169055858080611a31565b9091602060018192858b015181550193019101611a13565b611aa190600284016000526020600020601f840160051c810191602085106118d257601f0160051c0190612c03565b856115a8565b6001850160005260206000209060005b601f1984168110611afe575060019394959683601f19811610611ae5575b505050811b01600184015561157a565b015160001960f88460031b161c19169055858080611ad5565b9091602060018192858b015181550193019101611ab7565b611b4590600186016000526020600020601f840160051c810191602085106118d257601f0160051c0190612c03565b85611541565b634e487b7160e01b600052601160045260246000fd5b80606060208093850101520161126c565b80518051906001600160401b0382116117a057611b8f8654612bc9565b601f8111611c5b575b50602090601f8311600114611beb5792611bd183600195946020948796600092611be05750508160011b916000199060031b1c19161790565b87555b01940191019092611166565b015190508e806102c6565b908660005260206000209160005b601f1985168110611c43575083602093600196938796938794601f19811610611c2a575b505050811b018755611bd4565b015160001960f88460031b161c191690558d8080611c1d565b91926020600181928685015181550194019201611bf9565b611c8790876000526020600020601f850160051c810191602086106118d257601f0160051c0190612c03565b8a611b98565b600685016000526020600020908382015b8183018110611cae575050611150565b80611cbb60019254612bc9565b80611cc8575b5001611c9e565b601f81118314611cde5750600081555b8a611cc1565b600090828252611cfc601f60208420920160051c8201858301612c03565b81835555611cd8565b0151905087806102c6565b9190600385016000526020600020906000935b601f1984168510611d67576001945083601f19811610611d4e575b505050811b016003830155611111565b015160001960f88460031b161c19169055868080611d3e565b81810151835560209485019460019093019290910190611d23565b611db190600386016000526020600020601f850160051c810191602086106118d257601f0160051c0190612c03565b866110da565b9190600285016000526020600020906000935b601f1984168510611e0e576001945083601f19811610611df5575b505050811b0160028301556110ae565b015160001960f88460031b161c19169055868080611de5565b81810151835560209485019460019093019290910190611dca565b611e5890600286016000526020600020601f850160051c810191602086106118d257601f0160051c0190612c03565b86611077565b9190600185016000526020600020906000935b601f1984168510611eb5576001945083601f19811610611e9c575b505050811b01600183015561104b565b015160001960f88460031b161c19169055868080611e8c565b81810151835560209485019460019093019290910190611e71565b611eff90600186016000526020600020601f850160051c810191602086106118d257601f0160051c0190612c03565b86611014565b80518051906001600160401b0382116117a057611f228654612bc9565b601f8111611fe3575b50602090601f8311600114611f735792611f6483600195946020948796600092611be05750508160011b916000199060031b1c19161790565b87555b01940191019092610cd0565b908660005260206000209160005b601f1985168110611fcb575083602093600196938796938794601f19811610611fb2575b505050811b018755611f67565b015160001960f88460031b161c191690558d8080611fa5565b91926020600181928685015181550194019201611f81565b61200f90876000526020600020601f850160051c810191602086106118d257601f0160051c0190612c03565b8a611f2b565b600685016000526020600020908382015b8183018110612036575050610cba565b8061204360019254612bc9565b80612050575b5001612026565b601f811183146120665750600081555b8a612049565b600090828252612084601f60208420920160051c8201858301612c03565b81835555612060565b9190600385016000526020600020906000935b601f19841685106120e4576001945083601f198116106120cb575b505050811b016003830155610c7b565b015160001960f88460031b161c191690558680806120bb565b818101518355602094850194600190930192909101906120a0565b61212e90600386016000526020600020601f850160051c810191602086106118d257601f0160051c0190612c03565b86610c44565b9190600285016000526020600020906000935b601f198416851061218b576001945083601f19811610612172575b505050811b016002830155610c18565b015160001960f88460031b161c19169055868080612162565b81810151835560209485019460019093019290910190612147565b6121d590600286016000526020600020601f850160051c810191602086106118d257601f0160051c0190612c03565b86610be1565b9190600185016000526020600020906000935b601f1984168510612232576001945083601f19811610612219575b505050811b016001830155610bb5565b015160001960f88460031b161c19169055868080612209565b818101518355602094850194600190930192909101906121ee565b61227c90600186016000526020600020601f850160051c810191602086106118d257601f0160051c0190612c03565b86610b7e565b80518051906001600160401b0382116117a05761229f8654612bc9565b601f8111612360575b50602090601f83116001146122f057926122e183600195946020948796600092611be05750508160011b916000199060031b1c19161790565b87555b01940191019092610852565b908660005260206000209160005b601f1985168110612348575083602093600196938796938794601f1981161061232f575b505050811b0187556122e4565b015160001960f88460031b161c191690558d8080612322565b919260206001819286850151815501940192016122fe565b61238c90876000526020600020601f850160051c810191602086106118d257601f0160051c0190612c03565b8a6122a8565b600685016000526020600020908382015b81830181106123b357505061083c565b806123c060019254612bc9565b806123cd575b50016123a3565b601f811183146123e35750600081555b8a6123c6565b600090828252612401601f60208420920160051c8201858301612c03565b818355556123dd565b9190600385016000526020600020906000935b601f1984168510612461576001945083601f19811610612448575b505050811b0160038301556107fd565b015160001960f88460031b161c19169055868080612438565b8181015183556020948501946001909301929091019061241d565b6124ab90600386016000526020600020601f850160051c810191602086106118d257601f0160051c0190612c03565b866107c6565b9190600285016000526020600020906000935b601f1984168510612508576001945083601f198116106124ef575b505050811b01600283015561079a565b015160001960f88460031b161c191690558680806124df565b818101518355602094850194600190930192909101906124c4565b61255290600286016000526020600020601f850160051c810191602086106118d257601f0160051c0190612c03565b86610763565b9190600185016000526020600020906000935b601f19841685106125af576001945083601f19811610612596575b505050811b016001830155610737565b015160001960f88460031b161c19169055868080612586565b8181015183556020948501946001909301929091019061256b565b6125f990600186016000526020600020601f850160051c810191602086106118d257601f0160051c0190612c03565b86610700565b8060606020809385010152016104fc565b80518051906001600160401b0382116117a05761262d8654612bc9565b601f81116126f9575b50602090601f8311600114612689579261266f8360019594602094879660009261267e5750508160011b916000199060031b1c19161790565b87555b019401910190926103fc565b0151905038806102c6565b908660005260206000209160005b601f19851681106126e1575083602093600196938796938794601f198116106126c8575b505050811b018755612672565b015160001960f88460031b161c191690553880806126bb565b91926020600181928685015181550194019201612697565b61272590876000526020600020601f850160051c810191602086106118d257601f0160051c0190612c03565b38612636565b600685016000526020600020908382015b818301811061274c5750506103e6565b8061275960019254612bc9565b80612766575b500161273c565b601f8111831461277c5750600081555b3861275f565b60009082825261279a601f60208420920160051c8201858301612c03565b81835555612776565b9190600385016000526020600020906000935b601f19841685106127fa576001945083601f198116106127e1575b505050811b0160038301556103a7565b015160001960f88460031b161c191690553880806127d1565b818101518355602094850194600190930192909101906127b6565b61284490600386016000526020600020601f850160051c810191602086106118d257601f0160051c0190612c03565b38610370565b9190600285016000526020600020906000935b601f19841685106128a1576001945083601f19811610612888575b505050811b016002830155610344565b015160001960f88460031b161c19169055388080612878565b8181015183556020948501946001909301929091019061285d565b6128eb90600286016000526020600020601f850160051c810191602086106118d257601f0160051c0190612c03565b3861030d565b9190600185016000526020600020906000935b601f1984168510612948576001945083601f1981161061292f575b505050811b0160018301556102e1565b015160001960f88460031b161c1916905538808061291f565b81810151835560209485019460019093019290910190612904565b61299290600186016000526020600020601f850160051c810191602086106118d257601f0160051c0190612c03565b386102a9565b8060606020809385010152016100e8565b600080fd5b6040519061014082016001600160401b038111838210176117a057604052565b60408051919082016001600160401b038111838210176117a057604052565b60405190606082016001600160401b038111838210176117a057604052565b6001600160a01b031660008181527fad3228b676f7d3cd4284a5443f17f1962b36e491b30a40b2405849e597ba5fb5602052604081205490919060ff16612a8657818052816020526040822081835260205260408220600160ff1982541617905533916000805160206163c48339815191528180a4600190565b5090565b6001600160a01b031660008181527f7d7ffb7a348e1c6a02869081a26547b49160dd3df72d1d75a570eb9b698292ec60205260408120549091907fa49807205ce4d355092ef5a8a18f56e8913cf4a201fbe287825b095693c217759060ff16612b2557808352826020526040832082845260205260408320600160ff198254161790556000805160206163c4833981519152339380a4600190565b505090565b6040519060c082016001600160401b038111838210176117a057604052600582528160005b60a08110612b5b575050565b806060602080938501015201612b4f565b80511561178a5760200190565b80516001101561178a5760400190565b80516002101561178a5760600190565b80516003101561178a5760800190565b80516004101561178a5760a00190565b80516005101561178a5760c00190565b90600182811c92168015612bf9575b6020831014612be357565b634e487b7160e01b600052602260045260246000fd5b91607f1691612bd8565b818110612c0e575050565b60008155600101612c0356fe608080604052600436101561001357600080fd5b60003560e01c90816301ffc9a7146129be575080630216ef41146129a05780630763e0ab1461290d5780631f86011f14612896578063248a9ca31461286757806325a7f8191461272c5780632df3eba41461270e5780632ebfc24a146126ec5780632f2ff15d146126ad57806336568abe146126665780633abbba96146121005780634b319713146120e257806350fe2619146114f757806351359c97146120a457806360a31a8814611fcb57806368c4ac2614611f8c5780637037d57314611f5157806375b238fc14611f165780637e9f49e314611cff578063857715fe14611b2857806388b66e2914611af45780638a793c0d1461193457806391d14854146118e757806392cff5fe146118ad5780639564cd241461179e57806398de396a14611696578063a12b2121146115a4578063a217fddf14611588578063b4d1d7951461156a578063b56f4ded14611530578063b997fe94146114f7578063bdc3645a146114bd578063bee1324b14610ecf578063c5dfd6e314610e82578063c8514d5814610e1d578063c9211c8214610ca5578063d547741f14610c64578063e6b52922146105ba578063e798646614610526578063e8b032b61461038f5763ebaef385146101e257600080fd5b3461038a57600036600319011261038a57600580546000805b828110610341575061020c906133cf565b9160009060005b83811061022c57604051806102288782612f51565b0390f35b61023581612e1b565b9060ff809154600393841b1c1660005260209160048352600782816040600020015416610269575b50505050600101610213565b9160096103379492828799958161028160019a612e1b565b905490851b1c16600052600486526102d2604060002093604051976102a589612b26565b8486541689526102b68c8701612d36565b908901526102c660028601612d36565b60408901528401612d36565b6060870152600483015460808701528983015460a08701526102f66006840161341f565b60c087015282015416151560e085015260088101546101008501520154161515610120820152610326828961336c565b52610331818861336c565b5061358e565b929038808061025d565b61034a81612e1b565b9060ff918291549060031b1c16600052600460205260076040600020015416610376575b6001016101fb565b9061038260019161358e565b91905061036e565b600080fd5b3461038a57606036600319011261038a576103a8612af5565b6103b0612adf565b90604435906103bd61359d565b6103c5613730565b6001600160a01b03908116926103dc841515613536565b16906103e9821515613474565b6103f48115156134d1565b826000526020600a8152610417604060002054600b83526040600020549061308f565b82116104d05783600052600b81526040600020610435838254613293565b90556040519163a9059cbb60e01b835283600484015280602484015281836044816000895af19283156104c4577fc3853e6fee2a6777802bd492f98d51304bfc90876e592d928f8a361dd9a7444793610497575b50604051908152a360018055005b6104b690833d85116104bd575b6104ae8183612b42565b810190613354565b5085610489565b503d6104a4565b6040513d6000823e3d90fd5b6084906040519062461bcd60e51b82526004820152602960248201527f537562736372697074696f6e3a20696e73756666696369656e7420746f6b656e604482015268206561726e696e677360b81b6064820152fd5b3461038a57604036600319011261038a5761053f612af5565b602435908115159081830361038a577fbbe72b7d9dcb594ee398a4a617885aba53d833e2aad601c813ce9df99fdeb49b916105b160209261057e61359d565b6001600160a01b031694610593861515613536565b856000526009845260406000209060ff801983541691151516179055565b604051908152a2005b3461038a576105c836612bdc565b949896956105da94919493929361359d565b60ff8816600052600660205260ff60406000205416610c15576105ff8951151561309c565b61060b875115156130f3565b6040519661061888612b26565b60ff891688528960208901526040880152606087015288608087015260a086015260c0850152151560e0840152610100830152151561012082015260ff8216600052600460205260406000209060ff81511660ff1983541617825560208101518051906001600160401b0382116108d9576106966001850154612cfc565b601f8111610be0575b50602090601f8311600114610b6e576106d1929160009183610a15575b50508160011b916000199060031b1c19161790565b60018301555b60408101518051906001600160401b0382116108d9576106fa6002850154612cfc565b601f8111610b39575b50602090601f8311600114610ac757610734929160009183610a155750508160011b916000199060031b1c19161790565b60028301555b60608101518051906001600160401b0382116108d95761075d6003850154612cfc565b601f8111610a92575b50602090601f8311600114610a2057610797929160009183610a155750508160011b916000199060031b1c19161790565b60038301555b6080810151600483015560a081015160058301556006820160c082015160208151916107c983856131b2565b01916000526020600020916000905b8282106108ef57505050509060096101208361080c60e061082e9601511515600786019060ff801983541691151516179055565b61010081015160088501550151151591019060ff801983541691151516179055565b60055491600160401b8310156108d95760ff826108926108cc946108798760017fae558decf2e9c74b6790144120387f8f42428d14d8bd9b23c4f0dd0014ae22749901600555612e1b565b90919060ff8084549260031b9316831b921b1916179055565b8181166000526006602052604060002060018319825416179055600360205285604060002055604051938493604085526040850190612ddb565b95602084015216930390a2005b634e487b7160e01b600052604160045260246000fd5b80518051906001600160401b0382116108d95761090c8654612cfc565b601f81116109d8575b50602090601f8311600114610968579261094e8360019594602094879660009261095d5750508160011b916000199060031b1c19161790565b87555b019401910190926107d8565b015190508f806106bc565b908660005260206000209160005b601f19851681106109c0575083602093600196938796938794601f198116106109a7575b505050811b018755610951565b015160001960f88460031b161c191690558e808061099a565b91926020600181928685015181550194019201610976565b610a0590876000526020600020601f850160051c81019160208610610a0b575b601f0160051c0190613152565b8b610915565b90915081906109f8565b0151905088806106bc565b9190600385016000526020600020906000935b601f1984168510610a77576001945083601f19811610610a5e575b505050811b01600383015561079d565b015160001960f88460031b161c19169055878080610a4e565b81810151835560209485019460019093019290910190610a33565b610ac190600386016000526020600020601f850160051c81019160208610610a0b57601f0160051c0190613152565b87610766565b9190600285016000526020600020906000935b601f1984168510610b1e576001945083601f19811610610b05575b505050811b01600283015561073a565b015160001960f88460031b161c19169055878080610af5565b81810151835560209485019460019093019290910190610ada565b610b6890600286016000526020600020601f850160051c81019160208610610a0b57601f0160051c0190613152565b87610703565b9190600185016000526020600020906000935b601f1984168510610bc5576001945083601f19811610610bac575b505050811b0160018301556106d7565b015160001960f88460031b161c19169055878080610b9c565b81810151835560209485019460019093019290910190610b81565b610c0f90600186016000526020600020601f850160051c81019160208610610a0b57601f0160051c0190613152565b8761069f565b60405162461bcd60e51b815260206004820152602160248201527f537562736372697074696f6e3a20706c616e20616c72656164792065786973746044820152607360f81b6064820152608490fd5b3461038a57604036600319011261038a57610ca3600435610c83612adf565b90806000526000602052610c9e600160406000200154613617565b6136bb565b005b3461038a57604036600319011261038a576004356001600160a01b0381169081900361038a5760243590610cd761359d565b610cdf613730565b610cea811515613474565b610cf58215156134d1565b600754610d05600854809261308f565b8311610dcc5782610d1591613293565b600855600080808085855af13d15610dc7573d610d3181612b63565b90610d3f6040519283612b42565b8152600060203d92013e5b15610d82577fc3853e6fee2a6777802bd492f98d51304bfc90876e592d928f8a361dd9a744476020600093604051908152a360018055005b60405162461bcd60e51b815260206004820152601f60248201527f537562736372697074696f6e3a207769746864726177616c206661696c6564006044820152606490fd5b610d4a565b60405162461bcd60e51b815260206004820152602360248201527f537562736372697074696f6e3a20696e73756666696369656e74206561726e696044820152626e677360e81b6064820152608490fd5b3461038a57602036600319011261038a5760ff610e38612abf565b16806000526006602052610e5360ff60406000205416613039565b6000526004602052610228610e6e600660406000200161341f565b604051918291602083526020830190612e58565b3461038a57602036600319011261038a576001600160a01b03610ea3612af5565b16600052600a6020526020610ec7604060002054600b83526040600020549061308f565b604051908152f35b3461038a57600036600319011261038a57604051806005549081835260208093019181848460056000527f036b6384b5eca791c62761152d0c79bb0604c104a5fb6f4eb0703f3154bb3db06000905b85601f830110611333579461103c95549184828210611320575b82821061130a575b8282106112f4575b8282106112de575b8282106112c9575b8282106112b3575b82821061129d575b828210611287575b828210611271575b82821061125b575b828210611245575b82821061122f575b828210611219575b828210611203575b8282106111ed575b8282106111d7575b8282106111c1575b8282106111ab575b828210611195575b82821061117f575b828210611169575b828210611153575b82821061113d575b828210611127575b828210611111575b8282106110fb575b8282106110e5575b8282106110cf575b8282106110b9575b8282106110a3575b82821061108d575b501061107f575b5090509392930383612b42565b604051928392818401908285525180915260408401929160005b82811061106557505050500390f35b835160ff1685528695509381019392810192600101611056565b60f81c81520185908761102f565b6001919460ff8560f01c16815201930184611028565b6001919460ff8560e81c16815201930184611020565b6001919460ff8560e01c16815201930184611018565b6001919460ff8560d81c16815201930184611010565b6001919460ff8560d01c16815201930184611008565b6001919460ff8560c81c16815201930184611000565b6001919460ff8560c01c16815201930184610ff8565b6001919460ff8560b81c16815201930184610ff0565b6001919460ff8560b01c16815201930184610fe8565b6001919460ff8560a81c16815201930184610fe0565b6001919460ff8560a01c16815201930184610fd8565b6001919460ff8560981c16815201930184610fd0565b6001919460ff8560901c16815201930184610fc8565b6001919460ff8560881c16815201930184610fc0565b6001919460ff8560801c16815201930184610fb8565b6001919460ff8560781c16815201930184610fb0565b6001919460ff8560701c16815201930184610fa8565b6001919460ff8560681c16815201930184610fa0565b6001919460ff8560601c16815201930184610f98565b6001919460ff8560581c16815201930184610f90565b6001919460ff8560501c16815201930184610f88565b6001919460ff8560481c16815201930184610f80565b6001919460ff8560401c16815201930184610f78565b6001919460ff8560381c16815201930184610f70565b6001919460ff8560301c16815201930184610f68565b6001919460ff8560281c16815201930184610f60565b6001919460ff85831c16815201930184610f58565b6001919460ff8560181c16815201930184610f50565b6001919460ff8560101c16815201930184610f48565b6001919460ff8560081c16815201930184610f40565b6001919460ff8516815201930184610f38565b9350916001610400829693865460ff8082168352808260081c1686840152808260101c16604084015280828482826060828260181c168185015282828d82826080921c1681880152828260a095828260281c16878b015260c099838360301c168b820152838360381c1660e0820152838360401c16610100820152838360481c16610120820152838360501c16610140820152610160848460581c169101521c166101808d0152828260681c166101a08d0152828260701c166101c08d0152828260781c166101e08d01521c166102008a0152828260881c166102208a0152828260901c166102408a0152828260981c166102608a01521c16610280870152828260a81c166102a0870152828260b01c166102c0870152828260b81c166102e08701521c16610300840152808260c81c16610320840152808260d01c16610340840152808260d81c16610360840152808260e01c16610380840152808260e81c166103a08401528160f01c166103c083015260f81c6103e082015201940192018593919492610f1e565b3461038a57602036600319011261038a576001600160a01b036114de612af5565b16600052600a6020526020604060002054604051908152f35b3461038a57602036600319011261038a5760ff611512612abf565b166000526006602052602060ff604060002054166040519015158152f35b3461038a57602036600319011261038a576001600160a01b03611551612af5565b16600052600b6020526020604060002054604051908152f35b3461038a57600036600319011261038a57602060405162278d008152f35b3461038a57600036600319011261038a57602060405160008152f35b3461038a5760208060031936011261038a5760ff6115c0612abf565b6115c8613380565b501680600052600682526115e360ff60406000205416613039565b6000526004815260406000209060ff60096040519361160185612b26565b82815416855261161360018201612d36565b8486015261162360028201612d36565b604086015261163460038201612d36565b606086015260048101546080860152600581015460a08601526116596006820161341f565b60c086015282600782015416151560e086015260088101546101008601520154161515610120830152610228604051928284938452830190612eb5565b3461038a57600036600319011261038a57600580546116b4816133cf565b9160005b8281106116cd57604051806102288682612f51565b806116d9600192612e1b565b9060ff809154600393841b1c166000526009602092600484526117356040600020916040519561170887612b26565b858454168752611719898501612d36565b9087015261172960028401612d36565b60408701528201612d36565b6060850152600481015460808501528681015460a08501526117596006820161341f565b60c085015282600782015416151560e08501526008810154610100850152015416151561012082015261178c828761336c565b52611797818661336c565b50016116b8565b604036600319011261038a576117b2612af5565b60ff6117bc612acf565b16908160005260036020526117e26040600020546117db8115156131fb565b3414613247565b6001600160a01b0316600081815260026020526040902054428111156118a6575b62278d0081018091116118905760207f93f5683cd2a0b9749f9b7565b21809261c2a5db4d337b4bbea8dbdf4684756f99183600052600282528060406000205561184f34600754613293565b60075561188760405161186181612b0b565b3381528584820152866040820152346060820152600060808201524260a08201526132a0565b604051908152a3005b634e487b7160e01b600052601160045260246000fd5b5042611803565b3461038a57602036600319011261038a576001600160a01b036118ce612af5565b1660005260026020526020604060002054604051908152f35b3461038a57604036600319011261038a57611900612adf565b600435600052600060205260406000209060018060a01b0316600052602052602060ff604060002054166040519015158152f35b3461038a57604036600319011261038a57600435602435808211611aaf57600c54811015611a5c57816119669161308f565b9060019160018101809111611890579161197f83612bc5565b9261198d6040519485612b42565b80845261199981612bc5565b60209390601f190160005b818110611a4057505060005b828110611a0257505050604051918083018184528451809152816040850195019160005b8281106119e15785870386f35b909192938260c0886119f5849a8951612a29565b01979501939291016119d4565b9283611a21611a1b611a1684999786613293565b612a6e565b50612fe7565b611a2b828761336c565b52611a36818661336c565b50019492946119b0565b8590611a4d979597612fb5565b828288010152019593956119a4565b60405162461bcd60e51b815260206004820152602560248201527f537562736372697074696f6e3a20656e6420696e646578206f7574206f6620626044820152646f756e647360d81b6064820152608490fd5b60405162461bcd60e51b815260206004820152601b60248201527f537562736372697074696f6e3a20696e76616c69642072616e676500000000006044820152606490fd5b3461038a57602036600319011261038a5760ff611b0f612abf565b1660005260036020526020604060002054604051908152f35b3461038a57608036600319011261038a57611b41612af5565b611b49612acf565b6001600160a01b0390604435828116919082900361038a5760643592826000526020916009835260ff6040600020541615611cb05760ff16948560005260038352611ba5604060002054611b9e8115156131fb565b8614613247565b16928360005260028252604060002054428111600014611ca857905b62278d008201809211611890576000936064849287875260028452846040882055828752600a845260408720611bf8828254613293565b9055611c2e604051611c0981612b0b565b33815289868201528a60408201528260608201528460808201524260a08201526132a0565b60405196879384926323b872dd60e01b845233600485015230602485015260448401525af19283156104c4577f93f5683cd2a0b9749f9b7565b21809261c2a5db4d337b4bbea8dbdf4684756f993611c8b575b50604051908152a3005b611ca190833d85116104bd576104ae8183612b42565b5085611c81565b504290611bc1565b60405162461bcd60e51b815260048101849052602160248201527f537562736372697074696f6e3a20746f6b656e206e6f7420737570706f7274656044820152601960fa1b6064820152608490fd5b3461038a5760208060031936011261038a57611d19612abf565b611d2161359d565b60ff809116918260005260068152611d4060ff60406000205416613039565b8215611ec45760005b6005805480831015611eba5790849186611d6285612e1b565b949054600395861b1c1614611d7c57505050600101611d49565b93949193909260001991808301919082116118905761087984611da1611dae94612e1b565b905490891b1c1691612e1b565b82548015611ea4570192611dc184612e1b565b81939154921b1b19169055555b81600052600481526040600020600081556001611ded60018301613169565b611df960028301613169565b611e0560038301613169565b6000600483015560006005830155600682018054906000815581611e7f575b856006866000600988826007820155826008820155015582600052600381526000604081205552604060002060ff1981541690557f15f24668df6fb1c359e7625bd2ae2cc0b2d87604bb5c96adce721a4fc2ea1809600080a2005b60005283600020908101905b81811015611e245780611e9e8492613169565b01611e8b565b634e487b7160e01b600052603160045260246000fd5b5050509050611dce565b6084906040519062461bcd60e51b82526004820152602560248201527f537562736372697074696f6e3a2063616e6e6f742064656c657465206672656560448201526410383630b760d91b6064820152fd5b3461038a57600036600319011261038a5760206040517fa49807205ce4d355092ef5a8a18f56e8913cf4a201fbe287825b095693c217758152f35b3461038a57602036600319011261038a5760043560055481101561038a5760ff611f7c602092612e1b565b9190546040519260031b1c168152f35b3461038a57602036600319011261038a576001600160a01b03611fad612af5565b166000526009602052602060ff604060002054166040519015158152f35b3461038a57602036600319011261038a5760ff611fe6612abf565b166000526004602052604060002060ff81541661200560018301612d36565b9161201260028201612d36565b61201e60038301612d36565b91600481015492600582015461208160ff6007850154169261207360ff6009600888015497015416966120656040519b8c809c6020610120928392815201528c0190612ddb565b908a820360408c0152612ddb565b9088820360608a0152612ddb565b94608087015260a0860152151560c085015260e084015215156101008301520390f35b3461038a57600036600319011261038a5760806007546008546120c7818361308f565b600c5491604051938452602084015260408301526060820152f35b3461038a57600036600319011261038a576020600854604051908152f35b3461038a5761210e36612bdc565b9590939194989661211d61359d565b60ff8816600052600660205261213a60ff60406000205416613039565b6121468951151561309c565b612152815115156130f3565b60ff88166000526004602052600160406000200189516001600160401b0381116108d9576121808254612cfc565b601f8111612634575b506020601f82116001146125cd5790806121b9926000916125c2575b508160011b916000199060031b1c19161790565b90555b60ff881660005260046020526002604060002001908051906001600160401b0382116108d9576121ec8354612cfc565b601f8111612590575b50602090601f8311600114612524576122269291600091836124795750508160011b916000199060031b1c19161790565b90555b60ff871660005260046020526003604060002001908051906001600160401b0382116108d9576122598354612cfc565b601f81116124f2575b50602090601f83116001146124845791806122989260069695946000926124795750508160011b916000199060031b1c19161790565b90555b60ff871660005260046020526040600020908960048301556005820155019060208151916122c983856131b2565b01916000526020600020916000905b82821061235e57896000805160206137548339815191526108cc8b60ff8c61233e8d60098e8e8686166000526004602052612327604060002092600784019060ff801983541691151516179055565b6008820155019060ff801983541691151516179055565b600360205285604060002055604051938493604085526040850190612ddb565b80518051906001600160401b0382116108d95761237b8654612cfc565b601f8111612447575b50602090601f83116001146123d757926123bd836001959460209487966000926123cc5750508160011b916000199060031b1c19161790565b87555b019401910190926122d8565b0151905038806106bc565b908660005260206000209160005b601f198516811061242f575083602093600196938796938794601f19811610612416575b505050811b0187556123c0565b015160001960f88460031b161c191690558f8080612409565b919260206001819286850151815501940192016123e5565b61247390876000526020600020601f850160051c81019160208610610a0b57601f0160051c0190613152565b8c612384565b015190508d806106bc565b908360005260206000209160005b601f19851681106124da57509183916001936006979695601f198116106124c1575b505050811b01905561229b565b015160001960f88460031b161c191690558c80806124b4565b91926020600181928685015181550194019201612492565b61251e90846000526020600020601f850160051c81019160208610610a0b57601f0160051c0190613152565b8b612262565b9190836000526020600020906000935b601f1984168510612575576001945083601f1981161061255c575b505050811b019055612229565b015160001960f88460031b161c191690558c808061254f565b81810151835560209485019460019093019290910190612534565b6125bc90846000526020600020601f850160051c81019160208610610a0b57601f0160051c0190613152565b8c6121f5565b90508c01518e6121a5565b908260005260206000206000925b8d601f198416851061261d57506001935082601f19811610612604575b5050811b0190556121bc565b8d015160001960f88460031b161c191690558d806125f8565b8101518255602093840193600190920191016125db565b61266090836000526020600020601f840160051c81019160208510610a0b57601f0160051c0190613152565b8c612189565b3461038a57604036600319011261038a5761267f612adf565b336001600160a01b0382160361269b57610ca3906004356136bb565b60405163334bd91960e11b8152600490fd5b3461038a57604036600319011261038a57610ca36004356126cc612adf565b908060005260006020526126e7600160406000200154613617565b61363d565b3461038a57600036600319011261038a576020610ec76007546008549061308f565b3461038a57600036600319011261038a576020600754604051908152f35b3461038a57604036600319011261038a57612745612abf565b60ff6024359161275361359d565b168060005260206006815261276f60ff60406000205416613039565b81600052600381528260406000205560048152604060002092806004850155600180940191604051926040845260009581546127aa81612cfc565b9283604088015260609160018116908160001461282f57506001146127e7575b8760008051602061375483398151915288808c8a8a8301520390a2005b6000908152848120949850935b83851061281c57505050508201606001938160008051602061375483398151915284886127ca565b80548786018301529388019382016127f4565b91505060008051602061375483398151915297985060609250869593915060ff191682860152151560051b84010195948193886127ca565b3461038a57602036600319011261038a5760043560005260006020526020600160406000200154604051908152f35b3461038a57602036600319011261038a57600435600c5481101561038a576128bf60c091612a6e565b5060018060a01b038082541691600181015460ff600283015491600485600386015416940154946040519687528116602087015260a01c1660408501526060840152608083015260a0820152f35b3461038a57602036600319011261038a57600435612929612fb5565b50600c5481101561295157612942611a1b60c092612a6e565b61294f6040518092612a29565bf35b60405162461bcd60e51b815260206004820152602160248201527f537562736372697074696f6e3a20696e646578206f7574206f6620626f756e646044820152607360f81b6064820152608490fd5b3461038a57600036600319011261038a576020600c54604051908152f35b3461038a57602036600319011261038a576004359063ffffffff60e01b821680920361038a57602091637965db0b60e01b8114908115612a18575b8115612a07575b5015158152f35b6301ffc9a760e01b14905083612a00565b6301ffc9a760e01b811491506129f9565b60a08091600180831b0380825116855280602083015116602086015260ff60408301511660408601526060820151606086015260808201511660808501520151910152565b600c54811015612aa957600590600c600052027fdf6966c971051c3d54ec59162606531493a51404a002842f56009d7e5cf4a8c70190600090565b634e487b7160e01b600052603260045260246000fd5b6004359060ff8216820361038a57565b6024359060ff8216820361038a57565b602435906001600160a01b038216820361038a57565b600435906001600160a01b038216820361038a57565b60c081019081106001600160401b038211176108d957604052565b61014081019081106001600160401b038211176108d957604052565b90601f801991011681019081106001600160401b038211176108d957604052565b6001600160401b0381116108d957601f01601f191660200190565b81601f8201121561038a57803590612b9582612b63565b92612ba36040519485612b42565b8284526020838301011161038a57816000926020809301838601378301015290565b6001600160401b0381116108d95760051b60200190565b61014060031982011261038a5760043560ff8116810361038a57916024916001600160401b0390833582811161038a5781612c1991600401612b7e565b9360443583811161038a5782612c3191600401612b7e565b9360643584811161038a5783612c4991600401612b7e565b936084359360a4359360c4359280841161038a578260238501121561038a578360040135612c7681612bc5565b94612c846040519687612b42565b8186526020946024602088019360051b8301019481861161038a5760248301935b868510612cd75750505050505050509060e435801515810361038a5790610104359061012435801515810361038a5790565b843586811161038a578891612cf185858594890101612b7e565b815201940193612ca5565b90600182811c92168015612d2c575b6020831014612d1657565b634e487b7160e01b600052602260045260246000fd5b91607f1691612d0b565b90604051918260008254612d4981612cfc565b90818452602094600191600181169081600014612db95750600114612d7a575b505050612d7892500383612b42565b565b600090815285812095935091905b818310612da1575050612d789350820101388080612d69565b85548884018501529485019487945091830191612d88565b92505050612d7894925060ff191682840152151560051b820101388080612d69565b919082519283825260005b848110612e07575050826000602080949584010152601f8019910116010190565b602081830181015184830182015201612de6565b90600554821015612aa9576005600052601f8260051c7f036b6384b5eca791c62761152d0c79bb0604c104a5fb6f4eb0703f3154bb3db001921690565b90808251908181526020809101926020808460051b8301019501936000915b848310612e875750505050505090565b9091929394958480612ea5600193601f198682030187528a51612ddb565b9801930193019194939290612e77565b90612f2a612f04612ef2612ee061014060ff8751168652602087015190806020880152860190612ddb565b60408601518582036040870152612ddb565b60608501518482036060860152612ddb565b6080840151608084015260a084015160a084015260c084015183820360c0850152612e58565b9160e0810151151560e0830152610100808201519083015261012080910151151591015290565b6020808201906020835283518092526040830192602060408460051b8301019501936000915b848310612f875750505050505090565b9091929394958480612fa5600193603f198682030187528a51612eb5565b9801930193019194939290612f77565b60405190612fc282612b0b565b8160a06000918281528260208201528260408201528260608201528260808201520152565b90604051612ff481612b0b565b60a060048294600180841b0380825416855260ff60018301548281166020880152851c1660408601526002820154606086015260038201541660808501520154910152565b1561304057565b60405162461bcd60e51b815260206004820152602160248201527f537562736372697074696f6e3a20706c616e20646f6573206e6f7420657869736044820152601d60fa1b6064820152608490fd5b9190820391821161189057565b156130a357565b60405162461bcd60e51b815260206004820152602260248201527f537562736372697074696f6e3a206e616d652063616e6e6f7420626520656d70604482015261747960f01b6064820152608490fd5b156130fa57565b60405162461bcd60e51b815260206004820152602a60248201527f537562736372697074696f6e3a20646973706c6179206e616d652063616e6e6f6044820152697420626520656d70747960b01b6064820152608490fd5b81811061315d575050565b60008155600101613152565b6131738154612cfc565b908161317d575050565b81601f6000931160011461318f575055565b9080839182526131ae601f60208420940160051c840160018501613152565b5555565b90600160401b81116108d9578154918181558282106131d057505050565b600052602060002091820191015b8181106131e9575050565b806131f5600192613169565b016131de565b1561320257565b60405162461bcd60e51b815260206004820152601a60248201527f537562736372697074696f6e3a20756e6b6e6f776e20706c616e0000000000006044820152606490fd5b1561324e57565b60405162461bcd60e51b815260206004820152601f60248201527f537562736372697074696f6e3a20696e636f7272656374207061796d656e74006044820152606490fd5b9190820180921161189057565b600c54600160401b8110156108d9578060016132bf9201600c55612a6e565b91909161333e5760a0600491600180831b03808251166bffffffffffffffffffffffff841b9081875416178655600186018260208501511681549060ff871b6040870151881b16916affffffffffffffffffffff60a81b1617179055606083015160028701556003860191608084015116908254161790550151910155565b634e487b7160e01b600052600060045260246000fd5b9081602091031261038a5751801515810361038a5790565b8051821015612aa95760209160051b010190565b6040519061338d82612b26565b8161012060009182815260606020820152606060408201526060808201528260808201528260a0820152606060c08201528260e0820152826101008201520152565b906133d982612bc5565b6133e66040519182612b42565b82815280926133f7601f1991612bc5565b019060005b82811061340857505050565b602090613413613380565b828285010152016133fc565b90815461342b81612bc5565b926134396040519485612b42565b818452600090815260208082208186015b848410613458575050505050565b600183819261346685612d36565b81520192019301929061344a565b1561347b57565b60405162461bcd60e51b815260206004820152602860248201527f537562736372697074696f6e3a20696e76616c6964207769746864726177616c604482015267206164647265737360c01b6064820152608490fd5b156134d857565b60405162461bcd60e51b815260206004820152603060248201527f537562736372697074696f6e3a207769746864726177616c20616d6f756e742060448201526f6d75737420626520706f73697469766560801b6064820152608490fd5b1561353d57565b60405162461bcd60e51b815260206004820152602360248201527f537562736372697074696f6e3a20696e76616c696420746f6b656e206164647260448201526265737360e81b6064820152608490fd5b60001981146118905760010190565b3360009081527f7d7ffb7a348e1c6a02869081a26547b49160dd3df72d1d75a570eb9b698292ec60205260409020547fa49807205ce4d355092ef5a8a18f56e8913cf4a201fbe287825b095693c217759060ff16156135f95750565b6044906040519063e2517d3f60e01b82523360048301526024820152fd5b80600052600060205260406000203360005260205260ff60406000205416156135f95750565b9060009180835282602052604083209160018060a01b03169182845260205260ff604084205416156000146136b657808352826020526040832082845260205260408320600160ff198254161790557f2f8788117e7eff1d82e926ec794901d17c78024a50270940304540a733656f0d339380a4600190565b505090565b9060009180835282602052604083209160018060a01b03169182845260205260ff6040842054166000146136b65780835282602052604083208284526020526040832060ff1981541690557ff6391f5c32d9c69d2a47ea670b442974b53935d1edc7fd64eb21e047a839171b339380a4600190565b600260015414613741576002600155565b604051633ee5aeb560e01b8152600490fdfe462483258991e6a7145fba99be1b83b3c23d949f15d84e155f9bc47d7a4353dea2646970667358221220edaa02ffc15d266662540478722eedd10a0be040caef734407570f6cea61f4c064736f6c634300081900332f8788117e7eff1d82e926ec794901d17c78024a50270940304540a733656f0d036b6384b5eca791c62761152d0c79bb0604c104a5fb6f4eb0703f3154bb3db0",
    "linkReferences": {}
  },
  "methodIdentifiers": {
    "ADMIN_ROLE()": "75b238fc",
    "DEFAULT_ADMIN_ROLE()": "a217fddf",
    "PERIOD()": "b4d1d795",
    "createPlan(uint8,string,string,string,uint256,uint256,string[],bool,uint256,bool)": "e6b52922",
    "deletePlan(uint8)": "7e9f49e3",
    "earningRecords(uint256)": "1f86011f",
    "getAllActivePlans()": "ebaef385",
    "getAllPlanKeys()": "bee1324b",
    "getAllPlans()": "98de396a",
    "getAvailableEarnings()": "2ebfc24a",
    "getAvailableTokenEarnings(address)": "c5dfd6e3",
    "getEarningRecord(uint256)": "0763e0ab",
    "getEarningRecords(uint256,uint256)": "8a793c0d",
    "getEarningRecordsCount()": "0216ef41",
    "getEarningsSummary()": "51359c97",
    "getPlan(uint8)": "a12b2121",
    "getPlanFeatures(uint8)": "c8514d58",
    "getRoleAdmin(bytes32)": "248a9ca3",
    "grantRole(bytes32,address)": "2f2ff15d",
    "hasRole(bytes32,address)": "91d14854",
    "paidUntil(address)": "92cff5fe",
    "paySubscription(address,uint8)": "9564cd24",
    "paySubscriptionWithToken(address,uint8,address,uint256)": "857715fe",
    "planExists(uint8)": "b997fe94",
    "planExistsCheck(uint8)": "50fe2619",
    "planKeys(uint256)": "7037d573",
    "planPriceWei(uint8)": "88b66e29",
    "plans(uint8)": "60a31a88",
    "renounceRole(bytes32,address)": "36568abe",
    "revokeRole(bytes32,address)": "d547741f",
    "setPlanPrice(uint8,uint256)": "25a7f819",
    "setSupportedToken(address,bool)": "e7986466",
    "supportedTokens(address)": "68c4ac26",
    "supportsInterface(bytes4)": "01ffc9a7",
    "tokenEarnings(address)": "bdc3645a",
    "tokenWithdrawn(address)": "b56f4ded",
    "totalEarnings()": "2df3eba4",
    "totalWithdrawn()": "4b319713",
    "updatePlan(uint8,string,string,string,uint256,uint256,string[],bool,uint256,bool)": "3abbba96",
    "withdrawEarnings(address,uint256)": "c9211c82",
    "withdrawTokenEarnings(address,address,uint256)": "e8b032b6"
  },
  "id": 49
}